:060000000A128A110C280F
:10000800FE00030EF8000A08F9000A128A111A28DD
:100018000A128A110F28F001F101F201F301F4012B
:10002800F501F60183010A128A11EC2883120313E1
:100038008C1D1F28202870281412141B24282528FA
:100048002928941F282829282E281308F600141375
:100058009413141683160313941A332834284E283D
:100068001419372838284E28831203131308F6006A
:100078008C11141683160313141C432844283E2895
:100088008312031313088800A630F700F70B4A28D9
:1000980000006D28941A512852286D28141D5528DF
:1000A80056286D28831203131308F60083160313CA
:1000B800141075088312031393001416A630F70062
:1000C800F70B642800008316031314186C286D2896
:1000D8006728831203138C1179088A00780E83002D
:1000E800FE0E7E0E0900831203132008A200A20D43
:1000F800A20D1F082206C33922069F009F149F18CD
:10010800862887288328413083120313A200A20B74
:100118008B288E28831203131E08A200A30122082D
:10012800A0002308A10008000130831603178800E7
:100138008901003083120313A000A1000A128A115A
:10014800B6200A128A1183160313860188018312C6
:1001580003138601880150300A128A11D2200A122C
:100168008A110800831603139F131F129F1283120C
:1001780003131F139F172008FA00FA0DFA0D1F0822
:100188007A06C3397A069F004230FA00FA0BCA2869
:100198000000831203131F149F140800FA007A0842
:1001A80083160313930036308312031394008030B0
:1001B80083160313940001309100871507168B17D7
:1001C8000B17831203138C11831603138C15080065
:1001D8000A128A1198200A128A1100308312031316
:1001E800A000A1000A128A1177200A128A1183122C
:0E01F80003132008F500F1280A128A110C28C2
:04400E00D420FF3F7C
:00000001FF
