:060000000A128A110C280F
:10000800FE00030EF7000A08F8000A128A11962863
:100018000A128A110F28F001F101F201F301F4012B
:10002800F50183010A128A1119280A128A113C2043
:100038000A128A110030F900FA000A128A1178208F
:100048000A128A11831203139F182B282C2826289A
:100058001E08F400203083120313A300A30B3228D8
:100068000000831203139F1426280A128A110C28F1
:10007800013083160317880089018316031386014C
:100088008312031386018B170B178C118316031326
:100098008C15851683120313A001A101A201243037
:1000A8000A128A115A200A128A110800F9008316C6
:1000B80003138712791D612862286A2883120313A3
:1000C80022088316031394008715722883120313DA
:1000D80020082204831603139400871179088312D9
:1000E8000313210494000800831603139F131F129F
:1000F8009F12831203131F139F177908A000A00DE6
:10010800A00D1F082006C33920069F004130831226
:100118000313A000A00B8E289128831203131F1429
:100128009F140800831203138C1D9B289C28AB285E
:100138000A128A11B2200A128A11F50074080A12EA
:100148008A11C2200A128A11831203138C117808AB
:100158008A00770E8300FE0E7E0E09000A128A11AD
:10016800BB200A128A11831203131308080083168E
:100178000313141CC028C128BB280800F600760801
:08018800831203139300080029
:04400E00D420FF3F7C
:00000001FF
