:060000000A128A110E280D
:10000800FE00030EF1000A08F2007F08F3000A124E
:100018008A1178280A128A111128F601F701F801C5
:10002800F90183120313A001A101A201A301830115
:100038000A128A11B52883120313A4008316031326
:10004800811353288316031316141514772883165F
:10005800031396149514772883160313161515158C
:100068007728831603139615951577288316031397
:1000780016161516772883160313961695167728DD
:100088008316031316171517772883160313961765
:1000980095177728831603139601950177288312FD
:1000A80003132408F400F5017508003A03195D28C4
:1000B8004E287408003A03192628013A03192B28F8
:1000C800033A03193028013A03193528073A031966
:1000D8003A28013A03193F28033A03194428013AF8
:1000E800031949284E280800831203138C1D7D2804
:1000F8007E2899280A128A114E210A128A11F600BE
:100108007608031D88288928902878080A128A11F9
:100118005E210A128A11962877080A128A115E212E
:100128000A128A11831203138C110B1C9C289D2818
:10013800AC280618A028A128A5280130FF007F08B0
:10014800F7078618A828A928AB280130F7020B1052
:100158007308FF0072088A00710E8300FE0E7E0E7F
:1001680009000A128A11E4200A128A110030F400E8
:10017800F5000A128A1130210A128A1100300A1277
:100188008A111F200A128A1101300A128A111F20AF
:100198000A128A11831203139F18D328D428CE2851
:1001A8001E08F800203083120313A700A70BDA28D3
:1001B8000000831203139F14CE280A128A110E28F6
:1001C800013083160317880089010330831603134F
:1001D8008600831203138601831603138801831292
:1001E800031388017030831603138F040F148B17C1
:1001F8000B170B108B15831203138C118316031323
:100208008C15851683120313A401A501A6012430B9
:100218000A128A1112210A128A110800F4008316A0
:1002280003138712741D19291A292229831203130B
:10023800260883160313940087152A2983120313AB
:100248002408260483160313940087117408831264
:100258000313250494000800831603139F131F1229
:100268009F12831203131F139F177408A400A40D71
:10027800A40D1F082406C33924069F0041308312A9
:100288000313A400A40B46294929831203131F143E
:100298009F1408000A128A1157210A128A11831220
:1002A80003131308080083160313141C5C295D2923
:1002B80057290800F0007008831203139300080000
:04400E00D420FF3F7C
:00000001FF
