:060000000A128A110C280F
:10000800FE00030EF1000A08F2000A168A15222AD9
:100018000A128A110F28F801F901FA018312031351
:10002800EC018313DE308400EA300A168A150822B0
:100038000A128A11831790308400A4300A168A1590
:1000480008220A128A1183010A128A153D2883168A
:100058000313BF00A930B600652F25304A060319DF
:100068003628372841283F0884004A08831780002B
:100078000130FF007F08BF07652FB701B8012808C6
:1000880084000A168A150A200A128A112E3A031DBC
:100098004E284F28942838170130FF007F08A807FA
:1000A800C401C50183280A30F3000030F400831628
:1000B80003134508F6004408F5000A168A15AF220E
:1000C8000A128A11740883160313C5007308C40042
:1000D800280884000A168A150A200A128A11D03EB6
:1000E800AD00FF3003180030AE002D08C407031818
:1000F800C50A2E08C5070130FF007F08A807280891
:1001080084000A168A150A200A128A110A168A1504
:1001180010220A128A1103189228932857289A281D
:10012800C401C50138169A283815B6280130831637
:100138000313A807FF30280784000A168A150A2027
:100148000A128A11CA00AD00AE012E08003A03193E
:10015800AE28652F2D08003A0319752F663A031942
:100168009828652F00303705AD0007303805AE00F8
:100178002D082E040319C128C228222F381EC5288D
:10018800C628CA280630C4000030C50036088400D6
:1001980083130008C600840A0008C700840A000800
:1001A800C800840A0008C9000430FF007F08B607A9
:1001B800490883120313A300831603134808831204
:1001C8000313A20083160313470883120313A10025
:1001D80083160313460883120313A0000030A700F8
:1001E8000030A6000030A5000030A4000A168A15C9
:1001F800ED250A128A1103180229032920298316DA
:1002080003134908F6004808F5004708F4004608B3
:10021800F3000A128A11F2270A128A117608831645
:100228000313C9007508C8007408C7007308C6001E
:100238000330B7040030B80483160313BD01BE01B0
:10024800490883120313A300831603134808831273
:100258000313A20083160313470883120313A10094
:1002680083160313460883120313A0000030A70067
:100278000030A6000030A5000030A4000A168A1538
:10028800B6230A128A1103184A294B29672A031030
:1002980083160313480D490D823EBD00FF30031835
:1002A8000030BE00FF30BD070318BE0AFF30BE078E
:1002B8000330F3000030F4003E08F6003D08F50076
:1002C8000A168A15AF220A128A11740883160313B4
:1002D800BE007308BD000A3083120313A200003069
:1002E800A300831603133E0883120313A500831685
:1002F80003133D0883120313A4000A168A158425E4
:100308000A128A1183120313230883160313BE00EB
:1003180083120313220883160313BD00BE1F9529F9
:1003280096299C29FF30BD070318BE0AFF30BE0777
:100338003D03FF3A0A128A159D240A128A11831274
:100348000313470883160313C300831203134608D5
:1003580083160313C200831203134508831603137D
:10036800C10083120313440883160313C00049080D
:1003780083120313AD008316031348088312031373
:10038800AC0083160313470883120313AB008316CC
:100398000313460883120313AA00831603134308A2
:1003A80083120313B1008316031342088312031345
:1003B800B00083160313410883120313AF0083169A
:1003C8000313400883120313AE000A128A1558213A
:1003D8000A128A11831203132D0883160313C3000C
:1003E800831203132C0883160313C200831203130A
:1003F8002B0883160313C100831203132A088316DC
:100408000313C000430883120313A30083160313C6
:10041800420883120313A2008316031341088312B0
:100428000313A10083160313400883120313A000CB
:100438003F30A7008030A6000030A5000030A4009F
:100448000A168A15ED250A128A1103182C2A2D2A54
:10045800362AFF3083160313BD070318BE0AFF3080
:10046800BE07672A83160313430883120313A300E6
:1004780083160313420883120313A200831603137F
:10048800410883120313A100831603134008831243
:100498000313A0004130A7002030A6000030A500BB
:1004A8000030A4000A168A15ED250A128A11031CC9
:1004B8005E2A5F2A672A013083160313BD070318D3
:1004C800BE0A0030BE07831603134508803AFF00B2
:1004D80080307F02031D722A0D3044020318752AEA
:1004E800762ABD2A8316031344080A168A119B2309
:1004F8000A128A11831203134708DB004608DA0040
:100508004508D9004408D800831603134908831204
:100518000313DF0083160313480883120313DE0056
:1005280083160313470883120313DD00831603138E
:10053800460883120313DC000A168A11A8250A123A
:100548008A11831203135B0883160313C9008312ED
:1005580003135A0883160313C80083120313590898
:1005680083160313C7008312031358088316031353
:10057800C600831603133E08803AFF0080307F02CE
:10058800031DC82A0A303D020318CB2ACC2A2B2B7C
:1005980083160313490883120313A3008316031356
:1005A800480883120313A200831603134708831213
:1005B8000313A10083160313460883120313A00034
:1005C8000030A7000030A6000030A5000030A400CD
:1005D8000A168A15B6230A128A110318F42AF52A6C
:1005E800D72B83160313490883120313DA008316E3
:1005F8000313480883120313D9008316031347080B
:1006080083120313D80083160313460883120313B7
:10061800D7000A128A117A270A128A118312031341
:100628005A08590458045704031D1B2B1C2BD72B9D
:10063800831603133E08803AFF0080307F02031DB3
:10064800272B02303D02031C2A2B2B2BD72B83167A
:100658000313430883120313A300831603134208EA
:1006680083120313A2008316031341088312031392
:10067800A10083160313400883120313A00040301F
:10068800A7008930A6007030A5005F30A4000A16C4
:100698008A15ED250A128A110318532B542B5D2B4A
:1006A800F73083160313BD070318BE0AFF30BE07D1
:1006B800652BF83083160313BD070318BE0AFF30F5
:1006C800BE073D080A128A159D240A128A11831250
:1006D8000313470883160313C30083120313460842
:1006E80083160313C20083120313450883160313EA
:1006F800C10083120313440883160313C00049087A
:1007080083120313A30083160313480883120313E9
:10071800A20083160313470883120313A10083164C
:100728000313460883120313A00083160313430818
:1007380083120313A70083160313420883120313BB
:10074800A60083160313410883120313A50083161A
:100758000313400883120313A4000A168A154827B6
:100768000A128A1183120313230883160313BC0089
:1007780083120313220883160313BB008312031387
:10078800210883160313BA00831203132008831663
:100798000313B9000030C9000030C8000030C7009A
:1007A8000030C6003D2C8316031349088312031337
:1007B800DA0083160313480883120313D90083163B
:1007C8000313470883120313D8008316031346083C
:1007D80083120313D7000A128A117A270A128A1180
:1007E800831203135A0883160313BC0083120313DE
:1007F800590883160313BB00831203135808831682
:100808000313BA0083120313570883160313B9009E
:100818003C08F6003B08F5003A08F4003908F300F4
:1008280000300A168A111D200A128A1176088316CA
:100838000313A3007508A2007408A1007308A000A0
:100848004908A7004808A6004708A5004608A400CC
:100858000A168A1566230A128A11831603132308B7
:10086800C9002208C8002108C7002008C600BD0129
:10087800BE01CA01CA0A4A08AD0001300310AD0D15
:10088800FF3E031D422C03102D0D693E84000A16FD
:100898008A150A200A128A11AE000A168A150A2039
:1008A8000A128A11AF000A168A150A200A128A113A
:1008B800B0000A168A150A200A128A11B1003108F6
:1008C8003C02031D712C30083B02031D712C2F08BC
:1008D8003A02031D712C2E0839020318742C752C4A
:1008E800762C802C0130FF007F08CA070A304A06A0
:1008F800031D7F2C802C3F2C03303705AD000030C2
:100908003805AE002D082E0403198B2C8C2C372D9E
:100918003F0884002D30831780000130FF007F08D6
:10092800BF07372D4A08AD0001300310AD0DFF3E5B
:10093800031D992C03102D0D693E84000A168A1593
:100948000A200A128A1183120313A0000A168A15B4
:100958000A200A128A11A1000A168A150A200A1208
:100968008A11A2000A168A150A200A128A11A300FF
:10097800831603133C0883120313A700831603137B
:100988003B0883120313A600831603133A08831245
:100998000313A50083160313390883120313A40055
:1009A8000A168A151C250A128A11831203132308B2
:1009B80083160313C3008312031322088316031339
:1009C800C20083120313210883160313C100831284
:1009D8000313200883160313C00000308312031387
:1009E800A3000030A2000030A1000A30A000831646
:1009F8000313430883120313A70083160313420843
:100A080083120313A60083160313410883120313EA
:100A1800A50083160313400883120313A4000A16C3
:100A28008A1506240A128A118312031323088316CF
:100A38000313C30083120313220883160313C2008F
:100A480083120313210883160313C10083120313AF
:100A5800200883160313C0003F0884004008303E76
:100A680083178000912C0130CA024A0A031D3D2DCC
:100A78003E2D962C502D831603133F0884003030EA
:100A8800831780000130FF007F08BF07FF30BD07D4
:100A98000318BE0AFF30BE073E08803AFF008030C8
:100AA8007F02031D592D01303D0203185C2D5D2D79
:100AB8003F2D831603134508803AFF0080307F02DC
:100AC800031D682D09304402031C6B2D6C2D712DFC
:100AD800083083160313CA00752D831603134408C0
:100AE800CA004A08AD00AE012D08C4022E08031C36
:100AF800C503C5024A080319822D832D8C2D3F0892
:100B080084002E30831780000130FF007F08BF0764
:100B18004A080A128A159D240A128A11831203139D
:100B2800470883160313B500831203134608831678
:100B38000313B40083120313450883160313B30089
:100B480083120313440883160313B2003508831273
:100B58000313B10083160313340883120313B00080
:100B680083160313330883120313AF00831603138A
:100B7800320883120313AE00831603134908831245
:100B88000313AD0083160313480883120313AC0044
:100B980083160313470883120313AB00831603134A
:100BA800460883120313AA000A128A1558210A124A
:100BB8008A11831203132D08DA002C08D9002B0898
:100BC800D8002A08D7000A128A117A270A128A112D
:100BD800831203135A0883160313BC0083120313EA
:100BE800590883160313BB0083120313580883168E
:100BF8000313BA0083120313570883160313B900AB
:100C0800042F4A08AD0001300310AD0DFF3E031D4F
:100C1800082E03102D0D693E84000A168A150A2035
:100C28000A128A1183120313A0000A168A150A20D1
:100C38000A128A11A1000A168A150A200A128A11B4
:100C4800A2000A168A150A200A128A11A30083161E
:100C580003133C0883120313A700831603133B08EE
:100C680083120313A600831603133A08831203138F
:100C7800A50083160313390883120313A4000A1668
:100C88008A151C250A128A11831203132308831656
:100C98000313C30083120313220883160313C2002D
:100CA80083120313210883160313C100831203134D
:100CB800200883160313C000003083120313A30017
:100CC8000030A2000030A1000A30A00083160313F0
:100CD800430883120313A7008316031342088312E1
:100CE8000313A60083160313410883120313A500F8
:100CF80083160313400883120313A4000A168A15E7
:100D080006240A128A118312031323088316031375
:100D1800C30083120313220883160313C20083122D
:100D28000313210883160313C10083120313200839
:100D380083160313C0003F0884004008303E831721
:100D480080000130FF007F08BF074A08AD0001306E
:100D58000310AD0DFF3E031DAC2E03102D0D693E93
:100D680084000A168A150A200A128A1183120313AC
:100D7800A0000A168A150A200A128A11A1000A166A
:100D88008A150A200A128A11A2000A168A150A2050
:100D98000A128A11A300831603133C088312031353
:100DA800A700831603133B0883120313A6008316B8
:100DB80003133A0883120313A50083160313390893
:100DC80083120313A4000A168A1506240A128A112C
:100DD80083120313230883160313BC00831203131F
:100DE800220883160313BB008312031321088316FA
:100DF8000313BA0083120313200883160313B900E0
:100E08000130CA024A0A031D0A2F0B2F052E1B2F79
:100E18003F0884003030831780000130FF007F08CE
:100E2800BF07FF30C4070318C50AFF30C5074408C9
:100E38004504031D202F212F0C2F652F440845043E
:100E4800031D272F282F362F3C083B043A0439046A
:100E5800031D2F2F302F362F0130C4070318C50A62
:100E68000030C5074508803A803C031D3D2F4408E3
:100E78004A020318402F412F422F512F8316031384
:100E88004508803AAD0080302D02031D4D2F4A08D9
:100E980044020318502F512F512F03308316031388
:100EA8003705AD0000303805AE002D082E040319B3
:100EB8005E2F5F2F652F3F0884002D308317800039
:100EC8003C280130A807FF30280784000A168A1535
:100ED8000A200A128A11CA004A08031D742F752FA6
:100EE80031283F088400831780010800031083120B
:100EF8000313590D5A0DE0006008031D842F852F38
:100F08008E2F0030DA000030D9000030D8000030D1
:100F1800D700F12F5708DB005808DC005908DD001E
:100F28005A08DE001F300310DE0CDD0CDC0CDB0C75
:100F3800FF3E031D972F5B08DF00D917FF30D70549
:100F4800FF30D805FF30D9050030DA059630E002C9
:100F5800E01FAF2FB02FCA2F6008803A973E0318C2
:100F6800B62FB72FB82F852F01300310DA0CD90C04
:100F7800D80CD70CFF3E031DB92F0130FF007F08A6
:100F8800E007031DC82FC92FB82FE12F20306002BA
:100F9800031CCF2FD02FDC2F852F0130DB0003104F
:100FA800D70DD80DD90DDA0DDB0BD32F0130E002A8
:100FB8006008031DE02FE12FD12F5F080319E52FEB
:100FC800E62FF12FD709D809D909DA09D70A031961
:100FD800D80A0319D90A0319DA0A08007608750429
:100FE800740473040319F92FFA2FFC2F8030F606C6
:020FF8000800EF
:10100600730874040319082809283828F701F70A11
:10101600172801300310F30DF40DFF3E031D0D28B4
:101026000130FF007F08F707F41F1A281B280C2839
:1010360074087602031D212873087502031C2428F0
:1010460025282B287308F5027408031CF603F602FC
:1010560001300310F40CF30CFF3E031D2C28013065
:10106600F702031D372838281B287608F400750870
:10107600F3000800013083160317880089018316E0
:1010860003138601870188018312031386018701F2
:10109600880183160313181218158316031787156C
:1010A600CF308316031399009A01831203139817FE
:1010B6001813831603139816831203131816703029
:1010C600831603138F040F140030F300F4000A167E
:1010D6008A1101200A128A150A168A15B7240A12DD
:1010E6008A15831203138C12831603138C160B179F
:1010F6008B1783129F18802881288B28203083160F
:101106000313DA00DA0B85280000831203139F14F9
:101116001E0883160313DA00DB01DC01DD015D081E
:10112600F6005C08F5005B08F4005A08F30000308E
:101136000A168A111D200A128A15760883160313C9
:10114600C5007508C4007408C3007308C2000030E7
:10115600C9000030C8000030C7000030C600433068
:10116600CD007F30CC000030CB000030CA0000300C
:10117600D1000030D0000030CF000030CE0040302B
:10118600D500A030D4000030D3000030D2000A16BB
:101196008A11D7200A128A15831603134508E1001F
:1011A6004408E0004308DF004208DE00A030A80043
:1011B6006108AC006008AB005F08AA005E08A900E1
:1011C60090300A128A112B200A128A150230F70073
:1011D60001300A168A1568220A128A159630F60018
:1011E6008030F7000A168A15DA220A128A15F701E4
:1011F600F70A02300A168A1568220A128A159030F2
:10120600F6000130F7000A168A15DA220A128A1544
:101216000630F70002300A168A1568220A128A1565
:10122600A530F6008030F7000A168A15DA220A126F
:101236008A150A30F70001300A168A1568220A1242
:101246008A159130F6008030F7000A168A15DA22E0
:101256000A128A150A30F70002300A168A15682221
:101266000A128A159B30F6008030F7000A168A1596
:10127600DA220A128A152B30831203136C06031D19
:10128600452946294C290130FF007F088607EC01D5
:101296007C282D306C06031D512952297C280130EB
:1012A60086024A290A128A110C28831203132D0872
:1012B6008039B7002D08B2003207BD00AC1F642983
:1012C600652966293D143D0803196A296B297A297F
:1012D6003D0A031D6F29702978290030AD000030C2
:1012E600AC000030AB000030AA00AC1782290030F9
:1012F600AD000030AC000030AB000030AA00310871
:101306008039FF007F08B7063108B2003207BC00FB
:10131600B01F8E298F2990293C143C080319942963
:101326009529A4293C0A031D99299A29A229003046
:10133600B1000030B0000030AF000030AE00B01792
:10134600AC290030B1000030B0000030AF000030F2
:10135600AE003C080319B029B129B6293D08031D82
:10136600B529B629BF290030AD000030AC000030E9
:10137600AB000030AA009C2C2A08F30030080A169D
:101386008A1586220A128A15740883120313C3006B
:101396007308C2004208B200B301B401B5013508B2
:1013A600BB003408BA003308B9003208B800430855
:1013B600B200B301B401B5013508C1003408C0005C
:1013C6003308BF003208BE002B08F3002F080A16A8
:1013D6008A1586220A128A15740883120313C3001B
:1013E6007308C2004208B200B301B401B501320865
:1013F600B807330803110318013E0319032AB90776
:10140600340803110318013E03190A2ABA073508DE
:1014160003110318013E0319112ABB074308B20042
:10142600B301B401B5013208BE073308031103182E
:10143600013E03191F2ABF07340803110318013E92
:101446000319262AC007350803110318013E03199C
:101456002D2AC1072C08F3002E080A168A158622A3
:101466000A128A15740883120313C3007308C20094
:101476004208B200B301B401B5013208B807330817
:1014860003110318013E0319492AB9073408031149
:101496000318013E0319502ABA0735080311031829
:1014A600013E0319572ABB074308B200B301B40132
:1014B600B5013208BE07330803110318013E0319AC
:1014C600652ABF07340803110318013E03196C2A65
:1014D600C007350803110318013E0319732AC10713
:1014E6000830B2000310B80DB90DBA0DBB0DB20B22
:1014F600752A2B08F3002E080A168A1586220A1268
:101506008A15740883120313C3007308C2004208C5
:10151600B2004308B300B401B5013208B807330876
:1015260003110318013E0319992AB9073408031158
:101536000318013E0319A02ABA0735080311031838
:10154600013E0319A72ABB072A08F3002F080A162B
:101556008A1586220A128A15740883120313C30099
:101566007308C2004208B2004308B300B401B501D3
:101576003208B807330803110318013E0319C42AB9
:10158600B907340803110318013E0319CB2ABA0719
:10159600350803110318013E0319D22ABB07083088
:1015A600B2000310B80DB90DBA0DBB0DB20BD42A9B
:1015B6002A08F3002E080A168A1586220A128A15A8
:1015C600740883120313C3007308C2004208B200F2
:1015D6004308B300B401B5013208B8073308031154
:1015E6000318013E0319F82AB90734080311031832
:1015F600013E0319FF2ABA07350803110318013EF5
:101606000319062BBB072B08F30030080A168A15A8
:1016160086220A128A15740883120313C3007308FC
:10162600C2004208B2004308B300B401B501320853
:10163600BE07330803110318013E0319232BBF0706
:10164600340803110318013E03192A2BC007350875
:1016560003110318013E0319312BC1072C08F300AF
:101666002F080A168A1586220A128A15740883120A
:101676000313C3007308C2004208B2004308B30054
:10168600B401B5013208BE07330803110318013E41
:1016960003194E2BBF07340803110318013E031923
:1016A600552BC007350803110318013E03195C2B9F
:1016B600C1072C08F30030080A168A1586220A127A
:1016C6008A15740883120313C3007308C200420804
:1016D600B2004308B300B401B50108300310B20DDF
:1016E600B30DB40DB50DFF3E031D712B3208BE07B9
:1016F600330803110318013E0319822BBF07340870
:1017060003110318013E0319892BC007350803117D
:101716000318013E0319902BC1073808B200390897
:10172600B3003A08B4003B08B50018300310B50CF6
:10173600B40CB30CB20CFF3E031D992B3208BE0746
:10174600330803110318013E0319AA2BBF073408F7
:1017560003110318013E0319B12BC0073508031105
:101766000318013E0319B82BC1070830B200031055
:10177600B80DB90DBA0DBB0DB20BBA2B3D083C071F
:10178600B200B301B30D3208823EC200330803181B
:10179600013EFF3EC300EC2B0130B2000310BE0D2C
:1017A600BF0DC00DC10DB20BD12BBB1FDB2BDC2B2C
:1017B600DD2B3E140130B2000310B80DB90DBA0D81
:1017C600BB0DB20BDF2BFF30C2070318C30AFF3075
:1017D600C307C01FEF2BF02BCF2BBC01BB1FF42B75
:1017E600F52B112CFF303805B200FF303905B30058
:1017F600FF303A05B4007F303B05B50035083404A8
:10180600330432040319082C092C0C2CBC01BC0A25
:10181600112C3E1C0F2C102C112C092C3C080319E2
:10182600152C162C472C0130BE070030031801304A
:10183600BF07003003180130C0070030031801301D
:10184600C107411C272C282C472C3E08B2003F0814
:10185600B3004008B4004108B5000130B600350DAC
:10186600B50CB40CB30CB20CB60B322C3508C10057
:101876003408C0003308BF003208BE000130C2077A
:101886000318C30A0030C3074308803AFF008030BC
:101896007F02031D502CFF304202031C532C542C94
:1018A6005F2C7F3083120313C1008030C0000030EC
:1018B600BF000030BE00902C831203134308803A09
:1018C600FF0080307F02031D6A2C0130420203189C
:1018D6006D2C6E2C7A2C003083120313C10000305D
:1018E600C0000030BF000030BE00B701902C83124C
:1018F60003134208BD00FF30BE05FF30BF057F3031
:10190600C0050030C1053D1C892C8A2C8B2CC017C4
:101916003D08B2000310320CC1003708FF007F08F3
:10192600C1044108AD004008AC003F08AB003E08CA
:10193600AA00080083120313D600D61FA32CA42CDA
:10194600532ED609D60A5608803A123E031CAC2CF2
:10195600AD2C972D0A30A2000030A3005608F500E2
:10196600F601F51BF6036430F3000030F4000A16A6
:101976008A155C240A128A15740883120313A500BB
:101986007308A4000A168A1584250A128A1583127A
:1019960003132208C80001300310C80DFF3E031DC3
:1019A600CF2C0310480D593E84000A168A150A20CA
:1019B6000A128A15C9000A168A150A200A128A15F9
:1019C600CA000A168A150A200A128A15CB000A16B8
:1019D6008A150A200A128A15CC004C08AD004B085D
:1019E600AC004A08AB004908AA006430A2000030E7
:1019F600A3005608A400A501A41BA5030A168A1570
:101A060084250A128A15831203132208CD00013099
:101A16000310CD0DFF3E031D0B2D03104D0D7D3E16
:101A260084000A168A150A200A128A15CE000A169A
:101A36008A150A200A128A15CF000A168A150A2064
:101A46000A128A15D0000A168A150A200A128A1561
:101A5600D1005108B1005008B0004F08AF004E0841
:101A6600AE000A128A1558210A128A158312031328
:101A76002D08D5002C08D4002B08D3002A08D20044
:101A86000A30F3000030F4005608F500F601F51BA5
:101A9600F6030A168A155C240A128A15730883123D
:101AA6000313C80001300310C80DFF3E031D562D59
:101AB6000310480D353E84000A168A150A200A12BC
:101AC6008A15C9000A168A150A200A128A15CA003A
:101AD6000A168A150A200A128A15CB000A168A15D2
:101AE6000A200A128A15CC004C08AD004B08AC003F
:101AF6004A08AB004908AA005508B1005408B000CE
:101B06005308AF005208AE000A128A1558210A126D
:101B16008A15831203132D08C7002C08C6002B084C
:101B2600C5002A08C400FF2F5608803A753E031CDC
:101B36009D2D9E2D262E0A30F3000030F400560807
:101B4600F500F601F51BF6030A168A155C240A123F
:101B56008A15730883120313C80001300310C80DD9
:101B6600FF3E031DB12D0310480D353E84000A16B5
:101B76008A150A200A128A15C9000A168A150A2029
:101B86000A128A15CA000A168A150A200A128A1526
:101B9600CB000A168A150A200A128A15CC004C08B0
:101BA600AD004B08AC004A08AB004908AA000A3051
:101BB600A2000030A3005608A400A501A41BA5039B
:101BC6000A168A1584250A128A1583120313220817
:101BD600CD0001300310CD0DFF3E031DED2D03108A
:101BE6004D0D593E84000A168A150A200A128A15D6
:101BF600CE000A168A150A200A128A15CF000A167E
:101C06008A150A200A128A15D0000A168A150A2091
:101C16000A128A15D1005108B1005008B0004F08C9
:101C2600AF004E08AE000A128A1558210A128A150C
:101C3600831203132D08C7002C08C6002B08C50005
:101C46002A08C400FF2F5608C80001300310C80D2B
:101C5600FF3E031D292E0310480D353E84000A164B
:101C66008A150A200A128A15C9000A168A150A2038
:101C76000A128A15CA000A168A150A200A128A1535
:101C8600CB000A168A150A200A128A15CC004C08BF
:101C9600C7004B08C6004A08C5004908C400FF2F04
:101CA6005608803A123E031C592E5A2E442F0A30EB
:101CB600A2000030A3005608F500F601F51BF60356
:101CC6006430F3000030F4000A168A155C240A1208
:101CD6008A15740883120313A5007308A4000A1654
:101CE6008A1584250A128A15831203132208C8004E
:101CF60001300310C80DFF3E031D7C2E0310480D56
:101D0600253E84000A168A150A200A128A15C90079
:101D16000A168A150A200A128A15CA000A168A1590
:101D26000A200A128A15CB000A168A150A200A12F8
:101D36008A15CC004C08AD004B08AC004A08AB0035
:101D46004908AA006430A2000030A3005608A40087
:101D5600A501A41BA5030A168A1584250A128A154D
:101D6600831203132208CD0001300310CD0DFF3E70
:101D7600031DB82E03104D0D493E84000A168A1520
:101D86000A200A128A15CE000A168A150A200A1295
:101D96008A15CF000A168A150A200A128A15D0005B
:101DA6000A168A150A200A128A15D1005108B100AE
:101DB6005008B0004F08AF004E08AE000A128A1550
:101DC60058210A128A15831203132D08D5002C08F0
:101DD600D4002B08D3002A08D2000A30F3000030C2
:101DE600F4005608F500F601F51BF6030A168A15E7
:101DF6005C240A128A15730883120313C800013083
:101E06000310C80DFF3E031D032F0310480D013EAE
:101E160084000A168A150A200A128A15C9000A16AB
:101E26008A150A200A128A15CA000A168A150A2075
:101E36000A128A15CB000A168A150A200A128A1572
:101E4600CC004C08AD004B08AC004A08AB00490872
:101E5600AA005508B1005408B0005308AF00520854
:101E6600AE000A128A1558210A128A158312031324
:101E76002D08C7002C08C6002B08C5002A08C40078
:101E8600FF2F5608803A753E031C4A2F4B2FD32F3F
:101E96000A30F3000030F4005608F500F601F51B91
:101EA600F6030A168A155C240A128A157308831229
:101EB6000313C80001300310C80DFF3E031D5E2F3B
:101EC6000310480D013E84000A168A150A200A12DC
:101ED6008A15C9000A168A150A200A128A15CA0026
:101EE6000A168A150A200A128A15CB000A168A15BE
:101EF6000A200A128A15CC004C08AD004B08AC002B
:101F06004A08AB004908AA000A30A2000030A30024
:101F16005608A400A501A41BA5030A168A15842544
:101F26000A128A15831203132208CD00013003100A
:101F3600CD0DFF3E031D9A2F03104D0D253E840047
:101F46000A168A150A200A128A15CE000A168A155A
:101F56000A200A128A15CF000A168A150A200A12C2
:101F66008A15D0000A168A150A200A128A15D10087
:101F76005108B1005008B0004F08AF004E08AE003F
:101F86000A128A1558210A128A15831203132D087C
:101F9600C7002C08C6002B08C5002A08C400FF2F5E
:101FA6005608C80001300310C80DFF3E031DD62F8A
:101FB6000310480D013E84000A168A150A200A12EB
:101FC6008A15C9000A168A150A200A128A15CA0035
:101FD6000A168A150A200A128A15CB000A168A15CD
:101FE6000A200A128A15CC004C08C7004B08C60006
:0A1FF6004A08C5004908C4000800AD
:10200200831603139F131F129F12831203131F13AE
:102012009F177308F500F50DF50D1F087506C339F6
:1020220075069F004230F500F50B1528000083125B
:1020320003131F149F14080083120313A40024081F
:102042000319242825283928F61F28282928392861
:102052007309A6007409A7007509A8007609A900EA
:10206200A60A0319A70A0319A80A0319A90A4128EB
:102072007608A9007508A8007408A7007308A600CE
:102082007608750474047304031D482849285228ED
:102092000030F6000030F5000030F4000030F300AC
:1020A200D6289630A50062280130FF007F08A507D8
:1020B20001300310A90CA80CA70CA60CFF3E031DAF
:1020C2005A28FE302905031D6728682855288428C8
:1020D2000130FF007F08A5070130A6070030031872
:1020E2000130A707003003180130A8070030031899
:1020F2000130A90701300310A90CA80CA70CA60CEB
:10210200FF3E031D7C28FF302905031D89288A28EC
:10211200692896280130A5020130A0000310A60DFF
:10212200A70DA80DA90DA00B8F28A81B99289A28E6
:10213200A0280230250203189F28A0288B282518E2
:10214200A328A428AC28FF30A605FF30A7057F30BE
:10215200A805FF30A9050310A50C2508A000A101C0
:10216200A201A30118300310A00DA10DA20DA30D11
:10217200FF3E031DB4282008A6042108A704220854
:10218200A8042308A90424080319C828C928CE28AA
:10219200F61FCC28CD28CE28A9172908F600280832
:1021A200F5002708F4002608F3000800831603133D
:1021B2004908A3004808A2004708A1004608A00059
:1021C2004D08A7004C08A6004B08A5004A08A40029
:1021D2000A168A1566230A168A1183160313230820
:1021E200AB002208AA002108A9002008A800510873
:1021F200A3005008A2004F08A1004E08A0005508F5
:10220200A7005408A6005308A5005208A4000A1605
:102212008A1566230A168A1183160313230883126A
:102222000313AD0083160313220883120313AC00B9
:1022320083160313210883120313AB0083160313BF
:10224200200883120313AA00831603134908A3006C
:102252004808A2004708A1004608A0004508A700B8
:102262004408A6004308A5004208A4000A168A15DD
:1022720066230A168A118316031323088312031393
:10228200B10083160313220883120313B0008316CE
:102292000313210883120313AF00831603132008CC
:1022A20083120313AE000A128A1558210A168A11E4
:1022B200831203132D0883160313AF008312031333
:1022C2002C0883160313AE00831203132B08831604
:1022D2000313AD00831203132A0883160313AC0001
:1022E2000A168A11CC210A168A11831603132B08A7
:1022F200D9002A08D8002908D7002808D600510892
:1023020083120313DB008316031350088312031393
:10231200DA00831603134F0883120313D9008316BE
:1023220003134E0883120313D800831603135908AC
:1023320083120313DF008316031358088312031357
:10234200DE0083160313570883120313DD0083167E
:102352000313560883120313DC000A168A11A825F8
:102362000A168A11831203135B0883160313C5002E
:10237200831203135A0883160313C4008312031330
:10238200590883160313C3008312031358088316D4
:102392000313C2000800831603132F088039B90003
:1023A2002F08B0003007C000AE1FD829D929DA297A
:1023B200401440080319DE29DF29EF29400A031DD2
:1023C200E329E429EC290030AF000030AE000030F0
:1023D200AD000030AC00AE17AF01F7290030AF00FE
:1023E2000030AE000030AD000030AC002B08803968
:1023F200FF007F08B9062B08B0003007C100AA1FF2
:10240200032A042A052A411441080319092A0A2A1F
:102412001A2A410A031D0E2A0F2A172A0030AB007E
:102422000030AA000030A9000030A800AA17AB01B2
:10243200222A0030AB000030AA000030A900003090
:10244200A8002B082A0429042804031D292A2A2A61
:10245200432A0030AF000030AE000030AD00003043
:10246200AC008030AE047F30AF043908FF007F0833
:10247200AF042F08AB002E08AA002D08A9002C08D3
:10248200A8009A2B4008031D472A482A512A0030E7
:10249200AB000030AA000030A9000030A8009A2B3F
:1024A2004008B000B1013108B30041083002B20067
:1024B200031CB30332087F3EBA0033080318013EFF
:1024C200003EBB002F08B8002E08B7002D08B6004A
:1024D2002C08B5000030AF000030AE000030AD0077
:1024E2000030AC000030BF000030BE000030BD0044
:1024F2000030BC00C101C72A41080319812A822A7F
:10250200A22A0130B0000310B50DB60DB70DB80DFB
:10251200B00B842A0130B0000310AC0DAD0DAE0D2E
:10252200AF0DB00B8D2ABF1F972A982A992A2C1417
:102532000130B0000310BC0DBD0DBE0DBF0DB00BC0
:102542009B2A2B083802031DB02A2A083702031DD2
:10255200B02A29083602031DB02A28083502031CB6
:10256200B32AB42AC32A3F172808B5022908031C34
:10257200290FB6022A08031C2A0FB7022B08031CD4
:102582002B0FB8020130FF007F08C1071A30410249
:10259200031CCC2ACD2A7D2A380837043604350498
:1025A2000319D42AD52AF42A3C14F42A0130B000A3
:1025B2000310AC0DAD0DAE0DAF0DB00BD92ABF1F80
:1025C200E32AE42AE52A2C140130B0000310BC0DE2
:1025D200BD0DBE0DBF0DB00BE72AFF30BA070318C1
:1025E200BB0AFF30BB07AE1FF72AF82AD72AC10160
:1025F200BF1FFC2AFD2A192BFF303C05B000FF301B
:102602003D05B100FF303E05B2007F303F05B3000B
:1026120033083204310430040319102B112B142B0C
:10262200C101C10A192B2C1C172B182B192B112B8A
:10263200410803191D2B1E2B4F2B0130AC07003014
:1026420003180130AD07003003180130AE07003027
:1026520003180130AF072F1C2F2B302B4F2B2C08C8
:10266200B0002D08B1002E08B2002F08B3000130CF
:10267200B400330DB30CB20CB10CB00CB40B3A2B4A
:102682003308AF003208AE003108AD003008AC00AC
:102692000130BA070318BB0A0030BB073B08803A77
:1026A200FF0080307F02031D582BFF303A02031CCB
:1026B2005B2B5C2B6A2BFF3083160313BA000030AE
:1026C200BB000030AF000030AE000030AD00003083
:1026D200AC00831603133B08803AFF0080307F0270
:1026E200031D752B01303A020318782B792B862BA8
:1026F20083160313BA01BB010030AF000030AE00F5
:102702000030AD000030AC00B901831603133A0863
:10271200C000401C8D2B8E2B902BAE17942B7F303C
:10272200FF007F08AE054008B0000310300CAF0078
:10273200362A080083120313D7006E305702031C97
:10274200A32BA42BB32C3F30AD000030AC000030E3
:10275200AB000030AA006430A0000030A10057088E
:10276200C800C9014808A2004908A3000A168A1530
:1027720020230A168A11831203132008CA0001308B
:102782000310CA0DFF3E031DC12B03104A0D7D3EEF
:1027920084000A168A150A200A168A11CB000A1624
:1027A2008A150A200A168A11CC000A168A150A20EE
:1027B2000A168A11CD000A168A150A200A168A11EB
:1027C200CE004E08B1004D08B0004C08AF004B08D7
:1027D200AE000A128A1558210A168A1183120313AF
:1027E2002D08D6002C08D5002B08D4002A08D300C7
:1027F2000A30A0000030A1005708C800C9014808EB
:10280200F5004908F6006430F3000030F4000A12C3
:102812008A1503200A168A11740883120313A3006F
:102822007308A2000A168A1520230A168A11831237
:1028320003132008CA0001300310CA0DFF3E031D16
:102842001D2C03104A0D593E84000A168A150A20CF
:102852000A168A11CB000A168A150A200A168A114C
:10286200CC000A168A150A200A168A11CD000A1609
:102872008A150A200A168A11CE004E08AD004D08AC
:10288200AC004C08AB004B08AA005608B100550832
:10289200B0005408AF005308AE000A128A1558213E
:1028A2000A168A11831203132D08D2002C08D100B4
:1028B2002B08D0002A08CF000A30F3000030F400C1
:1028C2005708C800C9014808F5004908F6000A126D
:1028D2008A1503200A168A11730883120313CA0089
:1028E20001300310CA0DFF3E031D722C03104A0D66
:1028F200353E84000A168A150A200A168A11CB0070
:102902000A168A150A200A168A11CC000A168A1596
:102912000A200A168A11CD000A168A150A200A16FA
:102922008A11CE004E08AD004D08AC004C08AB0039
:102932004B08AA005208B1005108B0005008AF007D
:102942004F08AE000A128A1558210A168A118312FC
:1029520003132D08C7002C08C6002B08C5002A083F
:10296200C400A72D0B305702031CB82CB92C642DC0
:102972003F30AD000030AC000030AB000030AA00A8
:102982000A30A0000030A1005708C800C901480859
:10299200A2004908A3000A168A1520230A168A11E2
:1029A200831203132008CA0001300310CA0DFF3E30
:1029B200031DD62C03104A0D593E84000A168A15AF
:1029C2000A200A168A11CB000A168A150A200A164C
:1029D2008A11CC000A168A150A200A168A11CD001D
:1029E2000A168A150A200A168A11CE004E08B1006C
:1029F2004D08B0004C08AF004B08AE000A128A1511
:102A020058210A168A11831203132D08D6002C08A6
:102A1200D5002B08D4002A08D3000A30F300003076
:102A2200F4005708C800C9014808F5004908F60033
:102A32000A128A1503200A168A11730883120313D5
:102A4200CA0001300310CA0DFF3E031D232D0310DF
:102A52004A0D353E84000A168A150A200A168A1182
:102A6200CB000A168A150A200A168A11CC000A1609
:102A72008A150A200A168A11CD000A168A150A201A
:102A82000A168A11CE004E08AD004D08AC004C0863
:102A9200AB004B08AA005608B1005508B000540814
:102AA200AF005308AE000A128A1558210A168A117D
:102AB200831203132D08C7002C08C6002B08C5007B
:102AC2002A08C400A72D3F30AD000030AC00003012
:102AD200AB000030AA005708C80001300310C80D2F
:102AE200FF3E031D6F2D0310480D353E84000A166C
:102AF2008A150A200A168A11C9000A168A150A209E
:102B02000A168A11CA000A168A150A200A168A119A
:102B1200CB000A168A150A200A168A11CC004C0824
:102B2200B1004B08B0004A08AF004908AE000A12D3
:102B32008A1558210A168A11831203132D08C70019
:102B42002C08C6002B08C5002A08C40008008312FE
:102B520003135B088039E8005B08E0006007EA00C5
:102B6200DA1FB42DB52DB62D6A146A080319BA2DD1
:102B7200BB2DCB2D6A0A031DBF2DC02DC82D0030E1
:102B8200DB000030DA000030D9000030D800DA175C
:102B9200DB01D32D0030DB000030DA000030D90039
:102BA2000030D8005F088039E90069086806031917
:102BB200DB2DDC2DDD2D68175F08E0006007E900E2
:102BC200DE1FE42DE52DE62D691469080319EA2DAF
:102BD200EB2DFB2D690A031DEF2DF02DF82D003092
:102BE200DF000030DE000030DD000030DC00DE17E8
:102BF200DF01032E0030DF000030DE000030DD0098
:102C02000030DC006A0869020318082E092E2F2EF4
:102C1200681F0C2E0D2E112E8030FF007F08E80653
:102C22006A08EB006908EA006B08E9005808EB0043
:102C32005C08D8006B08DC005908EB005D08D9007D
:102C42006B08DD005A08EB005E08DA006B08DE0054
:102C52005B08EB005F08DB006B08DF00EB01690833
:102C6200E000E1016108E3006A086002E200031C7F
:102C7200E3036308803AFF0080307F02031D432E86
:102C82001A306202031C462E472E7E2E8312031335
:102C92005B085A0459045804031D502E522E013069
:102CA200532E0030EB000030DB000030DA00003041
:102CB200D9000030D8006908EA00862E6B1C622E0B
:102CC200632E6A2E6B08E0000310600C0138EB00E3
:102CD2006C2E0310EB0C581C6F2E702E712EEB17FE
:102CE2000130E0005B0DDB0CDA0CD90CD80CE00BE8
:102CF200732E0130FF007F08EA078312031369086D
:102D02006A02031C852E862E5F2E681B892E8A2E50
:102D1200D32E6A08031D8E2E8F2E982E0030DB00D4
:102D22000030DA000030D9000030D800FF2F5C08F4
:102D3200D8075D0803110318013E0319A12ED90714
:102D42005E0803110318013E0319A82EDA075F0873
:102D520003110318013E0319AF2EDB075B1CB22ED1
:102D6200B32E872F6B1CB62EB72EBE2E6B08E0003B
:102D72000310600C0138EB00C02E0310EB0C581C42
:102D8200C32EC42EC52EEB170130E0005B0DDB0C09
:102D9200DA0CD90CD80CE00BC72E0130FF007F08EB
:102DA200EA07872F5B08803AFF005F08803A7F02BC
:102DB200031DE52E5E085A02031DE52E5D08590229
:102DC200031DE52E5C0858020318E82EE92E412F58
:102DD200FF30E000FF30E100FF30E200FF30E300AF
:102DE2005C08E4005D08E5005E08E6005F08E700B5
:102DF2005808E4025908031C590F002F012FE5025D
:102E02005A08031C5A0F062F072FE6025B08031C01
:102E12005B0F0C2F0D2FE7026408E007650803180B
:102E2200650F142F152FE10766080318660F1A2F76
:102E32001B2FE20767080318670AE3076308DB0032
:102E42006208DA006108D9006008D8008030FF000B
:102E52007F08E806EB09EB0A6B08031D312F322FBE
:102E62004F2F0130D807003003180130D907003046
:102E720003180130DA07003003180130DB074F2F47
:102E82005C08D8025D08031C5D0FD9025E08031CB2
:102E92005E0FDA025F08031C5F0FDB025B085A0455
:102EA20059045804031D562F572F832F6B08031DF7
:102EB2005B2F5C2F832F0030DB000030DA00003004
:102EC200D9000030D800FF2F0130E0000310D80DE8
:102ED200D90DDA0DDB0DE00B672FEB1F712F722F6F
:102EE200732F58146B1C762F772F7A2F0314EB0D48
:102EF2007C2F0310EB0D6A080319802F812F832F7B
:102F02000130EA02DA1F862F872F652FE901EB1FB6
:102F12008B2F8C2F9A2F6B087F390319912F922FA9
:102F2200952FE901E90A9A2F581C982F992F9A2F69
:102F3200922F690803199E2F9F2FD32F0130D80794
:102F4200003003180130D907003003180130DA07C6
:102F5200003003180130DB075B1CB02FB12FD32FD9
:102F62005808E0005908E1005A08E2005B08E30053
:102F72000130E400630DE30CE20CE10CE00CE40B25
:102F8200BB2F6308DB006208DA006108D900600821
:102F9200D8006A0A0319CE2FCF2FD32F0130FF009A
:102FA2007F08EA076A0A0319D72FD82FDD2F6A088C
:102FB200031DDC2FDD2FEB2F0030DB000030DA00A9
:102FC2000030D9000030D8006A08031DE92FEA2F2B
:102FD200EB2FE8016A1CEE2FEF2FF12FDA17F52FF6
:102FE2007F30FF007F08DA056A08E0000310600CFA
:102FF200DB00E81FFD2FFE2FFF2FDB170800FF1B52
:103002000A2883137F1883170008840A0319FF0A0A
:10301200080018308A000408840A82070034003449
:10302200003480343F3400340034203441340034DE
:103032000034C8344234003400347A344434003426
:1030420040341C34463400345034C33447340034E2
:103052002434743449348034963418344B34203454
:10306200BC34BE344C3428346B346E344E34F934B0
:10307200023415345034EC347834AD346034CA340C
:10308200F234493471340034003480343F34CD3466
:10309200CC34CC343D340A34D73423343C346F340A
:1030A200123483343A341734B734D1343834AC342C
:1030B200C53427343734BD34373486343534953407
:1030C200BF34D63433347734CC342B3432345F3497
:1030D200703489343034FF34E634DB342E3408342F
:1030E200E5343C341E3460344234A2340D340134AD
:1030F2000034003400340A340034003400346434C0
:10310200003400340034E834033400340034103422
:10311200273400340034A03486340134003440347F
:1031220042340F34003480349634983400340034FE
:10313200E134F53405340034CA349A343B34433430
:10314200503455343A34003450346F3474343A3491
:1031520000346434613474346134003425342E34E0
:0A3162003234663400345634003471
:10340400F30073088312031388000800640080012A
:10341400840A0406031900340406092AF400F3019B
:103424003A3074020318172A182A202A30307402FA
:10343400031C1D2A1E2A202AF301F30A730C080018
:10344400831203138C1E272A282A312A1A08EC0017
:103454000330F000F00B2C2A831203138C12720831
:103464008A00710E8300FE0E7E0E0900F5008312A1
:103474000313071475080A168A1502220A168A15F8
:103484008312031307151A30F400F40B472A0000C3
:103494008312031307110800F600831203130710A5
:1034A40076080A168A1502220A168A15831203134D
:1034B40007156830F500E430F400F40B5F2AF50BCF
:1034C4005F2A0000831203130711080083120313F9
:1034D400A0002003031D6F2A702A782A77087F3EF4
:1034E4000A168A154E220A168A15852A02302006E3
:1034F400031D7D2A7E2A852A7708BF3E0A168A156F
:103504004E220A168A15080083120313A400A00190
:10351400A1017308F500F6017508A2007608A3005E
:10352400241C952A962A9C2A2208A0070318A10A7B
:103534002308A10701300310A20DA30DFF3E031DB4
:103544009D2A0310A40C2408031DA92AAA2A922A3E
:103554002108F4002008F300080083120313A001DB
:10356400A101731CB62AB72ABF2A75088312031354
:10357400A0070318A10A7608A10701300310F50D6E
:10358400F60DFF3E031DC02A01300310F40CF30CAA
:10359400FF3E031DC72A73087404031DD22AD32ACD
:1035A400B32A831203132108F4002008F30008004F
:1035B40083120313A301A401032B23087607A1009C
:1035C4007708A0000318A00AA31FE92AA003831206
:1035D40003132008A2002208FF00210884000A1611
:1035E4008A1500200A168A150A168A1538220A1620
:1035F4008A15013083120313A3070318A40A0030A9
:10360400A40723087607A1007708A0000318A00ADE
:10361400A31F0D2BA003831203132008A20022086A
:10362400FF00210884000A168A1500200A168A154C
:10363400003A031D1E2B1F2BDF2A080083120313DD
:10364400A501A601200821040319292B2A2B612B8B
:10365400A401A40A382B01300310A00DA10DFF3ED4
:10366400031D2E2B0130FF007F08A407A11F3B2B55
:103674003C2B2D2B01300310A50DA60DFF3E031D81
:103684003D2B21082302031D492B20082202031C81
:103694004C2B4D2B542B2008A2022108031CA303FE
:1036A400A302251401300310A10CA00CFF3E031D3E
:1036B400552B0130A402031D602B612B3C2B2608E3
:1036C400A1002508A0000800803083160313A30678
:1036D400270883120313DB008316031326088312BF
:1036E4000313DA0083160313250883120313D90086
:1036F40083160313240883120313D80083160313B9
:10370400230883120313DF00831603132208831292
:103714000313DE0083160313210883120313DD0051
:1037240083160313200883120313DC000A168A117C
:10373400A8250A168A15831203135B08831603133C
:10374400A300831203135A0883160313A2008312DF
:103754000313590883160313A10083120313580893
:1037640083160313A00008000030831203132005FE
:10377400F30000302105F40080302205F5007F308D
:103784002305F6007608750474047304031DCB2B1B
:10379400CC2BD42B0030A3000030A2000030A100B9
:1037A4000030A00000302405F30000302505F400AB
:1037B40080302605F5007F302705F600760875046D
:1037C40074047304031DE72BE82BF02B0030A700CF
:1037D4000030A6000030A5000030A400270823060E
:1037E400031DFE2B26082206031DFE2B2508210699
:1037F400031DFE2B240820060319012C022C042C83
:103804000310052C03140800831203132308220455
:103814002104200403190F2C102C532CF401F40A56
:10382400202C0130F3000310A00DA10DA20DA30D57
:10383400F30B152C0130FF007F08F407A31F232C82
:10384400242C132C23082702031D322C22082602C1
:10385400031D322C21082502031D322C20082402CA
:10386400031C352C362C442C2008A4022108031CEC
:10387400210FA5022208031C220FA6022308031C01
:10388400230FA70201300310A30CA20CA10CA00C5F
:10389400FF3E031D452C0130F402031D522C532C12
:1038A400242C2708A3002608A2002508A100240828
:1038B400A000080083120313A101F61F622C632CDD
:1038C4006A2CF509F609F50A0319F60AA101A10AF9
:1038D400F41F6D2C6E2C732CF309F409F30A0319ED
:1038E400F40A730874040319782C792CA82CA00109
:1038F400A00A872C01300310F30DF40DFF3E031DC5
:103904007D2C0130FF007F08A007F41F8A2C8B2C2C
:103914007C2C74087602031D912C73087502031C19
:10392400942C952C9B2C7308F5027408031CF60345
:10393400F60201300310F40CF30CFF3E031D9C2C23
:103944000130A002031DA72CA82C8B2C21080319DD
:10395400AC2CAD2CB22CF509F609F50A0319F60ABC
:103964007608F4007508F300080027308312031367
:10397400A100F430A000A00BBD2CA10BBD2C0000B5
:1039840000300A168A1502220A168A153430831268
:103994000313A100F130A000A00BCE2CA10BCE2C60
:1039A40030300A168A154E220A168A150D308312F3
:1039B4000313A100FB30A000A00BDE2CA10BDE2C16
:1039C40030300A168A154E220A168A1502308312DE
:1039D4000313A200A030A1009130A000A00BF02C92
:1039E400A10BF02CA20BF02CF72C30300A168A1500
:1039F4004E220A168A1538300A168A154E220A16DD
:103A04008A1510300A168A154E220A168A150130B4
:103A14000A168A154E220A168A1506300A168A15BF
:103A24004E220A168A150C300A168A154E220A16D8
:103A34008A150800003083120313AB000030AA007B
:103A44000030A9000030A800230822042104200427
:103A540003192D2D2E2D7B2DAC01AC0A3E2D0130EA
:103A6400F3000310A00DA10DA20DA30DF30B332D34
:103A74000130FF007F08AC07A31F412D422D312DDB
:103A84000130F3000310A80DA90DAA0DAB0DF30B23
:103A9400442D23082702031D592D22082602031D45
:103AA400592D21082502031D592D20082402031C29
:103AB4005C2D5D2D6C2D2008A4022108031C210F10
:103AC400A5022208031C220FA6022308031C230FAD
:103AD400A702281401300310A30CA20CA10CA00C03
:103AE400FF3E031D6D2D0130AC02031D7A2D7B2D8D
:103AF400422D2B08A3002A08A2002908A1002808A7
:103B0400A000080083120313A701A31F8A2D8B2D85
:103B1400922DA209A309A20A0319A30AA701A70ABD
:103B2400A51F952D962D9F2DA409A509A40A031957
:103B3400A50A0130FF007F08A706A801A9012208F1
:103B440023040319A62DA72DDE2DA601A60AB52D43
:103B540001300310A20DA30DFF3E031DAB2D013058
:103B6400FF007F08A607A31FB82DB92DAA2D013089
:103B74000310A80DA90DFF3E031DBA2D230825022D
:103B8400031DC62D22082402031CC92DCA2DD12DC4
:103B94002208A4022308031CA503A502281401304B
:103BA4000310A30CA20CFF3E031DD22D0130A6026C
:103BB400031DDD2DDE2DB92D27080319E22DE32D7C
:103BC400E82DA809A909A80A0319A90A2908A30024
:103BD4002808A20008000030831203132005F30014
:103BE40000302105F40080302205F5007F302305E4
:103BF400F6007608750474047304031D022E032E64
:103C04000B2E0030A3000030A2000030A1000030D1
:103C1400A00000302405F30000302505F4008030B6
:103C24002605F5007F302705F60076087504740430
:103C34007304031D1E2E1F2E272E0030A7000030F4
:103C4400A6000030A5000030A400A31F2A2E2B2EAE
:103C54004F2E0030F3000030F4000030F5008030C7
:103C6400F6002008F3022108031C210F3A2E3B2EF4
:103C7400F4022208031C220F402E412EF5022308D1
:103C8400031C230F462E472EF6027608A300750860
:103C9400A2007408A1007308A000A71F522E532E7F
:103CA400772E0030F3000030F4000030F50080304F
:103CB400F6002408F3022508031C250F622E632E48
:103CC400F4022608031C260F682E692EF502270825
:103CD400031C270F6E2E6F2EF6027608A7007508B8
:103CE400A6007408A5007308A4008030A3068030E1
:103CF400A70627082302031D892E26082202031D76
:103D0400892E25082102031D892E24082002031868
:103D14008C2E8D2E8F2E0310902E031408008312E8
:103D240003132008F3002108F4002208F50003100F
:103D3400740D750DAD002D08031DA12EA22EAB2E02
:103D44000030A3000030A2000030A1000030A00029
:103D5400472F2408F3002508F4002608F500031073
:103D6400740D750DAC002C08031DB92EBA2EBB2E94
:103D7400A22EA117FF30A005FF30A1050030A20537
:103D8400A517FF30A405FF30A5050030A6050030B7
:103D9400AB000030AA000030A9000030A8007F303A
:103DA400AD0298302C07F3007308AD021830AC0054
:103DB4000130F3000310A80DA90DAA0DAB0DF30BF0
:103DC400DC2E26082202031DED2E25082102031DE8
:103DD400ED2E24082002031CF02EF12EFC2E2408C4
:103DE400A0022508031C250FA1022608031C260A8D
:103DF400A202281401300310A00DA10DA20DFF3E54
:103E0400031DFD2E0130AC02031D092F0A2FDA2EEB
:103E1400AD1F0D2F0E2F282F2D08803A973E031823
:103E2400142F152F162FA22E01300310AB0CAA0C41
:103E3400A90CA80CFF3E031D172F0130FF007F08BB
:103E4400AD07031D262F272F162F3F2F18302D02C5
:103E5400031C2D2F2E2F3A2FA22E0130F300031016
:103E6400A80DA90DAA0DAB0DF30B312F0130AD0236
:103E74002D08031D3E2F3F2F2F2F2B08A3002A08A8
:103E8400A2002908A1002808A0000800031083123A
:103E94000313220D230DAD002D08031D522F532FA4
:103EA4005C2F0030A3000030A2000030A1000030DD
:103EB400A000FF2F0310260D270DAC002C08031DB6
:103EC400642F652F662F532FA217FF30A005FF30F4
:103ED400A105FF30A2050030A305A617FF30A405F5
:103EE400FF30A505FF30A6050030A7050030AB0064
:103EF4000030AA000030A9000030A8007F30AD02D5
:103F0400A0302C07F3007308AD022030AC00013060
:103F1400F3000310A80DA90DAA0DAB0DF30B8B2F05
:103F240027082302031DA02F26082202031DA02F09
:103F340025082102031DA02F24082002031CA32FFF
:103F4400A42FB32F2408A0022508031C250FA102C7
:103F54002608031C260FA2022708031C270FA3020E
:103F640028140130F3000310A00DA10DA20DA30D20
:103F7400F30BB52F0130AC02031DC12FC22F892FC3
:103F8400AD1FC52FC62FE02F2D08803A9F3E031882
:103F9400CC2FCD2FCE2F532F01300310AB0CAA0CF6
:103FA400A90CA80CFF3E031DCF2F0130FF007F0892
:103FB400AD07031DDE2FDF2FCE2FF72F20302D026C
:103FC400031CE52FE62FF22F532F0130F3000310CB
:103FD400A80DA90DAA0DAB0DF30BE92F0130AD020D
:103FE4002D08031DF62FF72FE72F2B08A3002A080F
:0C3FF400A2002908A1002808A000080075
:04400E00D420FF3F7C
:00000001FF
