:060000000A128A110C280F
:10000800FE00030EF2000A08F3000A128A11EC2B14
:100018000A128A110F28F601F701F801F901831372
:100028005830840068300A128A11F5240A128A119D
:1000380083010A128A11252B83120313350880398C
:10004800BF003508B6003607C600B41F2C282D2877
:100058002E28461446080319322833284328460A0E
:10006800031D3728382840280030B5000030B40078
:100078000030B3000030B200B417B5014B2800308F
:10008800B5000030B4000030B3000030B2003108D1
:100098008039B6003608BF063108B6003607C700F3
:1000A800B01F5728582859284714470803195D28AE
:1000B8005E286E28470A031D622863286B280030D3
:1000C800B1000030B0000030AF000030AE00B01713
:1000D800B10176280030B1000030B0000030AF0028
:1000E8000030AE00310830042F042E04031D7D2893
:1000F8007E2897280030B5000030B4000030B300E7
:100108000030B2008030B4047F30B5043F08B60038
:100118003608B5043508B1003408B0003308AF001C
:100128003208AE00F2294608031D9B289C28A52802
:100138000030B1000030B0000030AF000030AE0039
:10014800F2294608B600B7013708B9004708360251
:10015800B800031CB90338087F3EC00039080318EB
:10016800013E003EC1003508BE003408BD0033081A
:10017800BC003208BB000030B5000030B4000030CD
:10018800B3000030B2000030C5000030C4000030B9
:10019800C3000030C200C7011B2947080319D5282E
:1001A800D628F6280130B6000310BB0DBC0DBD0DD6
:1001B800BE0DB60BD8280130B6000310B20DB30D32
:1001C800B40DB50DB60BE128C51FEB28EC28ED28BA
:1001D80032140130B6000310C20DC30DC40DC50D95
:1001E800B60BEF2831083E02031D042930083D02F2
:1001F800031D04292F083C02031D04292E083B0275
:10020800031C07290829172945172E08BB022F08A0
:10021800031C2F0FBC023008031C300FBD0231082D
:10022800031C310FBE020130B6003608C7071A306A
:100238004702031C20292129D1283E083D043C04FB
:100248003B0403192829292948294214482901303F
:10025800B6000310B20DB30DB40DB50DB60B2D29B4
:10026800C51F37293829392932140130B60003103F
:10027800C20DC30DC40DC50DB60B3B29FF30C00719
:100288000318C10AFF30C107B41F4B294C292B2979
:10029800C701C51F502951296D29FF304205B600F5
:1002A800FF304305B700FF304405B8007F304505EF
:1002B800B900390838043704360403196429652954
:1002C8006829C701C70A6D29321C6B296C296D2959
:1002D80065294708031971297229A3290130B20732
:1002E800003003180130B307003003180130B40799
:1002F800003003180130B507351C83298429A32948
:100308003208B6003308B7003408B8003508B90019
:100318000130BA00390DB90CB80CB70CB60CBA0BD1
:100328008E293908B5003808B4003708B3003608F4
:10033800B2000130C0070318C10A0030C1074108E4
:10034800803AFF0080307F02031DAC29FF30400255
:10035800031CAF29B029BE29FF3083120313C00044
:100368000030C1000030B5000030B4000030B300E8
:100378000030B200831203134108803AFF00803036
:100388007F02031DC929013040020318CC29CD2959
:10039800DA2983120313C001C1010030B50000300F
:1003A800B4000030B3000030B200BF018312031361
:1003B8004008C600461CE129E229E429B417E829C7
:1003C8007F30B6003608B4054608B6000310360C70
:1003D800B5003F08B6003608B5048E280800831219
:1003E8000313A80028080319FA29FB290F2AA31FB9
:1003F800FE29FF290F2A2009AA002109AB0022099A
:10040800AC002309AD00AA0A0319AB0A0319AC0A08
:100418000319AD0A172A2308AD002208AC002108E9
:10042800AB002008AA002308220421042004031D8D
:100438001E2A1F2A282A0030A3000030A2000030FC
:10044800A1000030A000AC2A9630A900382A01305B
:10045800A4002408A90701300310AD0CAC0CAB0CA8
:10046800AA0CFF3E031D302AFE302D05031D3D2A30
:100478003E2A2B2A5A2A0130A4002408A907013051
:10048800AA07003003180130AB0700300318013009
:10049800AC07003003180130AD0701300310AD0C74
:1004A800AC0CAB0CAA0CFF3E031D522AFF302D05E5
:1004B800031D5F2A602A3F2A6C2A0130A9020130F5
:1004C800A4000310AA0DAB0DAC0DAD0DA40B652A4D
:1004D800AC1B6F2A702A762A023029020318752A63
:1004E800762A612A2918792A7A2A822AFF30AA05C7
:1004F800FF30AB057F30AC05FF30AD050310A90C0C
:100508002908A400A501A601A70118300310A40D0D
:10051800A50DA60DA70DFF3E031D8A2A2408AA04CF
:100528002508AB042608AC042708AD0428080319DD
:100538009E2A9F2AA42AA31FA22AA32AA42AAD1767
:100548002D08A3002C08A2002B08A1002A08A0004F
:1005580008000310831203134A0D4B0DF5007508AC
:10056800031DB72AB82AC12A0030CB000030CA00C0
:100578000030C9000030C800242B4808CC004908C6
:10058800CD004A08CE004B08CF001F300310CF0C17
:10059800CE0CCD0CCC0CFF3E031DCA2A4C08F4002F
:1005A800CA17FF30C805FF30C905FF30CA0500303B
:1005B800CB059630F502F51FE22AE32AFD2A7508D5
:1005C800803A973E0318E92AEA2AEB2AB82A01302A
:1005D8000310CB0CCA0CC90CC80CFF3E031DEC2A37
:1005E8000130CC004C08F507031DFB2AFC2AEB2A36
:1005F800142B20307502031C022B032B0F2BB82A57
:100608000130CC000310C80DC90DCA0DCB0DCC0BA1
:10061800062B0130F5027508031D132B142B042B30
:1006280074080319182B192B242BC809C909CA09DE
:10063800CB09C80A0319C90A0319CA0A0319CB0A3C
:1006480008000A128A1143240A128A1170300A1209
:100658008A11C8240A128A11831203138F018E018A
:100668000714053083120313D500D50B392B3C2B07
:100678008312031307100A128A1189230A128A1196
:10068800831203135108F7005008F6007708803AE0
:10069800FF0080307F02031D532B143076020318AD
:1006A800562B572B6E2B8312031308140A128A1128
:1006B8009D240A128A11333083120313D700BB30EA
:1006C800D600DF30D500D50B672BD60B672BD70BA1
:1006D800672B762B8312031308100A128A117124D0
:1006E8000A128A11053083120313D7000F30D6007F
:1006F800F030D500D50B7E2BD60B7E2BD70B7E2B5F
:100708000000302B0A128A110C28831203130714D5
:10071800053083120313D200D20B902B932B831234
:1007280003130710871C992B9A2B962B10148718E4
:100738009E2B9F2B9B2B10100F08D4000E08D30064
:100748005308A0005408A1000030A11BFF30A200EC
:10075800A30001300A128A11F3210A128A118312A6
:1007680003132308B5002208B4002108B3002008A9
:10077800B2004230B1006B30B0004730AF00AE304D
:10078800AE000A128A1120200A128A11831203135A
:100798003108CB003008CA002F08C9002E08C8004D
:1007A8000A128A11AD220A128A1183120313490808
:1007B800D4004808D3005308013ED3005408031856
:1007C800013E003ED4005408D1005308D000080070
:1007D800831203138C1DF12BF22B3C2C1412141BC7
:1007E800F62BF72BFB2B941FFA2BFB2B002C130853
:1007F800F90014139413141683160313941A052C72
:10080800062C202C1419092C0A2C202C83120313D3
:100818001308F9008C11141683160313141C152CD5
:10082800162C102C8312031313088600A630F1002F
:10083800F10B1C2C0000392C941A232C242C392C55
:10084800141D272C282C392C76080A128A11E22428
:100858000A128A11A630F100F10B302C0000831621
:1008680003131418382C392C332C831203138C11CE
:1008780073088A00720E8300FE0E7E0E090083162E
:100888000313071083120313071083160313871427
:10089800103083120313900083160317880189010F
:1008A8008316031386018312031386018316031329
:1008B80088018312031388011012901210127030ED
:1008C800831603138F040F148B170B17831203134C
:1008D8008C11831603138C15080083120313A001CF
:1008E800A10186170630F500B530F400F40B7A2C18
:1008F800F50B7A2C7F2C8312031386132F30F50007
:100908003A30F400F40B862CF50B862C00000130ED
:1009180083120313A0070318A10A0030A1070030AF
:100928002102323003192002031C9B2C9C2C752CAD
:10093800080083120313A001A1018617E430F40014
:10094800A52CA62CF40BA42CA92C000083120313AD
:1009580086133230F500DD30F400F40BB12CF50BC2
:10096800B12CB62C013083120313A0070318A10A77
:100978000030A10700302102323003192002031C85
:10098800C62CC72CA12C0800F40083160313871566
:1009980007168030940074089300363083120313CE
:1009A800940001308316031391008B170B178312E1
:1009B80003138C11831603138C150800F00083129F
:1009C80003131308831603131410700883120313F8
:1009D80093001416831603131418F32CF42CEE2C1E
:1009E800080064008001840A040603190034040620
:0209F800F62CDB
:08400000FF3FFF3FFF3FFF3FC0
:04400E00D420FF3F7C
:00000001FF
