:100000000A128A11E62FFF1B0D2883137F1883170E
:100010000008840A0319FF0A080000308A00040857
:10002000840A820700340034003480343F340034C2
:1000300000342034413400340034C83442340034B5
:1000400000347A344434003440341C3446340034B0
:100050005034C33447340034243474344934803445
:10006000963418344B342034BC34BE344C342834E9
:100070006B346E344E34F934023415345034EC346D
:100080007834AD346034CA34F234493471340034D5
:10009000003480343F34CD34CC34CC343D340A3455
:1000A000D73423343C346F34123483343A34173425
:1000B000B734D1343834AC34C53427343734BD3454
:1000C0003734863435349534BF34D63433347734CA
:1000D000CC342B3432345F34703489343034FF34D0
:1000E000E634DB342E340834E5343C341E346034DA
:1000F0004234A2340D3401340034003400340A3464
:100100000034003400346434003400340034E83403
:100110000334003400341034273400340034A03465
:10012000863401340034403442340F340034803497
:100130009634983400340034E134F5340534003416
:10014000CA349A343B34253430342E343234663455
:100150000034543465346D347034003444346934BC
:100160007334743400344F344E34203400344F34FC
:100170004634463400344C3455345A340034433415
:02018000003449
:1001840064008001840A0406031900340406C328A9
:10019400031083120313530D540DDA005A08031D80
:1001A400D428D528DE280030D4000030D300003015
:1001B400D2000030D10041295108D5005208D600A0
:1001C4005308D7005408D8001F300310D80CD70C9C
:1001D400D60CD50CFF3E031DE7285508D900D317CC
:1001E400FF30D105FF30D205FF30D3050030D405F0
:1001F4009630DA02DA1FFF2800291A295A08803AB1
:10020400973E0318062907290829D5280130031029
:10021400D40CD30CD20CD10CFF3E031D09290130A0
:10022400D5005508DA07031D182919290829312989
:1002340020305A02031C1F2920292C29D5280130DB
:10024400D5000310D10DD20DD30DD40DD50B232918
:100254000130DA025A08031D3029312921295908AD
:100264000319352936294129D109D209D309D409D9
:10027400D10A0319D20A0319D30A0319D40A0800AC
:100284008312031327088039B1002708AC002C0718
:10029400B700A61F4E294F295029371437080319D0
:1002A400542955296429370A031D59295A296229D1
:1002B4000030A7000030A6000030A5000030A400E4
:1002C400A6176C290030A7000030A6000030A50056
:1002D4000030A4002B088039AC002C08B1062B0890
:1002E400AC002C07B600AA1F782979297A2936147C
:1002F400360803197E297F298E29360A031D83298E
:1003040084298C290030AB000030AA000030A900F9
:100314000030A800AA1796290030AB000030AA00CC
:100324000030A9000030A800360803199A299B2937
:10033400A0293708031D9F29A029A9290030A70057
:100344000030A6000030A5000030A400862C24084C
:10035400F0002A080A168A1554210A128A11710813
:1003640083120313BD007008BC003C08AC00AD014F
:10037400AE01AF012F08B5002E08B4002D08B3005C
:100384002C08B2003D08AC00AD01AE01AF012F084E
:10039400BB002E08BA002D08B9002C08B8002508A7
:1003A400F00029080A168A1554210A128A117108C4
:1003B40083120313BD007008BC003C08AC00AD01FF
:1003C400AE01AF012C08B2072D0803110318013E3A
:1003D4000319ED29B3072E0803110318013E03196D
:1003E400F429B4072F0803110318013E0319FB294C
:1003F400B5073D08AC00AD01AE01AF012C08B8074C
:100404002D0803110318013E0319092AB9072E0800
:1004140003110318013E0319102ABA072F08031108
:100424000318013E0319172ABB072608F000280801
:100434000A168A1554210A128A11710883120313A9
:10044400BD007008BC003C08AC00AD01AE01AF01BA
:100454002C08B2072D0803110318013E0319332A8F
:10046400B3072E0803110318013E03193A2AB407EF
:100474002F0803110318013E0319412AB5073D084B
:10048400AC00AD01AE01AF012C08B8072D08031173
:100494000318013E03194F2AB9072E080311031844
:1004A400013E0319562ABA072F0803110318013E07
:1004B40003195D2ABB070830AC000310B20DB30D5D
:1004C400B40DB50DAC0B5F2A2508F00028080A16F8
:1004D4008A1554210A128A11710883120313BD006C
:1004E4007008BC003C08AC003D08AD00AE01AF0193
:1004F4002C08B2072D0803110318013E0319832A9F
:10050400B3072E0803110318013E03198A2AB407FE
:100514002F0803110318013E0319912AB507240873
:10052400F00029080A168A1554210A128A11710842
:1005340083120313BD007008BC003C08AC003D08E6
:10054400AD00AE01AF012C08B2072D08031103184A
:10055400013E0319AE2AB3072E0803110318013E06
:100564000319B52AB4072F0803110318013E031910
:10057400BC2AB5070830AC000310B20DB30DB40D9E
:10058400B50DAC0BBE2A2408F00028080A168A15FB
:1005940054210A128A11710883120313BD007008D2
:1005A400BC003C08AC003D08AD00AE01AF012C0816
:1005B400B2072D0803110318013E0319E22AB307F9
:1005C4002E0803110318013E0319E92AB4072F0862
:1005D40003110318013E0319F02AB5072508F0009A
:1005E4002A080A168A1554210A128A1171088312DC
:1005F4000313BD007008BC003C08AC003D08AD000E
:10060400AE01AF012C08B8072D0803110318013EF1
:1006140003190D2BB9072E0803110318013E031902
:10062400142BBA072F0803110318013E03191B2BBF
:10063400BB072608F00029080A168A1554210A1255
:100644008A11710883120313BD007008BC003C08B2
:10065400AC003D08AD00AE01AF012C08B8072D0871
:1006640003110318013E0319382BB9072E0803118F
:100674000318013E03193F2BBA072F08031103186F
:10068400013E0319462BBB072608F0002A080A1668
:100694008A1554210A128A11710883120313BD00AA
:1006A4007008BC003C08AC003D08AD00AE01AF01D1
:1006B40008300310AC0DAD0DAE0DAF0DFF3E031DA4
:1006C4005B2B2C08B8072D0803110318013E0319EE
:1006D4006C2BB9072E0803110318013E0319732B61
:1006E400BA072F0803110318013E03197A2BBB071D
:1006F4003208AC003308AD003408AE003508AF0052
:1007040018300310AF0CAE0CAD0CAC0CFF3E031D47
:10071400832B2C08B8072D0803110318013E031975
:10072400942BB9072E0803110318013E03199B2BC0
:10073400BA072F0803110318013E0319A22BBB07A4
:100744000830AC000310B20DB30DB40DB50DAC0BF5
:10075400A42B37083607AC00AD01AD0D2C08823E42
:10076400BC002D080318013EFF3EBD00D62B01300E
:10077400AC000310B80DB90DBA0DBB0DAC0BBB2BFF
:10078400B51FC52BC62BC72B38140130AC00031082
:10079400B20DB30DB40DB50DAC0BC92BFF30BC07B6
:1007A4000318BD0AFF30BD07BA1FD92BDA2BB92BAA
:1007B400B601B51FDE2BDF2BFB2BFF303205AC005F
:1007C400FF303305AD00FF303405AE007F30350512
:1007D400AF002F082E042D042C040319F22BF32B45
:1007E400F62BB601B60AFB2B381CF92BFA2BFB2B84
:1007F400F32B36080319FF2B002C312C0130B807DA
:10080400003003180130B907003003180130BA076B
:10081400003003180130BB073B1C112C122C312C67
:100824003808AC003908AD003A08AE003B08AF0008
:100834000130B0002F0DAF0CAE0CAD0CAC0CB00BF6
:100844001C2C2F08BB002E08BA002D08B9002C0858
:10085400B8000130BC070318BD0A0030BD073D08CD
:10086400803AFF0080307F02031D3A2CFF303C02A7
:10087400031C3D2C3E2C492C7F3083120313BB00F8
:100884008030BA000030B9000030B8007A2C8312EE
:1008940003133D08803AFF0080307F02031D542C6F
:1008A40001303C020318572C582C642C003083125E
:1008B4000313BB000030BA000030B9000030B800A8
:1008C400B1017A2C831203133C08B700FF30B8053A
:1008D400FF30B9057F30BA050030BB05371C732CD7
:1008E400742C752CBA173708AC0003102C0CBB0001
:1008F4003108AC002C08BB043B08A7003A08A6004A
:100904003908A5003808A400080083120313D00096
:10091400D01F8D2C8E2C3B2ED009D00A5008803A43
:10092400123E031C962C972C7F2D0A30F7000030C2
:10093400F8005008F200F301F21BF3036430F000F6
:100944000030F1000A168A151D230A128A11710853
:10095400FA007008F9000A168A15DC230A128A11B3
:10096400770883120313C20001300310C20DFF3E47
:10097400031DB72C0310420D593E84000A128A113C
:100984000D200A128A11C3000A128A110D200A12BC
:100994008A11C4000A128A110D200A128A11C50094
:1009A4000A128A110D200A128A11C6004608A700ED
:1009B4004508A6004408A5004308A4006430F700D5
:1009C4000030F8005008F900FA01F91BFA030A167E
:1009D4008A15DC230A128A11770883120313C700CD
:1009E40001300310C70DFF3E031DF32C0310470D08
:1009F4007D3E84000A128A110D200A128A11C80051
:100A04000A128A110D200A128A11C9000A128A11C7
:100A14000D200A128A11CA000A128A110D200A1224
:100A24008A11CB004B08AB004A08AA004908A90068
:100A34004808A8000A128A1142210A128A11831254
:100A440003132708CF002608CE002508CD0024086C
:100A5400CC000A30F0000030F1005008F200F3013D
:100A6400F21BF3030A168A151D230A128A11700851
:100A740083120313C20001300310C20DFF3E031D95
:100A84003E2D0310420D353E84000A128A110D20BA
:100A94000A128A11C3000A128A110D200A128A113D
:100AA400C4000A128A110D200A128A11C5000A1202
:100AB4008A110D200A128A11C6004608A7004508AB
:100AC400A6004408A5004308A4004F08AB004E0844
:100AD400AA004D08A9004C08A8000A128A11422154
:100AE4000A128A11831203132708C1002608C000C2
:100AF4002508BF002408BE00E52F5008803A753E43
:100B0400031C852D862D0E2E0A30F0000030F100D6
:100B14005008F200F301F21BF3030A168A151D2391
:100B24000A128A11700883120313C20001300310E1
:100B3400C20DFF3E031D992D0310420D353E840066
:100B44000A128A110D200A128A11C3000A128A118C
:100B54000D200A128A11C4000A128A110D200A12E9
:100B64008A11C5000A128A110D200A128A11C600C0
:100B74004608A7004508A6004408A5004308A400A9
:100B84000A30F7000030F8005008F900FA01F91BA8
:100B9400FA030A168A15DC230A128A1177088312CB
:100BA4000313C70001300310C70DFF3E031DD52DED
:100BB4000310470D593E84000A128A110D200A12AF
:100BC4008A11C8000A128A110D200A128A11C9005A
:100BD4000A128A110D200A128A11CA000A128A11F5
:100BE4000D200A128A11CB004B08AB004A08AA0058
:100BF4004908A9004808A8000A128A1142210A12C9
:100C04008A11831203132708C1002608C00025088F
:100C1400BF002408BE00E52F5008C20001300310B5
:100C2400C20DFF3E031D112E0310420D353E8400FC
:100C34000A128A110D200A128A11C3000A128A119B
:100C44000D200A128A11C4000A128A110D200A12F8
:100C54008A11C5000A128A110D200A128A11C600CF
:100C64004608C1004508C0004408BF004308BE0050
:100C7400E52F5008803A123E031C412E422E2A2FA3
:100C84000A30F7000030F8005008F200F301F21BBC
:100C9400F3036430F0000030F1000A168A151D23B6
:100CA4000A128A117108FA007008F9000A168A15E6
:100CB400DC230A128A11770883120313C20001305D
:100CC4000310C20DFF3E031D622E0310420D253E8C
:100CD40084000A128A110D200A128A11C3000A1212
:100CE4008A110D200A128A11C4000A128A110D20D9
:100CF4000A128A11C5000A128A110D200A128A11D9
:100D0400C6004608A7004508A6004408A5004308F5
:100D1400A4006430F7000030F8005008F900FA012C
:100D2400F91BFA030A168A15DC230A128A117708BA
:100D340083120313C70001300310C70DFF3E031DC8
:100D44009E2E0310470D493E84000A128A110D207D
:100D54000A128A11C8000A128A110D200A128A1175
:100D6400C9000A128A110D200A128A11CA000A1235
:100D74008A110D200A128A11CB004B08AB004A08D5
:100D8400AA004908A9004808A8000A128A114221A9
:100D94000A128A11831203132708CF002608CE00F3
:100DA4002508CD002408CC000A30F0000030F10002
:100DB4005008F200F301F21BF3030A168A151D23EF
:100DC4000A128A11700883120313C200013003103F
:100DD400C20DFF3E031DE92E0310420D013E8400A7
:100DE4000A128A110D200A128A11C3000A128A11EA
:100DF4000D200A128A11C4000A128A110D200A1247
:100E04008A11C5000A128A110D200A128A11C6001D
:100E14004608A7004508A6004408A5004308A40006
:100E24004F08AB004E08AA004D08A9004C08A800C2
:100E34000A128A1142210A128A1183120313270803
:100E4400C1002608C0002508BF002408BE00E52F05
:100E54005008803A753E031C302F312FB92F0A30C9
:100E6400F0000030F1005008F200F301F21BF3032C
:100E74000A168A151D230A128A1170088312031395
:100E8400C20001300310C20DFF3E031D442F0310A6
:100E9400420D013E84000A128A110D200A128A11A1
:100EA400C3000A128A110D200A128A11C4000A1200
:100EB4008A110D200A128A11C5000A128A110D2006
:100EC4000A128A11C6004608A7004508A60044086D
:100ED400A5004308A4000A30F7000030F8005008C9
:100EE400F900FA01F91BFA030A168A15DC230A121F
:100EF4008A11770883120313C70001300310C70D4A
:100F0400FF3E031D802F0310470D253E84000A1267
:100F14008A110D200A128A11C8000A128A110D20A2
:100F24000A128A11C9000A128A110D200A128A11A2
:100F3400CA000A128A110D200A128A11CB004B082A
:100F4400AB004A08AA004908A9004808A8000A12E8
:100F54008A1142210A128A11831203132708C1003D
:100F64002608C0002508BF002408BE00E52F50084D
:100F7400C20001300310C20DFF3E031DBC2F03103D
:100F8400420D013E84000A128A110D200A128A11B0
:100F9400C3000A128A110D200A128A11C4000A120F
:100FA4008A110D200A128A11C5000A128A110D2015
:100FB4000A128A11C6004608C1004508C000440848
:100FC400BF004308BE00080083120313EE01EF01C3
:100FD4008313C9308400DE300A128A11C2200A1237
:100FE4008A11831790308400B8300A128A11C22003
:0C0FF4000A128A1183010A168A11AA2928
:10100800F100F0013A30710203180B280C2814285B
:1010180030307102031C112812281428F001F00A3C
:10102800700C080083160313C300A130AE00EB2F29
:10103800253044060319212822282C284308840037
:101048004408831780000130A5002508C307EB2F4B
:10105800BB01BC01B901BA01362839150130A50018
:101068002508A007200884000A128A110D200A12F8
:101078008A15A500A6012608003A0319442849281C
:101088002508303A031931284928200884000A1213
:101098008A110D200A128A150A128A1504200A12CA
:1010A8008A15031C58285928992883160313BB014D
:1010B800BC010A30F0000030F100831603133C082D
:1010C800F3003B08F2000A168A152F210A128A1526
:1010D800710883160313BC007008BB002008840045
:1010E8000A128A110D200A128A15D03EA500FF3077
:1010F80003180030A6002508BB070318BC0A2608F9
:10110800BC070130A5002508A007200884000A12A2
:101118008A110D200A128A150A128A1504200A1249
:101128008A150318982899285D2883160313200820
:1011380084000A128A110D200A128A152E3A031DFC
:10114800A628A728EC283A170130A5002508A007EB
:10115800C101C201DB280A30F0000030F10083161B
:1011680003134208F3004108F2000A168A152F21DA
:101178000A128A15710883160313C2007008C10089
:10118800200884000A128A110D200A128A15D03EFE
:10119800A500FF3003180030A6002508C107031872
:1011A800C20A2608C2070130A5002508A0072008A2
:1011B80084000A128A110D200A128A150A128A1549
:1011C80004200A128A150318EA28EB28AF28F22807
:1011D800C101C2013A16F2283A150E2901308316C8
:1011E8000313A007FF30200784000A128A110D207C
:1011F8000A128A15C400A500A6012608003A031998
:101208000629EB2F2508003A0319FB2F663A031924
:10121800F028EB2F00303905A50007303A05A60065
:1012280025082604031919291A29F92E3A1E1D29F9
:101238001E2922290630C1000030C2002E08840071
:1012480083130008BD00840A0008BE00840A000851
:10125800BF00840A0008C0000430A5002508AE07B6
:101268004008F3003F08F2003E08F1003D08F00096
:101278000030F7000030F6000030F5000030F400D0
:101288000A168A15D4240A128A1503184C294D29DE
:101298006A29831603134008F3003F08F2003E084A
:1012A800F1003D08F0000A168A1586200A128A15F0
:1012B800730883160313C0007208BF007108BE00CC
:1012C8007008BD000330B9040030BA048316031354
:1012D800B701B8014008F3003F08F2003E08F100EA
:1012E8003D08F0000030F7000030F6000030F5004F
:1012F8000030F4000A168A152C220A128A150318DF
:1013080086298729772A0310831603133F0D400D7A
:10131800823EB700FF3003180030B800FF30B7072F
:101328000318B80AFF30B8070330F0000030F100A6
:101338003808F3003708F2000A168A152F210A1216
:101348008A15710883160313B8007008B7000A30AD
:10135800F7000030F8003808FA003708F9000A16D4
:101368008A15DC230A128A15780883160313B80035
:101378007708B700B81FC129C229C829FF30B707A5
:101388000318B80AFF30B8073703FF3A0A128A1160
:1013980087240A128A15831203134108831603133C
:1013A800B60083120313400883160313B500831293
:1013B80003133F0883160313B400831203133E0874
:1013C80083160313B300400883120313A700831680
:1013D80003133F0883120313A600831603133E0862
:1013E80083120313A500831603133D088312031306
:1013F800A40083160313360883120313AB00831665
:101408000313350883120313AA0083160313340841
:1014180083120313A90083160313330883120313DB
:10142800A8000A128A1142210A128A15831203138C
:10143800270883160313B60083120313260883169E
:101448000313B50083120313250883160313B4008E
:1014580083120313240883160313B3003608F3001A
:101468003508F2003408F1003308F0003F30F70087
:101478008030F6000030F5000030F4000A168A15B6
:10148800D4240A128A1503184A2A4B2A542AFF30F0
:1014980083160313B7070318B80AFF30B807772A6B
:1014A800831603133608F3003508F2003408F100F8
:1014B8003308F0004130F7002030F6000030F50026
:1014C8000030F4000A168A15D4240A128A15031C5F
:1014D8006E2A6F2A772A013083160313B707031879
:1014E800B80A0030B807831603134208803AFF0091
:1014F80080307F02031D822A0D3041020318852A9D
:10150800862ACD2A8316031341080A168A119D23B9
:101518000A128A15831203134108D5004008D40023
:101528003F08D3003E08D2008316031340088312F5
:101538000313D900831603133F0883120313D8003B
:10154800831603133E0883120313D700831603136D
:101558003D0883120313D6000A168A11A8250A1219
:101568008A1583120313550883160313C0008312C8
:101578000313540883160313BF008312031353087D
:1015880083160313BE008312031352088316031332
:10159800BD00831603133808803AFF0080307F02AD
:1015A800031DD82A0A3037020318DB2ADC2A2D2B20
:1015B800831603134008F3003F08F2003E08F100C9
:1015C8003D08F0000030F7000030F6000030F5006C
:1015D8000030F4000A168A152C220A128A150318FC
:1015E800F62AF72A9F2B8316031340088312031346
:1015F800D400831603133F0883120313D300831602
:1016080003133E0883120313D200831603133D0805
:1016180083120313D1000A128A11CA200A128A15EA
:10162800831203135408530452045104031D1D2B41
:101638001E2B9F2B831603133808803AFF00803037
:101648007F02031D292B02303702031C2C2B2D2B64
:101658009F2B831603133608F3003508F20034086D
:10166800F1003308F0004030F7008930F6007030A0
:10167800F5005F30F4000A168A15D4240A128A1578
:101688000318472B482B512BF73083160313B70742
:101698000318B80AFF30B807592BF830831603131C
:1016A800B7070318B80AFF30B80737080A128A11B3
:1016B80087240A128A158312031341088316031319
:1016C800B60083120313400883160313B500831270
:1016D80003133F0883160313B400831203133E0851
:1016E80083160313B3004008F3003F08F2003E08D6
:1016F800F1003D08F0003608F7003508F600340818
:10170800F5003308F4000A168A11F2200A128A1525
:10171800730883160313B2007208B1007108B00091
:101728007008AF000030C0000030BF000030BE00BD
:101738000030BD00232C83160313400883120313C3
:10174800D400831603133F0883120313D3008316B0
:1017580003133E0883120313D200831603133D08B4
:1017680083120313D1000A128A11CA200A128A1599
:1017780083120313540883160313B200831203134E
:10178800530883160313B1008312031352088316F8
:101798000313B00083120313510883160313AF0019
:1017A8003208F3003108F2003008F1002F08F00089
:1017B80000300A168A113A200A128A157308831211
:1017C8000313E9007208E8007108E7007008E600F2
:1017D80083160313400883120313ED0083160313C3
:1017E8003F0883120313EC00831603133E08831289
:1017F8000313EB00831603133D0883120313EA0057
:101808000A168A150B210A128A158312031369080E
:1018180083160313C0008312031368088316031387
:10182800BF0083120313670883160313BE008312D5
:101838000313660883160313BD00B701B801C4017A
:10184800C40A4408A50001300310A50DFF3E031D7E
:10185800282C0310250D693E84000A128A110D20D8
:101868000A128A15A6000A128A110D200A128A1570
:10187800A7000A128A110D200A128A15A8000A1256
:101888008A110D200A128A15A90029083202031D9F
:10189800572C28083102031D572C27083002031D36
:1018A800572C26082F0203185A2C5B2C5C2C662C0C
:1018B8000130A5002508C4070A304406031D652C1D
:1018C800662C252C44084107A50042080318420A43
:1018D800A60037082507A70038080318380A26077E
:1018E800A8002708BB022808031CBC03BC02410847
:1018F80042040319802C812C872CFF30BB07031866
:10190800BC0AFF30BC0703303905A50000303A0592
:10191800A600250826040319922C932C992CFF3035
:10192800BB070318BC0AFF30BC07391D9C2C9D2C33
:10193800E32C03303905A50000303A05A600250838
:1019480026040319A82CA92CC42C430884002D3084
:10195800831780000130A5002508C307C42C83160F
:101968000313430884003030831780000130A5003A
:101978002508C307FF30BB070318BC0AFF30BC07A4
:101988003C08803AFF0080307F02031DCD2C0130D7
:101998003B020318D02CD12CB32C6C2D83160313C7
:1019A800430884002030831780000130A5002508F3
:1019B800C307FF30BB070318BC0AFF30BC073C084D
:1019C800803AFF0080307F02031DEC2C01303B027F
:1019D8000318EF2CF02CD22C03308316031339058F
:1019E800A50000303A05A600250826040319FD2C99
:1019F800FE2C6C2D430884002D30831780000130A5
:101A0800A5002508C3076C2D4408A5000130031064
:101A1800A50DFF3E031D0B2D0310250D693E840007
:101A28000A128A110D200A128A15F0000A128A1168
:101A38000D200A128A15F1000A128A110D200A12C5
:101A48008A15F2000A128A110D200A128A15F3006B
:101A58003208F7003108F6003008F5002F08F400C6
:101A68000A168A1576230A128A1573088316031331
:101A7800B6007208B5007108B4007008B3000030F1
:101A8800F3000030F2000030F1000A30F0003608B0
:101A9800F7003508F6003408F5003308F4000A1694
:101AA8008A15C9220A128A15730883160313B60009
:101AB8007208B5007108B4007008B30043088400C8
:101AC8003308303E831780000130A5002508C3077E
:101AD800013083160313C402440A031D742D752DA7
:101AE800082D872D8316031343088400303083178D
:101AF80080000130A5002508C307FF30B707031889
:101B0800B80AFF30B8073808803AFF0080307F02F3
:101B1800031D902D013037020318932D942D762D37
:101B2800831603134208803AFF0080307F02031DAA
:101B38009F2D09304102031CA22DA32DA82D08308A
:101B480083160313C400AC2D831603134108C40085
:101B58004408A500A6012508C1022608031CC203E3
:101B6800C20244080319B92DBA2DC32D43088400B5
:101B78002E30831780000130A5002508C3074408CC
:101B88000A128A1187240A128A158312031341083C
:101B980083160313AD00831203134008831603133F
:101BA800AC00831203133F0883160313AB008312A0
:101BB80003133E0883160313AA002D088312031388
:101BC800AB00831603132C0883120313AA00831691
:101BD80003132B0883120313A900831603132A087F
:101BE80083120313A80083160313400883120313F8
:101BF800A700831603133F0883120313A600831656
:101C080003133E0883120313A500831603133D082C
:101C180083120313A4000A128A1142210A128A1598
:101C2800831203132708D4002608D3002508D200FE
:101C38002408D1000A128A11CA200A128A158312AE
:101C48000313540883160313B200831203135308B3
:101C580083160313B1008312031352088316031368
:101C6800B00083120313510883160313AF00DB2E51
:101C78004408A50001300310A50DFF3E031D3F2EAB
:101C88000310250D693E84000A128A110D200A12DC
:101C98008A15F0000A128A110D200A128A15F1001D
:101CA8000A128A110D200A128A15F2000A128A11E4
:101CB8000D200A128A15F3003208F7003108F600E1
:101CC8003008F5002F08F4000A168A1576230A1240
:101CD8008A15730883160313B6007208B5007108D5
:101CE800B4007008B3000030F3000030F200003098
:101CF800F1000A30F0003608F7003508F60034081D
:101D0800F5003308F4000A168A15C9220A128A1542
:101D1800730883160313B6007208B5007108B4007F
:101D28007008B300430884003308303E83178000EE
:101D38000130A5002508C3074408A5000130031099
:101D4800A50DFF3E031DA32E0310250D693E84003B
:101D58000A128A110D200A128A15F0000A128A1135
:101D68000D200A128A15F1000A128A110D200A1292
:101D78008A15F2000A128A110D200A128A15F30038
:101D88003208F7003108F6003008F5002F08F40093
:101D98000A168A15C9220A128A15730883160313AC
:101DA800B2007208B1007108B0007008AF000130CD
:101DB800C402440A031DE12EE22E3C2EF22E4308F3
:101DC80084003030831780000130A5002508C30740
:101DD800FF30C1070318C20AFF30C2074108420496
:101DE800031DF72EF82EE32EEB2F41084204031DA6
:101DF800FE2EFF2E0D2F3208310430042F04031D50
:101E0800062F072F0D2F0130C1070318C20A003013
:101E1800C2074208803A803C031D142F410844023F
:101E28000318172F182F1D2F831603134108C400FA
:101E3800352F831603134208803AA5008030250207
:101E4800031D282F4408410203182B2F2C2F352F50
:101E5800831603134408A500A6012508C100260817
:101E6800C200831603133B083C0403193C2F3D2F83
:101E78004F2F03303905A50000303A05A600250884
:101E880026040319482F492F4F2FFF30BB0703188B
:101E9800BC0AFF30BC073A1F522F532F6E2F42083F
:101EA800803AA5003C08803A2502031D5D2F3B08B7
:101EB80041020318602F612F6A2F8316031341080C
:101EC800BB024208031CBC03BC026E2F831603131B
:101ED800BB01BC013C08803A803C031D752F3B08C0
:101EE80044020318782F792F852F8316031344088B
:101EF800A500A6012508BB022608031CBC03BC02DA
:101F0800892F83160313BB01BC01391D8C2F8D2F1C
:101F1800BE2F03303905A50000303A05A600250874
:101F280026040319982F992FA22F430884002D30D7
:101F3800831780000130A5002508C3073B083C042F
:101F48000319A72FA82FEB2F4308840030308317DD
:101F580080000130A5002508C307FF30BB07031820
:101F6800BC0AFF30BC073B083C04031DBC2FBD2F37
:101F7800A82FEB2F3B083C040319C32FC42FD92FDC
:101F8800430884002030831780000130A50025080D
:101F9800C307FF30BB070318BC0AFF30BC073B0868
:101FA8003C04031DD82FD92FC42F03303905A500B1
:101FB80000303A05A600250826040319E42FE52F6A
:101FC800EB2F430884002D30831780002728013029
:101FD800A007FF30200784000A128A110D200A1278
:101FE8008A15C4004408031DFA2FFB2F1C28430838
:101FF80084008317800108007008710403190528FC
:1020080006283528F501F50A142801300310F00DCB
:10201800F10DFF3E031D0A280130F4007408F5078E
:10202800F11F17281828092871087302031D1E2894
:1020380070087202031C2128222828287008F2023E
:102048007108031CF303F30201300310F10CF00CC8
:10205800FF3E031D29280130F502031D34283528C9
:1020680018287308F1007208F0000800F8007808D2
:1020780003193F2840285428F31F4328442854288C
:102088007009FA007109FB007209FC007309FD0070
:10209800FA0A0319FB0A0319FC0A0319FD0A5C284A
:1020A8007308FD007208FC007108FB007008FA0054
:1020B8007308720471047004031D632864286D2872
:1020C8000030F3000030F2000030F1000030F00082
:1020D800F1289630F9007D280130F4007408F907DA
:1020E80001300310FD0CFC0CFB0CFA0CFF3E031D29
:1020F8007528FE307D05031D8228832870289F28B7
:102108000130F4007408F9070130FA0700300318A9
:102118000130FB07003003180130FC0700300318BA
:102128000130FD0701300310FD0CFC0CFB0CFA0C10
:10213800FF3E031D9728FF307D05031DA428A52811
:102148008428B1280130F9020130F4000310FA0D97
:10215800FB0DFC0DFD0DF40BAA28FC1BB428B528BB
:10216800BB28023079020318BA28BB28A628791898
:10217800BE28BF28C728FF30FA05FF30FB057F308F
:10218800FC05FF30FD050310F90C7908F400F50192
:10219800F601F70118300310F40DF50DF60DF70DE3
:1021A800FF3E031DCF287408FA047508FB0476085F
:1021B800FC047708FD0478080319E328E428E928D3
:1021C800F31FE728E828E928FD177D08F3007C08B5
:1021D800F2007B08F1007A08F00008000310720D85
:1021E800730D83120313A5002508031DFC28FD2881
:1021F80006290030F3000030F2000030F100003012
:10220800F000A9290310760D770DA4002408031DFA
:102218000E290F291029FD28F217FF30F005FF308D
:10222800F105FF30F2050030F305F617FF30F4052D
:10223800FF30F505FF30F6050030F7050030A30044
:102248000030A2000030A1000030A0007F30A502BD
:10225800A0302407F8007808A5022030A400013037
:10226800F8000310A00DA10DA20DA30DF80B352940
:1022780077087302031D4A2976087202031D4A294A
:1022880075087102031D4A2974087002031C4D2940
:102298004E295D297408F0027508031C750FF102B8
:1022A8007608031C760FF2027708031C770FF302F7
:1022B80020140130F8000310F00DF10DF20DF30DAC
:1022C800F80B5F290130A402031D6B296C293329FF
:1022D800A51F6F2970298A292508803A9F3E03186F
:1022E800762977297829FD2801300310A30CA20C40
:1022F800A10CA00CFF3E031D79290130F8007808D5
:10230800A507031D882989297829A12920302502B4
:10231800031C8F2990299C29FD280130F8000310FF
:10232800A00DA10DA20DA30DF80B93290130A50254
:102338002508031DA029A12991292308F3002208B3
:10234800F2002108F1002008F00008000A168A159A
:10235800B8200A168A1180300A168A15EC200A1647
:102368008A110A168A1545240A168A110A168A1528
:102378005D200A168A1171300A168A1591200A16EC
:102388008A110A168A157B200A168A1183160313E6
:10239800DB000A168A1567200A168A11023083168E
:1023A8000313C7000430C600B930C500C50BDA29CD
:1023B800C60BDA29C70BDA29E1291430831603136F
:1023C8005B020318E829E929EE290130D50000301D
:1023D800D600F029D501D6010A168A155D200A16FD
:1023E8008A1151300A168A1591200A168A110A167E
:1023F8008A157B200A168A1183160313DD000A1634
:102408008A1567200A168A11023083160313C7003B
:102418000430C600B930C500C50B102AC60B102AF7
:10242800C70B102A172A423083120313C1009A30AF
:10243800C0000030BF000030BE004330A700163097
:10244800A6000030A5000030A400831603135D0821
:10245800C500C601C701C8014808F3004708F200D3
:102468004608F1004508F00001300A168A113A20A2
:102478000A168A11730883120313AB007208AA00A4
:102488007108A9007008A8000A128A1142210A16C8
:102498008A11831203132708C5002608C4002508DB
:1024A800C3002408C2000A168A152D260A168A11A6
:1024B80083120313410883160313D00083120313F6
:1024C800400883160313CF00831203133F088316B3
:1024D8000313CE00831203133E0883160313CD00A3
:1024E8000A168A155D200A168A1161300A168A159D
:1024F80091200A168A110A168A157B200A168A1153
:1025080083160313DC000A168A1567200A168A1137
:10251800023083160313C7000430C600B930C50063
:10252800C50B942AC60B942AC70B942A9B2A64309D
:10253800831603135C02031CA22AA32AA82A0130CB
:10254800D7000030D800AA2AD701D8019130A000BE
:102558005008A4004F08A3004E08A2004D08A1008F
:10256800A4300A128A1516200A168A11F901F90AE6
:1025780001300A168A15E7210A168A119730F900E0
:102588008030FA000A168A157B210A168A11F90189
:10259800F90A02300A168A15E7210A168A11A430A8
:1025A800F9000130FA000A168A157B210A168A11E9
:1025B8000630F90002300A168A15E7210A168A1130
:1025C800DF300A168A1571200A168A11AD30F90013
:1025D8008030FA000A168A157B210A168A1183169A
:1025E800031357085804031DFA2AFB2A1E2B093027
:1025F800F90001300A168A15E7210A168A11A9304E
:10260800F9008030FA000A168A157B210A168A1109
:102618000930F90002300A168A15E7210A168A11CC
:10262800A530F9008030FA000A168A157B210A16AF
:102638008A11462B57035804031D232B242B462BA2
:102648000930F90001300A168A15E7210A168A119D
:10265800A930F9008030FA000A168A157B210A167B
:102668008A110930F90002300A168A15E7210A167C
:102678008A11A130F9008030FA000A168A157B21E8
:102688000A168A118316031355085604031D4D2B89
:102698004E2B712B0D30F90001300A168A15E721EF
:1026A8000A168A119C30F9008030FA000A168A1539
:1026B8007B210A168A110D30F90002300A168A1594
:1026C800E7210A168A11A530F9008030FA000A16A7
:1026D8008A157B210A168A11BA2955035604031D47
:1026E800762B772BBA290D30F90001300A168A1596
:1026F800E7210A168A119C30F9008030FA000A1680
:102708008A157B210A168A110D30F90002300A1643
:102718008A15E7210A168A11A130F9008030FA00DB
:102728000A168A157B210A168A11BA290A128A11F1
:10273800002883120313D1006E305102031CA52B0D
:10274800A62BB32C3F30A7000030A6000030A50010
:102758000030A4006430F6000030F7005108C200D1
:10276800C3014208F8004308F9000A168A15A32194
:102778000A168A11760883120313C4000130031065
:10278800C40DFF3E031DC32B0310440D7D3E840082
:102798000A128A110D200A168A11C5000A128A1116
:1027A8000D200A168A11C6000A128A110D200A166F
:1027B8008A11C7000A128A110D200A168A11C80048
:1027C8004808AB004708AA004608A9004508A80021
:1027D8000A128A1142210A168A1183120313270842
:1027E800D0002608CF002508CE002408CD000A30E6
:1027F800F6000030F7005108C200C3014208F20099
:102808004308F3006430F0000030F1000A168A1122
:1028180000200A168A117108F9007008F8000A16D3
:102828008A15A3210A168A11760883120313C40095
:1028380001300310C40DFF3E031D1D2C0310440D71
:10284800593E84000A128A110D200A168A11C50001
:102858000A128A110D200A168A11C6000A128A1154
:102868000D200A168A11C7000A128A110D200A16AD
:102878008A11C8004808A7004708A6004608A5000E
:102888004508A4005008AB004F08AA004E08A9004C
:102898004D08A8000A128A1142210A168A118312C9
:1028A80003132708CC002608CB002508CA002408F3
:1028B800C9000A30F0000030F1005108C200C3011D
:1028C8004208F2004308F3000A168A1100200A168B
:1028D8008A11700883120313C40001300310C40D59
:1028E800FF3E031D722C0310440D353E84000A126E
:1028F8008A110D200A168A11C5000A128A110D20A4
:102908000A168A11C6000A128A110D200A168A119F
:10291800C7000A128A110D200A168A11C800480831
:10292800A7004708A6004608A5004508A4004C08CB
:10293800AB004B08AA004A08A9004908A8000A12D7
:102948008A1142210A168A11831203132708C1002B
:102958002608C0002508BF002408BE00A72D0B309C
:102968005102031CB82CB92C642D3F30A70000304D
:10297800A6000030A5000030A4000A30F6000030A0
:10298800F7005108C200C3014208F8004308F900E3
:102998000A168A15A3210A168A11760883120313C8
:1029A800C40001300310C40DFF3E031DD62C0310D4
:1029B800440D593E84000A128A110D200A168A1104
:1029C800C5000A128A110D200A168A11C6000A12B9
:1029D8008A110D200A168A11C7000A128A110D20C1
:1029E8000A168A11C8004808AB004708AA0046081A
:1029F800A9004508A8000A128A1142210A168A115C
:102A0800831203132708D0002608CF002508CE001C
:102A18002408CD000A30F0000030F1005108C2004F
:102A2800C3014208F2004308F3000A168A11002085
:102A38000A168A11700883120313C40001300310A8
:102A4800C40DFF3E031D232D0310440D353E8400A5
:102A58000A128A110D200A168A11C5000A128A1153
:102A68000D200A168A11C6000A128A110D200A16AC
:102A78008A11C7000A128A110D200A168A11C80085
:102A88004808A7004708A6004608A5004508A4006E
:102A98005008AB004F08AA004E08A9004D08A8002E
:102AA8000A128A1142210A168A118312031327086F
:102AB800C1002608C0002508BF002408BE00A72DB5
:102AC8003F30A7000030A6000030A5000030A40069
:102AD8005108C20001300310C20DFF3E031D6F2DC7
:102AE8000310420D353E84000A128A110D200A1681
:102AF8008A11C3000A128A110D200A168A11C4000D
:102B08000A128A110D200A168A11C5000A128A11A2
:102B18000D200A168A11C6004608AB004508AA000F
:102B28004408A9004308A8000A128A1142210A167B
:102B38008A11831203132708C1002608C00025083C
:102B4800BF002408BE00080083120313550880390B
:102B5800E2005508DA005A07E400D41FB42DB52D59
:102B6800B62D641464080319BA2DBB2DCB2D640A45
:102B7800031DBF2DC02DC82D0030D5000030D40056
:102B88000030D3000030D200D417D501D32D003047
:102B9800D5000030D4000030D3000030D2005908EE
:102BA8008039E300630862060319DB2DDC2DDD2D77
:102BB80062175908DA005A07E300D81FE42DE52DFB
:102BC800E62D631463080319EA2DEB2DFB2D630A28
:102BD800031DEF2DF02DF82D0030D9000030D8005E
:102BE8000030D7000030D600D817D901032E0030A6
:102BF800D9000030D8000030D7000030D600640873
:102C080063020318082E092E2F2E621F0C2E0D2E7C
:102C1800112E8030DA005A08E2066408E5006308DD
:102C2800E4006508E3005208E5005608D20065088C
:102C3800D6005308E5005708D3006508D7005408A4
:102C4800E5005808D4006508D8005508E50059087B
:102C5800D5006508D900E5016308DA00DB015B08E7
:102C6800DD0064085A02DC00031CDD035D08803ABD
:102C7800FF0080307F02031D432E1A305C02031CC4
:102C8800462E472E7E2E83120313550854045304F0
:102C98005204031D502E522E0130532E0030E500F1
:102CA8000030D5000030D4000030D3000030D2000E
:102CB8006308E400862E651C622E632E6A2E650862
:102CC800DA0003105A0C0138E5006C2E0310E50CED
:102CD800521C6F2E702E712EE5170130DA00550D3B
:102CE800D50CD40CD30CD20CDA0B732E0130DA00CD
:102CF8005A08E4078312031363086402031C852E31
:102D0800862E5F2E621B892E8A2ED32E6408031D01
:102D18008E2E8F2E982E0030D5000030D400003033
:102D2800D3000030D200FF2F5608D20757080311EE
:102D38000318013E0319A12ED307580803110318DD
:102D4800013E0319A82ED407590803110318013EA0
:102D58000319AF2ED507551CB22EB32E872F651C2D
:102D6800B62EB72EBE2E6508DA0003105A0C0138AD
:102D7800E500C02E0310E50C521CC32EC42EC52E30
:102D8800E5170130DA00550DD50CD40CD30CD20C54
:102D9800DA0BC72E0130DA005A08E407872F5508E6
:102DA800803AFF005908803A7F02031DE52E580833
:102DB8005402031DE52E57085302031DE52E56083D
:102DC80052020318E82EE92E412FFF30DA00FF30B7
:102DD800DB00FF30DC00FF30DD005608DE0057085E
:102DE800DF005808E0005908E1005208DE025308E5
:102DF800031C530F002F012FDF025408031C540F2C
:102E0800062F072FE0025508031C550F0C2F0D2F16
:102E1800E1025E08DA075F0803185F0F142F152F09
:102E2800DB0760080318600F1A2F1B2FDC076108E7
:102E38000318610ADD075D08D5005C08D4005B084B
:102E4800D3005A08D2008030DA005A08E206E509B1
:102E5800E50A6508031D312F322F4F2F0130D207A5
:102E6800003003180130D307003003180130D407AD
:102E7800003003180130D5074F2F5608D2025708E3
:102E8800031C570FD3025808031C580FD4025908C3
:102E9800031C590FD5025508540453045204031D4A
:102EA800562F572F832F6508031D5B2F5C2F832F09
:102EB8000030D5000030D4000030D3000030D200FC
:102EC800FF2F0130DA000310D20DD30DD40DD50D2C
:102ED800DA0B672FE51F712F722F732F5214651CA1
:102EE800762F772F7A2F0314E50D7C2F0310E50D2D
:102EF80064080319802F812F832F0130E402D41F27
:102F0800862F872F652FE301E51F8B2F8C2F9A2F94
:102F180065087F390319912F922F952FE301E30A52
:102F28009A2F521C982F992F9A2F922F63080319C2
:102F38009E2F9F2FD32F0130D20700300318013066
:102F4800D307003003180130D407003003180130CC
:102F5800D507551CB02FB12FD32F5208DA005308CC
:102F6800DB005408DC005508DD000130DE005D0D93
:102F7800DD0CDC0CDB0CDA0CDE0BBB2F5D08D5009E
:102F88005C08D4005B08D3005A08D200640A03190D
:102F9800CE2FCF2FD32F0130DA005A08E407640A66
:102FA8000319D72FD82FDD2F6408031DDC2FDD2F41
:102FB800EB2F0030D5000030D4000030D3000030B3
:102FC800D2006408031DE92FEA2FEB2FE201641CED
:102FD800EE2FEF2FF12FD417F52F7F30DA005A0894
:102FE800D4056408DA0003105A0CD500E21FFD2F3F
:082FF800FE2FFF2FD517080082
:1030BA0083160313111483128C1D64286528602853
:1030CA008C11080083160313111583128C1D6E28A8
:1030DA006F286A288C110800F9007908F600013077
:1030EA000A168A15D1200A168A15080083160313B0
:1030FA00911583128C1D822883287E288C1113082F
:10310A000800730872047104700403198D288E284C
:10311A0090288030F3060800F00070088312031329
:10312A0093008C1D99289A2896288C1183160313CC
:10313A0011080800F1000A168A155D200A168A1578
:10314A004E300A168A1591200A168A15710808380F
:10315A000A168A1591200A168A150A168A156720F0
:10316A000A168A150800831603178801890183162F
:10317A00031385018312031385018316031389013F
:10318A0083120313890183160313860188018312AC
:10319A000313860188010800F8007608F700043056
:1031AA000310F70CFF3E031DD5287708F2007808B4
:1031BA000A168A157A220A168A1576080F39F20033
:1031CA0078080A168A157A220A168A150800F00063
:1031DA008316031387150716700894002830831284
:1031EA000313940083160313910180307006031DA4
:1031FA00FF2800290329773093000A297008031D44
:10320A00072908290A291D309300080080308312F3
:10321A000313E9066D08D5006C08D4006B08D300C7
:10322A006A08D2006908D9006808D8006708D70078
:10323A006608D6000A168A11A8250A168A15831264
:10324A0003135508E9005408E8005308E700520838
:10325A00E6000800F401F501701C342935293B29E0
:10326A007208F4070318F50A7308F507013003100A
:10327A00F20DF30DFF3E031D3C2901300310F10C42
:10328A00F00CFF3E031D432970087104031D4E29EB
:10329A004F2931297508F1007408F0000800F80078
:1032AA00F401F5017008F200F3017208F6007308E0
:1032BA00F700781C6129622968297608F40703183F
:1032CA00F50A7708F50701300310F60DF70DFF3EF2
:1032DA00031D69290310F80C7808031D752976293E
:1032EA005E297508F1007408F000080092297A082E
:1032FA00FF00790884000A128A1103200A168A1527
:10330A00F60001300A168A15D1200A168A150130EC
:10331A00F9070318FA0A0030FA077A088312031326
:10332A00FF00790884000A128A1103200A168A15F6
:10333A00003A031DA129A2297C290800FB01FC01EE
:10334A00760877040319AA29AB29E229FD01FD0AA7
:10335A00B92901300310F60DF70DFF3E031DAF2901
:10336A000130FA007A08FD07F71FBC29BD29AE29EA
:10337A0001300310FB0DFC0DFF3E031DBE2977082B
:10338A007902031DCA2976087802031CCD29CE29A1
:10339A00D5297608F8027708031CF903F9027B1489
:1033AA0001300310F70CF60CFF3E031DD62901303D
:1033BA00FD02031DE129E229BD297C08F7007B08EB
:1033CA00F6000800FC00152A7908FF3E8038F6004E
:1033DA0000300A168A15D1200A168A152B2A79086E
:1033EA00FF3EC038F60000300A168A15D1200A16A8
:1033FA008A152B2A7908FF3E9438F60000300A16FF
:10340A008A15D1200A168A152B2A7908FF3ED43844
:10341A00F60000300A168A15D1200A168A152B2AB8
:10342A007C08FA00FB017B08003A03191D2A2B2AA3
:10343A007A08013A0319E929033A0319F429013AE6
:10344A000319FF29073A03190A2A2B2A0800003010
:10345A007005F80000307105F90080307205FA0035
:10346A007F307305FB007B087A0479047804031D16
:10347A003F2A402A482A0030F3000030F200003088
:10348A00F1000030F00000307405F80000307505D6
:10349A00F90080307605FA007F307705FB007B085B
:1034AA007A0479047804031D5B2A5C2A642A0030B2
:1034BA00F7000030F6000030F5000030F40077081D
:1034CA007306031D722A76087206031D722A75088E
:1034DA007106031D722A740870060319752A762A62
:1034EA00782A0310792A03140800F400721C7E2A31
:1034FA007F2A832A75081038F500862A7508EF395D
:10350A00F500F21C892A8A2A8E2A75082038F500C5
:10351A00912A7508DF39F500721D942A952A992A8D
:10352A0075084038F5009C2A7508BF39F500F21D68
:10353A009F2AA02AA42A75088038F500A72A7508A8
:10354A007F39F5002730F300F30BA92AAC2A74035C
:10355A00031DB02AB12AB52A75080138F500B82A20
:10356A007508FE39F500750804380A168A159F2071
:10357A000A168A15C02AC12A7508FB390A168A153D
:10358A009F200A168A1508007308720471047004D1
:10359A000319D02AD12A142BF901F90AE12A013098
:1035AA00F8000310F00DF10DF20DF30DF80BD62A09
:1035BA000130F8007808F907F31FE42AE52AD42A2B
:1035CA0073087702031DF32A72087602031DF32A91
:1035DA0071087502031DF32A70087402031CF62A87
:1035EA00F72A052B7008F4027108031C710FF50203
:1035FA007208031C720FF6027308031C730FF7029A
:10360A0001300310F30CF20CF10CF00CFF3E031D19
:10361A00062B0130F902031D132B142BE52A770818
:10362A00F3007608F2007508F1007408F00008004B
:10363A00F601F31F212B222B292BF209F309F20A97
:10364A000319F30AF601F60AF11F2C2B2D2B322B44
:10365A00F009F109F00A0319F10A70087104031953
:10366A00372B382B672BF501F50A462B013003104F
:10367A00F00DF10DFF3E031D3C2B0130F4007408E0
:10368A00F507F11F492B4A2B3B2B71087302031DC7
:10369A00502B70087202031C532B542B5A2B7008A0
:1036AA00F2027108031CF303F30201300310F10C58
:1036BA00F00CFF3E031D5B2B0130F502031D662B48
:1036CA00672B4A2B760803196B2B6C2B712BF2098B
:1036DA00F309F20A0319F30A7308F1007208F000F9
:1036EA0008000030FC000030FB000030FA00003017
:1036FA00F90073087204710470040319852B862B70
:10370A00D32BFD01FD0A962B0130F8000310F00DB2
:10371A00F10DF20DF30DF80B8B2B0130F800780840
:10372A00FD07F31F992B9A2B892B0130F800031000
:10373A00F90DFA0DFB0DFC0DF80B9C2B73087702A3
:10374A00031DB12B72087602031DB12B7108750295
:10375A00031DB12B70087402031CB42BB52BC42BA8
:10376A007008F4027108031C710FF5027208031C39
:10377A00720FF6027308031C730FF70279140130F3
:10378A000310F30CF20CF10CF00CFF3E031DC52BD9
:10379A000130FD02031DD22BD32B9A2B7C08F30098
:1037AA007B08F2007A08F1007908F0000800831219
:1037BA000313A101F81FE22BE32BEA2BF709F809FF
:1037CA00F70A0319F80AA101A10AFA1FED2BEE2B39
:1037DA00F72BF909FA09F90A0319FA0A0130FB0069
:1037EA007B08A106A201A301770878040319FE2B1E
:1037FA00FF2B362CA001A00A0D2C01300310F70D67
:10380A00F80DFF3E031D032C0130FB007B08A007C7
:10381A00F81F102C112C022C01300310A20DA30D3D
:10382A00FF3E031D122C78087A02031D1E2C77080E
:10383A007902031C212C222C292C7708F9027808FA
:10384A00031CFA03FA02221401300310F80CF70CD5
:10385A00FF3E031D2A2C0130A002031D352C362CF5
:10386A00112C210803193A2C3B2C402CA209A3093C
:10387A00A20A0319A30A2308F8002208F70008007D
:10388A000A168A155D200A168A154E300A168A15F6
:10389A0091200A168A1500300A168A1591200A16EE
:1038AA008A150A168A1567200A168A152730FA0019
:1038BA00F530F900F90B5F2CFA0B5F2CFB01033092
:1038CA00F60000300A168A15D1200A168A150D301C
:1038DA00FA00FB30F900F90B702CFA0B702C752CDE
:1038EA000130F9007908FB0703307B02031C7E2CA8
:1038FA007F2C642C0230F60000300A168A15D1207B
:10390A000A168A152830F60000300A168A15D120C0
:10391A000A168A150D30FA00FB30F900F90B932CC0
:10392A00FA0B932C982C0830F60000300A168A15E8
:10393A00D1200A168A150D30FA00FB30F900F90B6E
:10394A00A42CFA0BA42CA92CF601F60A00300A16AC
:10395A008A15D1200A168A150D30FA00FB30F900B3
:10396A00F90BB52CFA0BB52CBA2C0630F600003040
:10397A000A168A15D1200A168A150D30FA00FB306C
:10398A00F900F90BC62CFA0BC62CCB2C0C30F6001E
:10399A0000300A168A15D1200A168A150800003046
:1039AA007005F80000307105F90080307205FA00E0
:1039BA007F307305FB007B087A0479047804031DC1
:1039CA00E72CE82CF02C0030F3000030F200003035
:1039DA00F1000030F00000307405F8000030750581
:1039EA00F90080307605FA007F307705FB007B0806
:1039FA007A0479047804031D032D042D0C2D00305C
:103A0A00F7000030F6000030F5000030F400F31F34
:103A1A000F2D102D342D0030F8000030F900003041
:103A2A00FA008030FB007008F8027108031C710F5D
:103A3A001F2D202DF9027208031C720F252D262D29
:103A4A00FA027308031C730F2B2D2C2DFB027B0823
:103A5A00F3007A08F2007908F1007808F000F71FFD
:103A6A00372D382D5C2D0030F8000030F900003079
:103A7A00FA008030FB007408F8027508031C750F01
:103A8A00472D482DF9027608031C760F4D2D4E2D31
:103A9A00FA027708031C770F532D542DFB027B087B
:103AAA00F7007A08F6007908F5007808F400803003
:103ABA00F3068030F70677087302031D6E2D760829
:103ACA007202031D6E2D75087102031D6E2D740896
:103ADA0070020318712D722D742D0310752D0314A5
:103AEA0008007008F8007108F9007208FA0003105B
:103AFA00790D7A0D83120313A5002508031D862D5F
:103B0A00872D902D0030F3000030F2000030F100D4
:103B1A000030F0002C2E7408F8007508F9007608B9
:103B2A00FA000310790D7A0DA4002408031D9E2DB6
:103B3A009F2DA02D872DF117FF30F005FF30F105DD
:103B4A000030F205F517FF30F405FF30F5050030B7
:103B5A00F6050030A3000030A2000030A1000030BA
:103B6A00A0007F30A50298302407F8007808A50243
:103B7A001830A4000130F8000310A00DA10DA20D09
:103B8A00A30DF80BC12D76087202031DD22D7508FC
:103B9A007102031DD22D74087002031CD52DD62D77
:103BAA00E12D7408F0027508031C750FF1027608FE
:103BBA00031C760AF202201401300310F00DF10DF5
:103BCA00F20DFF3E031DE22D0130A402031DEE2D6E
:103BDA00EF2DBF2DA51FF22DF32D0D2E2508803AAE
:103BEA00973E0318F92DFA2DFB2D872D013003106E
:103BFA00A30CA20CA10CA00CFF3E031DFC2D01304E
:103C0A00F8007808A507031D0B2E0C2EFB2D242E79
:103C1A0018302502031C122E132E1F2E872D013059
:103C2A00F8000310A00DA10DA20DA30DF80B162E7E
:103C3A000130A5022508031D232E242E142E230845
:103C4A00F3002208F2002108F1002008F000080021
:103C5A008312031345088039CF004508C60046077A
:103C6A00D600C41F392E3A2E3B2E56145608031975
:103C7A003F2E402E502E560A031D442E452E4D2E01
:103C8A000030C5000030C4000030C3000030C2005C
:103C9A00C417C501582E0030C5000030C4000030DA
:103CAA00C3000030C20041088039C6004608CF066A
:103CBA004108C6004607D700C01F642E652E662E2F
:103CCA005714570803196A2E6B2E7B2E570A031DA9
:103CDA006F2E702E782E0030C1000030C0000030E8
:103CEA00BF000030BE00C017C101832E0030C100E2
:103CFA000030C0000030BF000030BE004108400460
:103D0A003F043E04031D8A2E8B2EA42E0030C500CC
:103D1A000030C4000030C3000030C2008030C40448
:103D2A007F30C5044F08C6004608C5044508C100CF
:103D3A004408C0004308BF004208BE00FF2F5608CF
:103D4A00031DA82EA92EB22E0030C1000030C000DB
:103D5A000030BF000030BE00FF2F5608C600C70162
:103D6A004708C90057084602C800031CC903480887
:103D7A007F3ED00049080318013E003ED1004508A5
:103D8A00CE004408CD004308CC004208CB000030E6
:103D9A00C5000030C4000030C3000030C20000304B
:103DAA00D5000030D4000030D3000030D200D70153
:103DBA00282F57080319E22EE32E032F0130C600DD
:103DCA000310CB0DCC0DCD0DCE0DC60BE52E01305B
:103DDA00C6000310C20DC30DC40DC50DC60BEE2ED1
:103DEA00D51FF82EF92EFA2E42140130C600031000
:103DFA00D20DD30DD40DD50DC60BFC2E41084E02A3
:103E0A00031D112F40084D02031D112F3F084C02BC
:103E1A00031D112F3E084B02031C142F152F242FAC
:103E2A0055173E08CB023F08031C3F0FCC0240083F
:103E3A00031C400FCD024108031C410FCE02013082
:103E4A00C6004608D7071A305702031C2D2F2E2FFB
:103E5A00DE2E4E084D044C044B040319352F362F21
:103E6A00552F5214552F0130C6000310C20DC30D31
:103E7A00C40DC50DC60B3A2FD51F442F452F462F0B
:103E8A0042140130C6000310D20DD30DD40DD50D46
:103E9A00C60B482FFF30D0070318D10AFF30D107CD
:103EAA00C41F582F592F382FD701D51F5D2F5E2FCA
:103EBA007A2FFF305205C600FF305305C700FF3086
:103ECA005405C8007F305505C9004908480447040D
:103EDA0046040319712F722F752FD701D70A7A2F2B
:103EEA00421C782F792F7A2F722F570803197E2FA9
:103EFA007F2FB02F0130C207003003180130C307EB
:103F0A00003003180130C407003003180130C50718
:103F1A00451C902F912FB02F4208C6004308C700B6
:103F2A004408C8004508C9000130CA00490DC90C37
:103F3A00C80CC70CC60CCA0B9B2F4908C5004808F9
:103F4A00C4004708C3004608C2000130D00703185E
:103F5A00D10A0030D1075108803AFF0080307F0231
:103F6A00031DB92FFF305002031CBC2FBD2FCB2FCE
:103F7A00FF3083120313D0000030D1000030C50097
:103F8A000030C4000030C3000030C20083120313A3
:103F9A005108803AFF0080307F02031DD62F01307E
:103FAA0050020318D92FDA2FE72F83120313D001F7
:103FBA00D1010030C5000030C4000030C300003019
:103FCA00C200CF01831203135008D600561CEE2FED
:103FDA00EF2FF12FC417F52F7F30C6004608C4050E
:103FEA005608C6000310460CC5004F08C60046080E
:0E3FFA00C5049B2E0800FF3FFF3FFF3FFF3F27
:04400E00D420FF3F7C
:00000001FF
