:060000000A128A110C280F
:10000800FE00030EF2000A08F3000A128A111C28E7
:100018000A128A110F28F801F901FA018312031351
:10002800A001A101A201A30183010A128A11A72834
:10003800831203138C1D212822286C281412141BE8
:10004800262827282B28941F2A282B2830281308ED
:10005800F90014139413141683160313941A3528ED
:1000680036285028141939283A285028831203139F
:100078001308F9008C11141683160313141C452851
:10008800462840288312031313088600A630F1007F
:10009800F10B4C2800006928941A53285428692821
:1000A800141D5728582869287A080A128A1101212C
:1000B8000A128A11A630F100F10B6028000083169D
:1000C80003131418682869286328831203138C11F2
:1000D80073088A00720E8300FE0E7E0E090001303E
:1000E80083160317880089018316031305148601F4
:1000F800880183120313860188018316031389017B
:1001080083120313890101300A128A11E8200A12A6
:100118008A11C330831203139F054230F600F60B91
:1001280093280000831203139F147030831603135F
:100138008F040F148B170B17831203138C1183165C
:1001480003138C1508000A128A1173200A128A11E7
:1001580060300A128A11CE200A128A118312031300
:100168009F18B728B828C1281E08FA002130F700C0
:10017800F70BBC28831203139F1464307A02031C04
:10018800C628C728C9280814B2280810B2280A1295
:100198008A110C28F400831603138715071680307C
:1001A80094007408930036308312031394000130CE
:1001B8008316031391008B170B17831203138C11EB
:1001C800831603138C150800F500831203131F0808
:1001D8003F3980389F00750C031C1F1003181F142B
:1001E800831603139F131F129F122130F400F40B80
:1001F800FB28831203139F140800F00083120313D3
:100208001308831603131410700883120313930042
:100218001416831603131418122913290D2908001C
:08400000FF3FFF3FFF3FFF3FC0
:04400E00D420FF3F7C
:00000001FF
