:060000000A128A11E72F2D
:1000080000307005F80000307105F9008030720585
:10001800FA007F307305FB007B087A0479047804C2
:10002800031D1728182820280030F3000030F2009C
:100038000030F1000030F00000307405F8000030A6
:100048007505F90080307605FA007F307705FB00EA
:100058007B087A0479047804031D332834283C2863
:100068000030F7000030F6000030F5000030F400F2
:1000780077087306031D4A2876087206031D4A2866
:1000880075087106031D4A287408700603194D285F
:100098004E28502803105128031408008316031310
:1000A8003C0883120313E500831603133B088312ED
:1000B8000313E400831603133A0883120313E300BF
:1000C80083160313390883120313E20083160313FC
:1000D800400883120313E900831603133F088312B1
:1000E8000313E800831603133E0883120313E70083
:1000F800831603133D0883120313E6000A168A15B4
:10010800FB210A128A11831203136508831603134D
:10011800A30083120313640883160313A200831237
:100128000313630883160313A100831203136208E1
:1001380083160313A000440883120313E5008316F3
:100148000313430883120313E400831603134208BE
:1001580083120313E3008316031341088312031366
:10016800E20083160313480883120313E900831679
:100178000313470883120313E80083160313460882
:1001880083120313E700831603134508831203132E
:10019800E6000A168A15FB210A128A118312031334
:1001A8006508A3006408A2006308A1006208A00013
:1001B800831603133C0883120313E5008316031305
:1001C8003B0883120313E400831603133A088312CF
:1001D8000313E30083160313390883120313E200A1
:1001E80083160313380883120313E90083160313D5
:1001F800370883120313E8008316031336088312A3
:100208000313E70083160313350883120313E6006C
:100218000A168A15FB210A128A118312031365082C
:10022800A7006408A6006308A5006208A4000A12D3
:100238008A155C210A128A11831203132308831674
:100248000313A70083120313220883160313A600BF
:1002580083120313210883160313A50083120313C3
:10026800200883160313A4000A168A1112210A1201
:100278008A11831603132308CC002208CB00210817
:10028800CA002008C900440883120313D10083164A
:100298000313430883120313D00083160313420881
:1002A80083120313CF008316031341088312031329
:1002B800CE00831603134C0883120313D50083164C
:1002C80003134B0883120313D400831603134A083D
:1002D80083120313D30083160313490883120313ED
:1002E800D2000A168A114B230A128A1183120313A9
:1002F800510883160313B80083120313500883169A
:100308000313B700831203134F0883160313B600B1
:10031800831203134E0883160313B50008008316CF
:100328000313B6006B30A900CE2F25303D06031904
:100338009E299F29A929360884003D088317800033
:100348000130FF007F08B607CE2FAA01AB01831248
:1003580003136A0884000A168A150A200A128A11E9
:100368002E3A031DB829B9290B2A831603132B1714
:100378000130FF007F0883120313EA078316031373
:10038800B701B801F9290A30F0000030F1008316EE
:1003980003133808F3003708F2000A168A154322B7
:1003A8000A128A11710883160313B8007008B7007F
:1003B800831203136A0884000A168A150A200A128F
:1003C8008A11D03E83160313A000FF3003180030B3
:1003D800A1002008B7070318B80A2108B807013098
:1003E800FF007F0883120313EA0783126A08840058
:1003F8000A168A150A200A128A110A168A158721EE
:100408000A128A110318092A0A2AC729132A8316E5
:100418000313B701B8012B16132A2B15312A013003
:1004280083120313EA07FF306A0784000A168A1545
:100438000A200A128A1183160313BD00A000A10125
:100448002108003A0319292ACE2F2008003A031957
:10045800E22F663A0319112ACE2F00302A05A00090
:1004680007302B05A1002008210403193C2A3D2A46
:100478008B2F2B1E402A412A452A0630B700003010
:10048800B8002908840083130008B900840A00080A
:10049800BA00840A0008BB00840A0008BC000430C3
:1004A800FF007F08A9073C08F3003B08F2003A0860
:1004B800F1003908F0000030F7000030F600003095
:1004C800F5000030F4000A128A1502200A128A1177
:1004D80003186F2A702A8D2A831603133C08F30029
:1004E8003B08F2003A08F1003908F0000A168A15AC
:1004F8007C210A128A11730883160313BC00720840
:10050800BB007108BA007008B9000330AA040030B3
:10051800AB0483160313B001B1013C08F3003B0898
:10052800F2003A08F1003908F0000030F700003016
:10053800F6000030F5000030F4000A128A11042099
:100548000A128A110318A92AAA2A9A2B03108316B9
:1005580003133B0D3C0D823EB000FF300318003002
:10056800B100FF30B0070318B10AFF30B1070330FC
:10057800F0000030F1003108F3003008F2000A16EC
:100588008A1543220A128A11710883160313B100CF
:100598007008B0000A30F0000030F1003108F300B4
:1005A8003008F2000A168A155F240A128A117108A7
:1005B80083160313B1007008B000B11FE42AE52ABE
:1005C800EB2AFF30B0070318B10AFF30B107300338
:1005D800FF3A0A128A15A1240A128A1183120313F8
:1005E8003D0883160313B500831203133C088316D2
:1005F8000313B400831203133B0883160313B300D9
:10060800831203133A0883160313B2003C088312BB
:100618000313A300831603133B0883120313A200DA
:10062800831603133A0883120313A10083160313D6
:10063800390883120313A0008316031335088312A5
:100648000313A70083160313340883120313A600A9
:1006580083160313330883120313A50083160313A9
:10066800320883120313A4000A128A155C210A12A5
:100678008A1183120313230883160313B500831208
:100688000313220883160313B400831203132108EB
:1006980083160313B300831203132008831603136E
:1006A800B2003508F3003408F2003308F1003208CC
:1006B800F0003F30F7008030F6000030F5000030E1
:1006C800F4000A128A1502200A128A1103186D2BE7
:1006D8006E2B772BFF3083160313B0070318B10A6C
:1006E800FF30B1079A2B831603133508F30034083B
:1006F800F2003308F1003208F0004130F7002030F2
:10070800F6000030F5000030F4000A128A150220C5
:100718000A128A11031C912B922B9A2B01308316F3
:100728000313B0070318B10A0030B1078316031387
:100738003808803AFF0080307F02031DA52B0D305A
:1007480037020318A82BA92BF02B8316031337089D
:100758000A168A15F5250A128A11831203133D0811
:10076800D1003C08D0003B08CF003A08CE008316E1
:1007780003133C0883120313D500831603133B08A5
:1007880083120313D400831603133A088312031346
:10079800D30083160313390883120313D2000A16F1
:1007A8008A114B230A128A118312031351088316E4
:1007B8000313BC0083120313500883160313BB00F2
:1007C800831203134F0883160313BA00831203130B
:1007D8004E0883160313B900831603133108803AB1
:1007E800FF0080307F02031DFB2B0A303002031804
:1007F800FE2BFF2B502C831603133C08F3003B08F9
:10080800F2003A08F1003908F0000030F700003033
:10081800F6000030F5000030F4000A128A110420B6
:100828000A128A110318192C1A2CC22C83160313C6
:100838003C0883120313D000831603133B0883126A
:100848000313CF00831603133A0883120313CE0051
:1008580083160313390883120313CD000A168A1569
:10086800C6240A128A118312031350084F044E0437
:100878004D04031D402C412CC22C83160313310850
:10088800803AFF0080307F02031D4C2C023030027A
:10089800031C4F2C502CC22C831603133508F3006D
:1008A8003408F2003308F1003208F0004030F70055
:1008B8008930F6007030F5005F30F4000A128A15AE
:1008C80002200A128A1103186A2C6B2C742CF73038
:1008D80083160313B0070318B10AFF30B1077C2C45
:1008E800F83083160313B0070318B10AFF30B107B5
:1008F80030080A128A15A1240A128A1183120313D6
:100908003D0883160313B500831203133C088316AE
:100918000313B400831203133B0883160313B300B5
:10092800831203133A0883160313B2003C08F3003A
:100938003B08F2003A08F1003908F0003508F700E2
:100948003408F6003308F5003208F4000A128A1554
:10095800A4200A128A11730883160313AF007208C1
:10096800AE007108AD007008AC000030BC0000306B
:10097800BB000030BA000030B900462D83160313BF
:100988003C0883120313D000831603133B08831219
:100998000313CF00831603133A0883120313CE0000
:1009A80083160313390883120313CD000A168A1518
:1009B800C6240A128A1183120313500883160313DC
:1009C800AF00831203134F0883160313AE0083127C
:1009D80003134E0883160313AD00831203134D0847
:1009E80083160313AC002F08F3002E08F2002D081D
:1009F800F1002C08F00000300A168A115A200A1259
:100A08008A11730883120313E5007208E400710861
:100A1800E3007008E200831603133C0883120313F3
:100A2800E900831603133B0883120313E8008316B7
:100A380003133A0883120313E700831603133908D4
:100A480083120313E6000A168A15FB210A128A117B
:100A580083120313650883160313BC008312031360
:100A6800640883160313BB008312031363088316F9
:100A78000313BA0083120313620883160313B90021
:100A8800B001B101BD01BD0A3D08A000013003104D
:100A9800A00DFF3E031D4B2D0310200D693E840061
:100AA8000A168A150A200A128A11A1000A168A153E
:100AB8000A200A128A11A2000A168A150A200A12A6
:100AC8008A11A3000A168A150A200A128A11A4009C
:100AD80024082F02031D7A2D23082E02031D7A2DC8
:100AE80022082D02031D7A2D21082C0203187D2DC2
:100AF8007E2D7F2D892D0130FF007F08BD070A302C
:100B08003D06031D882D892D482D03302A05A00098
:100B180000302B05A100200821040319942D952DE0
:100B2800002E360884002D30831780000130FF0026
:100B38007F08B607002E3D08A00001300310A00D65
:100B4800FF3E031DA22D0310200D693E84000A16E6
:100B58008A150A200A128A11F0000A168A150A2034
:100B68000A128A11F1000A168A150A200A128A1135
:100B7800F2000A168A150A200A128A11F3002F08B1
:100B8800F7002E08F6002D08F5002C08F4000A16C8
:100B98008A15F9230A128A11730883160313B500FC
:100BA8007208B4007108B3007008B2000030F30096
:100BB8000030F2000030F1000A30F0003508F7008C
:100BC8003408F6003308F5003208F4000A168A15CE
:100BD8004F230A128A11730883160313B50072088B
:100BE800B4007108B3007008B200360884003208F7
:100BF800303E831780009A2D0130BD023D0A031D47
:100C0800062E072E9F2D192E8316031336088400EF
:100C18003030831780000130FF007F08B607FF30AF
:100C2800B0070318B10AFF30B1073108803AFF0056
:100C380080307F02031D222E013030020318252E3A
:100C4800262E082E831603133808803AFF008030BA
:100C58007F02031D312E09303702031C342E352E36
:100C68003A2E083083160313BD003E2E8316031355
:100C78003708BD003D08A000A1012008B7022108DF
:100C8800031CB803B8023D0803194B2E4C2E552EF1
:100C9800360884002E30831780000130FF007F085B
:100CA800B6073D080A128A15A1240A128A1183126E
:100CB80003133D0883160313A800831203133C088B
:100CC80083160313A700831203133B088316031329
:100CD800A600831203133A0883160313A5002808F5
:100CE80083120313A7008316031327088312031321
:100CF800A60083160313260883120313A500831680
:100D08000313250883120313A400831603133C0856
:100D180083120313A300831603133B0883120313E0
:100D2800A200831603133A0883120313A100831643
:100D38000313390883120313A0000A128A155C21D1
:100D48000A128A11831203132308D0002208CF0045
:100D58002108CE002008CD000A168A15C6240A12DA
:100D68008A1183120313500883160313AF008312EA
:100D780003134F0883160313AE00831203134E08A0
:100D880083160313AD00831203134D088316031350
:100D9800AC006D2F3D08A00001300310A00DFF3EF0
:100DA800031DD12E0310200D693E84000A168A15F2
:100DB8000A200A128A11F0000A168A150A200A1255
:100DC8008A11F1000A168A150A200A128A11F200FD
:100DD8000A168A150A200A128A11F3002F08F7004A
:100DE8002E08F6002D08F5002C08F4000A168A15BE
:100DF800F9230A128A11730883160313B5007208BF
:100E0800B4007108B3007008B2000030F30000307D
:100E1800F2000030F1000A30F0003508F70034081D
:100E2800F6003308F5003208F4000A168A154F2335
:100E38000A128A11730883160313B5007208B400E6
:100E48007108B3007008B200360884003208303EDA
:100E5800831780000130FF007F08B6073D08A00017
:100E680001300310A00DFF3E031D352F0310200D88
:100E7800693E84000A168A150A200A128A11F000AF
:100E88000A168A150A200A128A11F1000A168A150A
:100E98000A200A128A11F2000A168A150A200A1272
:100EA8008A11F3002F08F7002E08F6002D08F50028
:100EB8002C08F4000A168A154F230A128A1173089F
:100EC80083160313AF007208AE007108AD007008F6
:100ED800AC000130BD023D0A031D732F742FCE2EC6
:100EE800842F360884003030831780000130FF00DB
:100EF8007F08B607FF30B7070318B80AFF30B807EE
:100F080037083804031D892F8A2F752FCE2F3708ED
:100F18003804031D902F912F9F2F2F082E042D0486
:100F28002C04031D982F992F9F2F0130B707031802
:100F3800B80A0030B8073808803A803C031DA62F4D
:100F480037083D020318A92FAA2FAB2FBA2F8316F3
:100F580003133808803AA00080302002031DB62F02
:100F68003D0837020318B92FBA2FBA2F033083165A
:100F780003132A05A00000302B05A1002008210436
:100F88000319C72FC82FCE2F360884002D3083179A
:100F98008000A429013083120313EA07FF306A078F
:100FA80084000A168A150A200A128A118316031366
:100FB800BD003D08031DE12FE22F99293608840062
:100FC80083178001080083120313EF018313D130C4
:100FD8008400E5300A168A156B210A128A118317D4
:100FE80090308400CC300A168A156B210A128A11B7
:080FF80083010A168A11A32DE2
:1010040000307005F80000307105F9008030720579
:10101400FA007F307305FB007B087A0479047804B6
:10102400031D152816281E280030F3000030F20096
:101034000030F1000030F00000307405F80000309A
:101044007505F90080307605FA007F307705FB00DE
:101054007B087A0479047804031D312832283A285D
:101064000030F7000030F6000030F5000030F400E6
:10107400F31F3D283E2862280030F8000030F900B4
:101084000030FA008030FB007008F8027108031C7D
:10109400710F4D284E28F9027208031C720F532851
:1010A4005428FA027308031C730F59285A28FB02A8
:1010B4007B08F3007A08F2007908F1007808F00060
:1010C400F71F652866288A280030F8000030F900E8
:1010D4000030FA008030FB007408F8027508031C25
:1010E400750F75287628F9027608031C760F7B287D
:1010F4007C28FA027708031C770F81288228FB02D8
:101104007B08F7007A08F6007908F5007808F400FF
:101114008030F3068030F70677087302031D9C289D
:1011240076087202031D9C2875087102031D9C2811
:101134007408700203189F28A028A2280310A3286B
:10114400031408000310720D730D83120313A5001A
:101154002508031DAE28AF28B8280030F30000305E
:10116400F2000030F1000030F0005B290310760D2E
:10117400770DA4002408031DC028C128C228AF2865
:10118400F217FF30F005FF30F105FF30F2050030B3
:10119400F305F617FF30F405FF30F505FF30F605CB
:1011A4000030F7050030A3000030A2000030A10099
:1011B4000030A0007F30A502A0302407F800780892
:1011C400A5022030A4000130F8000310A00DA10DE9
:1011D400A20DA30DF80BE72877087302031DFC2862
:1011E40076087202031DFC2875087102031DFC2891
:1011F40074087002031CFF2800290F297408F002E8
:101204007508031C750FF1027608031C760FF202B1
:101214007708031C770FF30220140130F800031041
:10122400F00DF10DF20DF30DF80B11290130A402AC
:10123400031D1D291E29E528A51F212922293C2932
:101244002508803A9F3E0318282929292A29AF28EE
:1012540001300310A30CA20CA10CA00CFF3E031D33
:101264002B290130FF007F08A507031D3A293B29DC
:101274002A29532920302502031C412942294E29B9
:10128400AF280130F8000310A00DA10DA20DA30D8D
:10129400F80B45290130A5022508031D52295329BD
:1012A40043292308F3002208F2002108F100200852
:1012B400F00008008312031323088039AD002308CB
:1012C400A8002807B300A21F682969296A293314D2
:1012D400330803196E296F297E29330A031D7329E4
:1012E40074297C290030A3000030A2000030A10042
:1012F4000030A000A21786290030A3000030A2000D
:101304000030A1000030A00027088039FF007F08CA
:10131400AD062708A8002807B200A61F9229932922
:10132400942932143208031998299929A829320AD0
:10133400031D9D299E29A6290030A7000030A60080
:101344000030A5000030A400A617B0290030A70083
:101354000030A6000030A5000030A40032080319B4
:10136400B429B529BA293308031DB929BA29C329CF
:101374000030A3000030A2000030A1000030A00023
:10138400A02C2008F00026080A168A1568220A12E2
:101394008A15710883120313B9007008B80038085D
:1013A400A800A901AA01AB012B08B1002A08B000CA
:1013B4002908AF002808AE003908A800A901AA012D
:1013C400AB012B08B7002A08B6002908B500280885
:1013D400B4002108F00025080A168A1568220A12AA
:1013E4008A15710883120313B9007008B80038080D
:1013F400A800A901AA01AB012808AE072908031116
:101404000318013E0319072AAF072A08031103181A
:10141400013E03190E2AB0072B0803110318013EDD
:101424000319152AB1073908A800A901AA01AB01BB
:101434002808B407290803110318013E0319232AB5
:10144400B5072A0803110318013E03192A2AB6070F
:101454002B0803110318013E0319312AB707220888
:10146400F00024080A168A1568220A128A157108DF
:1014740083120313B9007008B8003808A800A90142
:10148400AA01AB012808AE07290803110318013E7D
:1014940003194D2AAF072A0803110318013E031943
:1014A400542AB0072B0803110318013E03195B2AC1
:1014B400B1073908A800A901AA01AB012808B4079B
:1014C400290803110318013E0319692AB5072A08DC
:1014D40003110318013E0319702AB6072B080311E0
:1014E4000318013E0319772AB7070830A800031030
:1014F400AE0DAF0DB00DB10DA80B792A2108F00087
:1015040024080A168A1568220A128A157108831299
:101514000313B9007008B8003808A8003908A900F6
:10152400AA01AB012808AE07290803110318013EDC
:1015340003199D2AAF072A0803110318013E031952
:10154400A42AB0072B0803110318013E0319AB2A80
:10155400B1072008F00025080A168A1568220A1225
:101564008A15710883120313B9007008B80038088B
:10157400A8003908A900AA01AB012808AE07290868
:1015840003110318013E0319C82AAF072A080311DF
:101594000318013E0319CF2AB0072B0803110318BF
:1015A400013E0319D62AB1070830A8000310AE0D76
:1015B400AF0DB00DB10DA80BD82A2008F0002408F7
:1015C4000A168A1568220A128A15710883120313EF
:1015D400B9007008B8003808A8003908A900AA01A1
:1015E400AB012808AE07290803110318013E0319AB
:1015F400FC2AAF072A0803110318013E0319032B21
:10160400B0072B0803110318013E03190A2BB10775
:101614002108F00026080A168A1568220A128A157B
:10162400710883120313B9007008B8003808A800C1
:101634003908A900AA01AB012808B4072908031135
:101644000318013E0319272BB5072A0803110318B1
:10165400013E03192E2BB6072B0803110318013E74
:101664000319352BB7072208F00025080A168A1536
:1016740068220A128A15710883120313B9007008CC
:10168400B8003808A8003908A900AA01AB01280845
:10169400B407290803110318013E0319522BB50797
:1016A4002A0803110318013E0319592BB6072B0806
:1016B40003110318013E0319602BB7072208F00039
:1016C40026080A168A1568220A128A1571088312D6
:1016D4000313B9007008B8003808A8003908A90035
:1016E400AA01AB0108300310A80DA90DAA0DAB0D7A
:1016F400FF3E031D752B2808B4072908031103189E
:10170400013E0319862BB5072A0803110318013E6D
:1017140003198D2BB6072B0803110318013E031977
:10172400942BB7072E08A8002F08A9003008AA0098
:101734003108AB0018300310AB0CAA0CA90CA80C90
:10174400FF3E031D9D2B2808B40729080311031825
:10175400013E0319AE2BB5072A0803110318013EF5
:101764000319B52BB6072B0803110318013E0319FF
:10177400BC2BB7070830A8000310AE0DAF0DB00D99
:10178400B10DA80BBE2B33083207A800A901A90D7F
:101794002808823EB80029080318013EFF3EB9001C
:1017A400F02B0130A8000310B40DB50DB60DB70D24
:1017B400A80BD52BB11FDF2BE02BE12B3414013008
:1017C400A8000310AE0DAF0DB00DB10DA80BE32BA7
:1017D400FF30B8070318B90AFF30B907B61FF32B57
:1017E400F42BD32BB201B11FF82BF92B152CFF309E
:1017F4002E05A800FF302F05A900FF303005AA00F0
:101804007F303105AB002B082A042904280403196E
:101814000C2C0D2C102CB201B20A152C341C132CD8
:10182400142C152C0D2C32080319192C1A2C4B2CA2
:101834000130B407003003180130B5070030031835
:101844000130B607003003180130B707371C2B2CC2
:101854002C2C4B2C3408A8003508A9003608AA0003
:101864003708AB000130AC002B0DAB0CAA0CA90C53
:10187400A80CAC0B362C2B08B7002A08B600290894
:10188400B5002808B4000130B8070318B90A0030BD
:10189400B9073908803AFF0080307F02031D542CB9
:1018A400FF303802031C572C582C632C7F308312D2
:1018B4000313B7008030B6000030B5000030B40028
:1018C400942C831203133908803AFF0080307F027E
:1018D400031D6E2C013038020318712C722C7E2CDF
:1018E400003083120313B7000030B6000030B50097
:1018F4000030B400AD01942C831203133808B300F4
:10190400FF30B405FF30B5057F30B6050030B705AC
:10191400331C8D2C8E2C8F2CB6173308A800031083
:10192400280CB7002D08FF007F08B7043708A30070
:101934003608A2003508A1003408A000080083126C
:101944000313CC00CC1FA72CA82C552ECC09CC0AF1
:101954004C08803A123E031CB02CB12C992D0A304D
:10196400F0000030F1004C08FA00FB01FA1BFB0305
:101974006430F8000030F9000A168A1101200A12B6
:101984008A157908F3007808F2000A168A155F248C
:101994000A128A15700883120313BE000130031063
:1019A400BE0DFF3E031DD12C03103E0D593E840095
:1019B4000A168A150A200A128A15BF000A168A1501
:1019C4000A200A128A15C0000A168A150A200A1269
:1019D4008A15C1000A168A150A200A128A15C2003D
:1019E4004208A3004108A2004008A1003F08A0004B
:1019F4006430F0000030F1004C08F200F301F21BF7
:101A0400F3030A168A155F240A128A1570088312D2
:101A14000313C30001300310C30DFF3E031D0D2D3E
:101A24000310430D7D3E84000A168A150A200A120B
:101A34008A15C4000A168A150A200A128A15C500D6
:101A44000A168A150A200A128A15C6000A168A1569
:101A54000A200A128A15C7004708A7004608A600EC
:101A64004508A5004408A4000A128A155C210A123C
:101A74008A15831203132308CB002208CA00210805
:101A8400C9002008C8000A30F8000030F9004C08EA
:101A9400FA00FB01FA1BFB030A168A1101200A1241
:101AA4008A15780883120313BE0001300310BE0D9B
:101AB400FF3E031D582D03103E0D353E84000A16CB
:101AC4008A150A200A128A15BF000A168A150A20E6
:101AD4000A128A15C0000A168A150A200A128A15E3
:101AE400C1000A168A150A200A128A15C200420881
:101AF400A3004108A2004008A1003F08A0004B0831
:101B0400A7004A08A6004908A5004808A4000A122C
:101B14008A155C210A128A15831203132308BD0057
:101B24002208BC002108BB002008BA00FF2F4C0883
:101B3400803A753E031C9F2DA02D282E0A30F800F4
:101B44000030F9004C08FA00FB01FA1BFB030A16EB
:101B54008A1101200A128A15780883120313BE0021
:101B640001300310BE0DFF3E031DB32D03103E0DC7
:101B7400353E84000A168A150A200A128A15BF0007
:101B84000A168A150A200A128A15C0000A168A152E
:101B94000A200A128A15C1000A168A150A200A1296
:101BA4008A15C2004208A3004108A2004008A1000F
:101BB4003F08A0000A30F0000030F1004C08F200A9
:101BC400F301F21BF3030A168A155F240A128A151D
:101BD400700883120313C30001300310C30DFF3ECA
:101BE400031DEF2D0310430D593E84000A168A1578
:101BF4000A200A128A15C4000A168A150A200A1233
:101C04008A15C5000A168A150A200A128A15C60002
:101C14000A168A150A200A128A15C7004708A7005F
:101C24004608A6004508A5004408A4000A128A151F
:101C34005C210A128A15831203132308BD002208AB
:101C4400BC002108BB002008BA00FF2F4C08BE00CE
:101C540001300310BE0DFF3E031D2B2E03103E0D5D
:101C6400353E84000A168A150A200A128A15BF0016
:101C74000A168A150A200A128A15C0000A168A153D
:101C84000A200A128A15C1000A168A150A200A12A5
:101C94008A15C2004208BD004108BC004008BB00D0
:101CA4003F08BA00FF2F4C08803A123E031C5B2EFB
:101CB4005C2E442F0A30F0000030F1004C08FA008A
:101CC400FB01FA1BFB036430F8000030F9000A162C
:101CD4008A1101200A128A157908F3007808F200A3
:101CE4000A168A155F240A128A15700883120313D0
:101CF400BE0001300310BE0DFF3E031D7C2E0310F9
:101D04003E0D253E84000A168A150A200A128A15F9
:101D1400BF000A168A150A200A128A15C0000A167C
:101D24008A150A200A128A15C1000A168A150A2081
:101D34000A128A15C2004208A3004108A200400802
:101D4400A1003F08A0006430F0000030F1004C080E
:101D5400F200F301F21BF3030A168A155F240A1238
:101D64008A15700883120313C30001300310C30DD6
:101D7400FF3E031DB82E0310430D493E84000A168E
:101D84008A150A200A128A15C4000A168A150A201E
:101D94000A128A15C5000A168A150A200A128A151B
:101DA400C6000A168A150A200A128A15C7004708AF
:101DB400A7004608A6004508A5004408A4000A1286
:101DC4008A155C210A128A15831203132308CB0097
:101DD4002208CA002108C9002008C8000A30F800F7
:101DE4000030F9004C08FA00FB01FA1BFB030A1649
:101DF4008A1101200A128A15780883120313BE007F
:101E040001300310BE0DFF3E031D032F03103E0DD2
:101E1400013E84000A168A150A200A128A15BF0098
:101E24000A168A150A200A128A15C0000A168A158B
:101E34000A200A128A15C1000A168A150A200A12F3
:101E44008A15C2004208A3004108A2004008A1006C
:101E54003F08A0004B08A7004A08A6004908A500AF
:101E64004808A4000A128A155C210A128A158312F2
:101E740003132308BD002208BC002108BB0020086E
:101E8400BA00FF2F4C08803A753E031C4A2F4B2F93
:101E9400D32F0A30F8000030F9004C08FA00FB0197
:101EA400FA1BFB030A168A1101200A128A15780804
:101EB40083120313BE0001300310BE0DFF3E031D49
:101EC4005E2F03103E0D013E84000A168A150A2077
:101ED4000A128A15BF000A168A150A200A128A15E0
:101EE400C0000A168A150A200A128A15C1000A16A9
:101EF4008A150A200A128A15C2004208A300410862
:101F0400A2004008A1003F08A0000A30F000003001
:101F1400F1004C08F200F301F21BF3030A168A15D0
:101F24005F240A128A15700883120313C300013058
:101F34000310C30DFF3E031D9A2F0310430D253ECE
:101F440084000A168A150A200A128A15C4000A1681
:101F54008A150A200A128A15C5000A168A150A204B
:101F64000A128A15C6000A168A150A200A128A1548
:101F7400C7004708A7004608A6004508A50044086E
:101F8400A4000A128A155C210A128A15831203130B
:101F94002308BD002208BC002108BB002008BA00A9
:101FA400FF2F4C08BE0001300310BE0DFF3E031D81
:101FB400D62F03103E0D013E84000A168A150A200E
:101FC4000A128A15BF000A168A150A200A128A15EF
:101FD400C0000A168A150A200A128A15C1000A16B8
:101FE4008A150A200A128A15C2004208BD00410857
:0C1FF400BC004008BB003F08BA00080019
:10200200FD01FB1F052806280D28FA09FB09FA0A1B
:102012000319FB0AFD01FD0AF91F102811281628D1
:10202200F809F909F80A0319F90A78087904031971
:102032001B281C284B28FC01FC0A2A28013003100B
:10204200F80DF90DFF3E031D20280130FF007F0827
:10205200FC07F91F2D282E281F2879087B02031D53
:10206200342878087A02031C372838283E28780852
:10207200FA027908031CFB03FB0201300310F90C7E
:10208200F80CFF3E031D3F280130FC02031D4A28C5
:102092004B282E287D0803194F2850285528FA0965
:1020A200FB09FA0A0319FB0A7B08F9007A08F8000F
:1020B2000800F800780803195F2860287428F31FC5
:1020C2006328642874287009FA007109FB007209F8
:1020D200FC007309FD00FA0A0319FB0A0319FC0A42
:1020E2000319FD0A7C287308FD007208FC007108C0
:1020F200FB007008FA007308720471047004031D77
:10210200832884288D280030F3000030F20000304C
:10211200F1000030F00011299630F9009D280130BD
:10212200FF007F08F90701300310FD0CFC0CFB0CCB
:10213200FA0CFF3E031D9528FE307D05031DA228E3
:10214200A3289028BF280130FF007F08F90701303B
:10215200FA07003003180130FB0700300318013082
:10216200FC07003003180130FD0701300310FD0C9D
:10217200FC0CFB0CFA0CFF3E031DB728FF307D055B
:10218200031DC428C528A428D1280130F902013032
:10219200F4000310FA0DFB0DFC0DFD0DF40BCA2823
:1021A200FC1BD428D528DB28023079020318DA2850
:1021B200DB28C6287918DE28DF28E728FF30FA0551
:1021C200FF30FB057F30FC05FF30FD050310F90CE5
:1021D2007908F400F501F601F70118300310F40D47
:1021E200F50DF60DF70DFF3E031DEF287408FA04F6
:1021F2007508FB047608FC047708FD0478080319C7
:10220200032904290929F31F072908290929FD1788
:102212007D08F3007C08F2007B08F1007A08F000E8
:1022220008008316031327088039AC00270883129D
:102232000313EA006A0783160313B300A61F2229B9
:102242002329242933143308031928292929392950
:10225200330A031D2D292E2936290030A70000300C
:10226200A6000030A5000030A400A617A70141294E
:102272000030A7000030A6000030A5000030A40006
:1022820023088039FF007F08AC062308831203135A
:10229200EA006A0783160313B400A21F51295229C8
:1022A2005329341434080319572958296829340A40
:1022B200031D5C295D2965290030A3000030A200BE
:1022C2000030A1000030A000A217A3017029003045
:1022D200A3000030A2000030A1000030A0002308BB
:1022E200220421042004031D772978299129003032
:1022F200A7000030A6000030A5000030A400803006
:10230200A6047F30A7042C08FF007F08A704270833
:10231200A3002608A2002508A1002408A0004A2B39
:102322003308031D952996299F290030A300003008
:10233200A2000030A1000030A0004A2B3308831213
:102342000313EA00EB016B08ED0083160313340854
:10235200831203136A02EC00031CED036C087F3E38
:1023620083160313AD00831203136D080318013E95
:10237200003E83160313AE002708AB002608AA000E
:102382002508A9002408A8000030A7000030A600F4
:102392000030A5000030A4000030B2000030B100CF
:1023A2000030B0000030AF00B401352A3408031900
:1023B200DB29DC290E2A013083120313EA00031001
:1023C20083160313A80DA90DAA0DAB0D83120313D7
:1023D200EA0BE0290130EA00031083160313A40D6F
:1023E200A50DA60DA70D83120313EA0BED29831683
:1023F2000313B21FFD29FE29FF2924140130831281
:102402000313EA00031083160313AF0DB00DB10DD1
:10241200B20D83120313EA0B032A83160313230854
:102422002B02031D1E2A22082A02031D1E2A21082E
:102432002902031D1E2A20082802031C212A222AFF
:10244200312A32172008A8022108031C210FA902F1
:102452002208031C220FAA022308031C230FAB022B
:102462000130FF007F08B4071A303402031C3A2AF5
:102472003B2AD7292B082A04290428040319422AB3
:10248200432A722A2F14722A013083120313EA009C
:10249200031083160313A40DA50DA60DA70D831219
:1024A2000313EA0B492A83160313B21F592A5A2A25
:1024B2005B2A2414013083120313EA0003108316EB
:1024C2000313AF0DB00DB10DB20D83120313EA0B5E
:1024D2005F2AFF3083160313AD070318AE0AFF30DD
:1024E200AE07A61F752A762A452AB401B21F7A2A98
:1024F2007B2AA92AFF302F0583120313EA00FF303B
:1025020083160313300583120313EB00FF30831687
:102512000313310583120313EC007F308316031378
:10252200320583120313ED006D086C046B046A0418
:1025320003199C2A9D2AA22A83160313B401B40A02
:10254200A92A83160313241CA72AA82AA92A9D2A8A
:1025520034080319AD2AAE2AFB2A0130A407003041
:1025620003180130A507003003180130A607003018
:1025720003180130A707271CBF2AC02AFB2A2408F8
:1025820083120313EA00831603132508831203132D
:10259200EB0083160313260883120313EC00831641
:1025A2000313270883120313ED000130EE006D0DB3
:1025B200ED0CEC0CEB0CEA0CEE0BD82A6D08831632
:1025C2000313A700831203136C0883160313A600D8
:1025D200831203136B0883160313A50083120313DC
:1025E2006A0883160313A4000130AD070318AE0A6C
:1025F2000030AE072E08803AFF0080307F02031DB4
:10260200042BFF302D02031C072B082B162BFF3047
:1026120083160313AD000030AE000030A700003077
:10262200A6000030A5000030A400831603132E0874
:10263200803AFF0080307F02031D212B01302D02E2
:102642000318242B252B322B83160313AD01AE0165
:102652000030A7000030A6000030A5000030A40022
:10266200AC01831603132D08B300331C392B3A2B0C
:102672003C2BA617402B7F30FF007F08A6053308AE
:1026820083120313EA0003106A0C83160313A700D4
:10269200842908008312031351088039DE0051088F
:1026A200D6005607E000D01F572B582B592B601429
:1026B200600803195D2B5E2B6E2B600A031D622BD3
:1026C200632B6B2B0030D1000030D0000030CF00E4
:1026D2000030CE00D017D101762B0030D10000306F
:1026E200D0000030CF000030CE0055088039DF0026
:1026F2005F085E0603197E2B7F2B802B5E17550821
:10270200D6005607DF00D41F872B882B892B5F1436
:102712005F0803198D2B8E2B9E2B5F0A031D922BB4
:10272200932B9B2B0030D5000030D4000030D30017
:102732000030D200D417D501A62B0030D5000030CE
:10274200D4000030D3000030D20060085F020318CA
:10275200AB2BAC2BD22B5E1FAF2BB02BB42B80300C
:10276200FF007F08DE066008E1005F08E000610804
:10277200DF004E08E1005208CE006108D2004F0887
:10278200E1005308CF006108D3005008E10054086B
:10279200D0006108D4005108E1005508D100610859
:1027A200D500E1015F08D600D7015708D9006008BB
:1027B2005602D800031CD9035908803AFF00803022
:1027C2007F02031DE62B1A305802031CE92BEA2B69
:1027D200212C83120313510850044F044E04031D8D
:1027E200F32BF52B0130F62B0030E1000030D10045
:1027F2000030D0000030CF000030CE005F08E00093
:10280200292C611C052C062C0D2C6108D600031006
:10281200560C0138E1000F2C0310E10C4E1C122C57
:10282200132C142CE1170130D600510DD10CD00C11
:10283200CF0CCE0CD60B162C0130FF007F08E00720
:10284200831203135F086002031C282C292C022C1C
:102852005E1B2C2C2D2C762C6008031D312C322C67
:102862003B2C0030D1000030D0000030CF000030CF
:10287200CE00A22D5208CE07530803110318013EC1
:102882000319442CCF07540803110318013E0319FE
:102892004B2CD007550803110318013E0319522C83
:1028A200D107511C552C562C2A2D611C592C5A2CFF
:1028B200612C6108D6000310560C0138E100632C2C
:1028C2000310E10C4E1C662C672C682CE1170130BA
:1028D200D600510DD10CD00CCF0CCE0CD60B6A2CDD
:1028E2000130FF007F08E0072A2D5108803AFF00DF
:1028F2005508803A7F02031D882C54085002031D9C
:10290200882C53084F02031D882C52084E020318CC
:102912008B2C8C2CE42CFF30D600FF30D700FF30FC
:10292200D800FF30D9005208DA005308DB005408FF
:10293200DC005508DD004E08DA024F08031C4F0F79
:10294200A32CA42CDB025008031C500FA92CAA2C88
:10295200DC025108031C510FAF2CB02CDD025A08C7
:10296200D6075B0803185B0FB72CB82CD7075C0897
:1029720003185C0FBD2CBE2CD8075D0803185D0A36
:10298200D9075908D1005808D0005708CF00560877
:10299200CE008030FF007F08DE06E109E10A61080F
:1029A200031DD42CD52CF22C0130CE070030031895
:1029B2000130CF07003003180130D0070030031870
:1029C2000130D107F22C5208CE025308031C530FD8
:1029D200CF025408031C540FD0025508031C550F94
:1029E200D102510850044F044E04031DF92CFA2C55
:1029F200262D6108031DFE2CFF2C262D0030D10050
:102A02000030D0000030CF000030CE00A22D0130C7
:102A1200D6000310CE0DCF0DD00DD10DD60B0A2D41
:102A2200E11F142D152D162D4E14611C192D1A2D72
:102A32001D2D0314E10D1F2D0310E10D6008031974
:102A4200232D242D262D0130E002D01F292D2A2DE1
:102A5200082DDF01E11F2E2D2F2D3D2D61087F391D
:102A62000319342D352D382DDF01DF0A3D2D4E1C83
:102A72003B2D3C2D3D2D352D5F080319412D422D57
:102A8200762D0130CE07003003180130CF07003019
:102A920003180130D007003003180130D107511C50
:102AA200532D542D762D4E08D6004F08D7005008CE
:102AB200D8005108D9000130DA00590DD90CD80CD0
:102AC200D70CD60CDA0B5E2D5908D1005808D0006D
:102AD2005708CF005608CE00600A0319712D722DD7
:102AE200762D0130FF007F08E007600A03197A2D76
:102AF2007B2D802D6008031D7F2D802D8E2D0030B3
:102B0200D1000030D0000030CF000030CE0060088D
:102B1200031D8C2D8D2D8E2DDE01601C912D922D8D
:102B2200942DD017982D7F30FF007F08D0056008C4
:102B3200D6000310560CD100DE1FA02DA12DA22D10
:102B4200D11708000A168A151F220A168A110A16B8
:102B52008A15A3230A168A1183120313071303305B
:102B620083160313CE009730CD00CD0BB62DCE0BBE
:102B7200B62D00300A168A155E210A168A110A1627
:102B82008A1573210A168A1183160313CD00CE010A
:102B9200CF01D0015008F3004F08F2004E08F100B7
:102BA2004D08F00000300A168A115A200A168A11BE
:102BB200730883160313E0007208DF007108DE0059
:102BC2007008DD00033083160313CE009730CD006A
:102BD200CD0BE92DCE0BE92D83120313071782309B
:102BE20083160313CE00DD30CD00CD0BF62DCE0BB8
:102BF200F62D831203138713033083160313CE00BB
:102C02009730CD00CD0B032ECE0B032E00300A16CB
:102C12008A155E210A168A110A168A1573210A1666
:102C22008A1183120313EF00033083160313CE00BD
:102C32009730CD00CD0B1B2ECE0B1B2E8312031310
:102C42008717823083160313CE00DD30CD00CD0B03
:102C5200282ECE0B282E83120313871303308316DC
:102C62000313CE009730CD00CD0B352ECE0B352E73
:102C720001300A168A155E210A168A110A168A1569
:102C820073210A168A1183160313CD00CE01CF01D8
:102C9200D0015008F3004F08F2004E08F1004D0831
:102CA200F00000300A168A115A200A168A11730897
:102CB20083160313DC007208DB007108DA00700867
:102CC200D900033083160313CE009730CD00CD0B0D
:102CD200682ECE0B682E8312031387178230831659
:102CE2000313CE00DD30CD00CD0B752ECE0B752E2D
:102CF200831603136008B8005F08B7005E08B600C9
:102D02005D08B5000030BC000030BB000030BA00E6
:102D12000030B9004330C0007F30BF000030BE0039
:102D22000030BD000030C4000030C3000030C200DB
:102D32000030C1004030C800A030C7000030C600DB
:102D42000030C5000A128A1152200A168A1183160F
:102D520003133808D8003708D7003608D6003508DC
:102D6200D500913083120313EA0083160313580827
:102D720083120313EE0083160313570883120313FF
:102D8200ED0083160313560883120313EC00831617
:102D92000313550883120313EB00B8300A128A1189
:102DA20093210A168A11831603135C08B8005B0884
:102DB200B7005A08B6005908B5000030BC00003010
:102DC200BB000030BA000030B9004330C0007F3091
:102DD200BF000030BE000030BD000030C400003033
:102DE200C3000030C2000030C1004030C800A03033
:102DF200C7000030C6000030C5000A128A115220F6
:102E02000A168A11831603133808D4003708D30030
:102E12003608D2003508D100913083120313EA003C
:102E220083160313540883120313EE00831603134D
:102E3200530883120313ED008316031352088312FF
:102E42000313EC0083160313510883120313EB00E0
:102E5200A4300A128A1193210A168A116430F000F2
:102E62000030F100831203136F0883160313CD00A1
:102E7200CE014D08F2004E08F3000A168A155F24AF
:102E82000A168A11700883160313E3000A30F80049
:102E92000030F9000A30F0000030F1008312031311
:102EA2006F0883160313CD00CE014D08F2004E08C1
:102EB200F3000A168A155F240A168A117108FB00AC
:102EC2007008FA000A168A1101200A168A11780877
:102ED20083160313E2000A30F8000030F90083126F
:102EE20003136F0883160313CD00CE014D08FA00B9
:102EF2004E08FB000A168A1101200A168A11780868
:102F020083160313E100F401F40A01300A168A154C
:102F1200DF210A168A119630F3008030F4000A1677
:102F22008A15C9220A168A11F401F40A02300A1615
:102F32008A15DF210A168A11B830F3000130F40035
:102F42000A168A15C9220A168A110730F4000130BE
:102F52000A168A15DF210A168A119A30F300803088
:102F6200F4000A168A15C9220A168A110730F400DB
:102F720002300A168A15DF210A168A11A430F300DC
:102F82000130F4000A168A15C9220A168A110D3078
:102F9200F40001300A168A15DF210A168A119E30C2
:102FA200F3008030F4000A168A15C9220A168A1123
:102FB2000D30F40002300A168A15DF210A168A1132
:102FC200831603136308303E0A168A1599210A16DE
:102FD2008A11831603136208303E0A168A15992154
:102FE2000A168A11831603136108303E0A168A15DF
:102FF20099210A168A11AD2D0A128A110028FF1B87
:103002000A2883137F1883170008840A0319FF0A0A
:10301200080018308A000408840A82070034003449
:10302200003480343F3400340034203441340034DE
:103032000034C8344234003400347A344434003426
:1030420040341C34463400345034C33447340034E2
:103052002434743449348034963418344B34203454
:10306200BC34BE344C3428346B346E344E34F934B0
:10307200023415345034EC347834AD346034CA340C
:10308200F234493471340034003480343F34CD3466
:10309200CC34CC343D340A34D73423343C346F340A
:1030A200123483343A341734B734D1343834AC342C
:1030B200C53427343734BD34373486343534953407
:1030C200BF34D63433347734CC342B3432345F3497
:1030D200703489343034FF34E634DB342E3408342F
:1030E200E5343C341E3460344234A2340D340134AD
:1030F2000034003400340A340034003400346434C0
:10310200003400340034E834033400340034103422
:10311200273400340034A03486340134003440347F
:1031220042340F34003480349634983400340034FE
:10313200E134F53405340034CA349A343B3425344E
:103142002E34323466340034533431343A34003459
:10315200533432343A340034533433343A3400344E
:1032B000F00070088312031388000800F000700803
:1032C000831203139300080083160313141C692947
:1032D0006A296429080064008001840A040603192D
:1032E000003404066C290A168A1564210A168A1508
:1032F0008312031313080800730872047104700426
:1033000003198329842986298030F3060800F100F7
:10331000F0013A30710203188E298F299729303035
:103320007102031C942995299729F001F00A700C69
:103330000800F20083120313091472080A168A1592
:1033400058210A168A158312031389141A30F100C2
:10335000F10BA82900008312031389100800F30061
:10336000831603138712731DB629B729BB29720868
:1033700094008715BF2970087204940087117308A0
:1033800071048312031394000800F30083120313E3
:10339000091073080A168A1558210A168A1583120D
:1033A000031389140B30F2006230F100F10BD629BF
:1033B000F20BD62900008312031389100800F500D0
:1033C0007503031DE429E529ED2974087F3E0A16DB
:1033D0008A15C5210A168A15FA2902307506031DB9
:1033E000F229F329FA297408BF3E0A168A15C52165
:1033F0000A168A150800803083120313E50669084F
:10340000D1006808D0006708CF006608CE006508C4
:10341000D5006408D4006308D3006208D2000A16FD
:103420008A114B230A168A15831203135108E500EB
:103430005008E4004F08E3004E08E200080083163D
:103440000317880189018316031307138713860165
:103450008312031386018316031388018312031357
:103460008801831603138901831203138901071747
:103470008717F001F101F20120300A168A15AF21F9
:103480000A168A150800F401F501701C482A492A19
:103490004F2A7208F4070318F50A7308F50701307C
:1034A0000310F20DF30DFF3E031D502A01300310EF
:1034B000F10CF00CFF3E031D572A70087104031D28
:1034C000622A632A452A7508F1007408F000080092
:1034D000F800F401F5017008F200F3017208F6003B
:1034E0007308F700781C752A762A7C2A7608F40778
:1034F0000318F50A7708F50701300310F60DF70DEC
:10350000FF3E031D7D2A0310F80C7808031D892A4D
:103510008A2A722A7508F1007408F0000800700801
:1035200071040319942A952AC42AF401F40AA32ADF
:1035300001300310F00DF10DFF3E031D992A0130FB
:10354000FF007F08F407F11FA62AA72A982A71080E
:103550007302031DAD2A70087202031CB02AB12A3F
:10356000B72A7008F2027108031CF303F30201305A
:103570000310F10CF00CFF3E031DB82A0130F402D9
:10358000031DC32AC42AA72A7308F1007208F00099
:103590000800F801F901EE2A78087307F6007408AC
:1035A000F5000318F50AF81FD62AF5037508F70089
:1035B000770883120313FF00760884000A168A1521
:1035C00000200A168A150A168A1599210A168A15E4
:1035D0000130F8070318F90A0030F9077808730773
:1035E000F6007408F5000318F50AF81FF82AF50329
:1035F0007508F700770883120313FF00760884002C
:103600000A168A1500200A168A15003A031D092B8E
:103610000A2BCC2A0800F901FA017508760403196F
:10362000122B132B4A2BFB01FB0A212B0130031019
:10363000F50DF60DFF3E031D172B0130FF007F082F
:10364000FB07F61F242B252B162B01300310F90D39
:10365000FA0DFF3E031D262B76087802031D322B40
:1036600075087702031C352B362B3D2B7508F702A6
:103670007608031CF803F802791401300310F60CE5
:10368000F50CFF3E031D3E2B0130FB02031D492BB1
:103690004A2B252B7A08F6007908F50008007308F4
:1036A0007204710470040319562B572B9A2BF901DD
:1036B000F90A672B0130F8000310F00DF10DF20D3F
:1036C000F30DF80B5C2B0130FF007F08F907F31FA7
:1036D0006A2B6B2B5A2B73087702031D792B720808
:1036E0007602031D792B71087502031D792B700872
:1036F0007402031C7C2B7D2B8B2B7008F402710849
:10370000031C710FF5027208031C720FF602730896
:10371000031C730FF70201300310F30CF20CF10CD1
:10372000F00CFF3E031D8C2B0130F902031D992B79
:103730009A2B6B2B7708F3007608F2007508F100DE
:103740007408F00008002730F500F530F400F40BA1
:10375000A72BF50BA72B00300A168A1558210A163D
:103760008A153430F500F130F400F40BB52BF50B6D
:10377000B52BBA2B30300A168A15C5210A168A15C0
:103780000D30F500FB30F400F40BC42BF50BC42B0B
:10379000C92B30300A168A15C5210A168A156A30D7
:1037A000F400F40BD12B000030300A168A15C52125
:1037B0000A168A1538300A168A15C5210A168A157E
:1037C00010300A168A15C5210A168A1501300A1604
:1037D0008A15C5210A168A1506300A168A15C521CA
:1037E0000A168A150C300A168A15C5210A168A157A
:1037F00008000030FC000030FB000030FA00003010
:10380000F90073087204710470040319082C092C60
:10381000562CFD01FD0A192C0130F8000310F00DA3
:10382000F10DF20DF30DF80B0E2C0130FF007F08A7
:10383000FD07F31F1C2C1D2C0C2C0130F80003106D
:10384000F90DFA0DFB0DFC0DF80B1F2C7308770218
:10385000031D342C72087602031D342C7108750286
:10386000031D342C70087402031C372C382C472C91
:103870007008F4027108031C710FF5027208031C32
:10388000720FF6027308031C730FF70279140130EC
:103890000310F30CF20CF10CF00CFF3E031D482C4E
:1038A0000130FD02031D552C562C1D2C7C08F30005
:1038B0007B08F2007A08F1007908F0000800F501B1
:1038C000F11F632C642C6B2CF009F109F00A031929
:1038D000F10AF501F50AF31F6E2C6F2C782CF20912
:1038E000F309F20A0319F30A0130FF007F08F50615
:1038F000F601F7017008710403197F2C802CB72C96
:10390000F401F40A8E2C01300310F00DF10DFF3E8E
:10391000031D842C0130FF007F08F407F11F912C58
:10392000922C832C01300310F60DF70DFF3E031D82
:10393000932C71087302031D9F2C70087202031CE4
:10394000A22CA32CAA2C7008F2027108031CF3030A
:10395000F302761401300310F10CF00CFF3E031D4E
:10396000AB2C0130F402031DB62CB72C922C750839
:103970000319BB2CBC2CC12CF609F709F60A031954
:10398000F70A7708F1007608F000080003108312A8
:1039900003134F0D500DD6005608031DD02CD12C0B
:1039A000DA2C0030D0000030CF000030CE000030E4
:1039B000CD003D2D4D08D1004E08D2004F08D30058
:1039C0005008D4001F300310D40CD30CD20CD10CEF
:1039D000FF3E031DE32C5108D500CF17FF30CD0566
:1039E000FF30CE05FF30CF050030D0059630D6022F
:1039F000D61FFB2CFC2C162D5608803A973E031838
:103A0000022D032D042DD12C01300310D00CCF0C2E
:103A1000CE0CCD0CFF3E031D052D0130FF007F08AD
:103A2000D607031D142D152D042D2D2D20305602E3
:103A3000031C1B2D1C2D282DD12C0130D10003106F
:103A4000CD0DCE0DCF0DD00DD10B1F2D0130D602D7
:103A50005608031D2C2D2D2D1D2D55080319312D14
:103A6000322D3D2DCD09CE09CF09D009CD0A03193C
:103A7000CE0A0319CF0A0319D00A08007008F8000B
:103A80007108F9007208FA000310790D7A0D83129B
:103A90000313A5002508031D4E2D4F2D582D003072
:103AA000F3000030F2000030F1000030F000F42D9F
:103AB0007408F8007508F9007608FA000310790D0B
:103AC0007A0DA4002408031D662D672D682D4F2D47
:103AD000F117FF30F005FF30F1050030F205F51762
:103AE000FF30F405FF30F5050030F6050030A30087
:103AF0000030A2000030A1000030A0007F30A502FD
:103B000098302407F8007808A5021830A400013086
:103B1000F8000310A00DA10DA20DA30DF80B892D27
:103B200076087202031D9A2D75087102031D9A2DE5
:103B300074087002031C9D2D9E2DA92D7408F0029F
:103B40007508031C750FF1027608031C760AF20251
:103B5000201401300310F00DF10DF20DFF3E031D96
:103B6000AA2D0130A402031DB62DB72D872DA51F48
:103B7000BA2DBB2DD52D2508803A973E0318C12DAF
:103B8000C22DC32D4F2D01300310A30CA20CA10C8C
:103B9000A00CFF3E031DC42D0130FF007F08A507C8
:103BA000031DD32DD42DC32DEC2D18302502031C5D
:103BB000DA2DDB2DE72D4F2D0130F8000310A00D7D
:103BC000A10DA20DA30DF80BDE2D0130A5022508D5
:103BD000031DEB2DEC2DDC2D2308F3002208F20051
:103BE0002108F1002008F000080083120313CD0023
:103BF0006E304D02031CFD2DFE2D0B2F3F30A30018
:103C00000030A2000030A1000030A0006430F500B8
:103C10000030F6004D08BE00BF013E08F7003F0827
:103C2000F8000A168A150B230A168A1575088312DE
:103C30000313C00001300310C00DFF3E031D1B2EF7
:103C40000310400D7D3E84000A168A150A200A16CC
:103C50008A15C1000A168A150A200A168A15C2009A
:103C60000A168A150A200A168A15C3000A168A152A
:103C70000A200A168A15C4004408A7004308A600B3
:103C80004208A5004108A4000A128A155C210A1600
:103C90008A15831203132308CC002208CB002108C5
:103CA000CA002008C9000A30F5000030F6004D08AF
:103CB000BE00BF013E08F2003F08F3006430F00090
:103CC0000030F1000A168A158F220A168A1571082B
:103CD000F8007008F7000A168A150B230A168A15D1
:103CE000750883120313C00001300310C00DFF3E9E
:103CF000031D752E0310400D593E84000A168A15C7
:103D00000A200A168A15C1000A168A150A200A1600
:103D10008A15C2000A168A150A200A168A15C300D7
:103D20000A168A150A200A168A15C4004408A30038
:103D30004308A2004208A1004108A0004C08A700C7
:103D40004B08A6004A08A5004908A4000A128A15D3
:103D50005C210A168A15831203132308C80022085F
:103D6000C7002108C6002008C5000A30F000003056
:103D7000F1004D08BE00BF013E08F2003F08F3000D
:103D80000A168A158F220A168A15700883120313E1
:103D9000C00001300310C00DFF3E031DCA2E0310EA
:103DA000400D353E84000A168A150A200A168A1527
:103DB000C1000A168A150A200A168A15C2000A16B8
:103DC0008A150A200A168A15C3000A168A150A20BF
:103DD0000A168A15C4004408A3004308A20042083A
:103DE000A1004108A0004808A7004708A60046080F
:103DF000A5004508A4000A128A155C210A168A1536
:103E0000831203132308BD002208BC002108BB0055
:103E10002008BA00FF2F0B304D02031C102F112F6A
:103E2000BC2F3F30A3000030A2000030A1000030C2
:103E3000A0000A30F5000030F6004D08BE00BF01BA
:103E40003E08F7003F08F8000A168A150B230A16E9
:103E50008A15750883120313C00001300310C00DCA
:103E6000FF3E031D2E2F0310400D593E84000A16FD
:103E70008A150A200A168A15C1000A168A150A2010
:103E80000A168A15C2000A168A150A200A168A1509
:103E9000C3000A168A150A200A168A15C4004408A7
:103EA000A7004308A6004208A5004108A4000A1282
:103EB0008A155C210A168A15831203132308CC0085
:103EC0002208CB002108CA002008C9000A30F000EF
:103ED0000030F1004D08BE00BF013E08F2003F086F
:103EE000F3000A168A158F220A168A1570088312A3
:103EF0000313C00001300310C00DFF3E031D7B2FD4
:103F00000310400D353E84000A168A150A200A1651
:103F10008A15C1000A168A150A200A168A15C200D7
:103F20000A168A150A200A168A15C3000A168A1567
:103F30000A200A168A15C4004408A3004308A200F8
:103F40004208A1004108A0004C08A7004B08A600A9
:103F50004A08A5004908A4000A128A155C210A161D
:103F60008A15831203132308BD002208BC00210810
:103F7000BB002008BA00FF2F3F30A3000030A20092
:103F80000030A1000030A0004D08BE000130031039
:103F9000BE0DFF3E031DC72F03103E0D353E8400AE
:103FA0000A168A150A200A168A15BF000A168A15EB
:103FB0000A200A168A15C0000A168A150A200A164F
:103FC0008A15C1000A168A150A200A168A15C20027
:103FD0004208A7004108A6004008A5003F08A40029
:103FE0000A128A155C210A168A1583120313230804
:103FF000BD002208BC002108BB002008BA00080050
:04400E00D420FF3F7C
:00000001FF
