:060000000A128A11CD2F47
:1000080000307005F80000307105F9008030720585
:10001800FA007F307305FB007B087A0479047804C2
:10002800031D1728182820280030F3000030F2009C
:100038000030F1000030F00000307405F8000030A6
:100048007505F90080307605FA007F307705FB00EA
:100058007B087A0479047804031D332834283C2863
:100068000030F7000030F6000030F5000030F400F2
:10007800F31F3F28402864280030F8000030F900BA
:100088000030FA008030FB007008F8027108031C89
:10009800710F4F285028F9027208031C720F552857
:1000A8005628FA027308031C730F5B285C28FB02AE
:1000B8007B08F3007A08F2007908F1007808F0006C
:1000C800F71F672868288C280030F8000030F900EE
:1000D8000030FA008030FB007408F8027508031C31
:1000E800750F77287828F9027608031C760F7D2883
:1000F8007E28FA027708031C770F83288428FB02DE
:100108007B08F7007A08F6007908F5007808F4000B
:100118008030F3068030F70677087302031D9E28A7
:1001280076087202031D9E2875087102031D9E2819
:10013800740870020318A128A228A4280310A5286F
:10014800031408000A168A1517220A128A11D030D9
:1001580083120313A4000030A5000A168A11B820E0
:100168000A128A11003083120313A400A5000A168C
:100178008A11B8200A128A118316031355088312AC
:100188000313A10083160313540883120313A0005A
:100198000A168A1516230A128A11831203132108D4
:1001A800A5002008A4000A168A11B8200A128A118C
:1001B80083160313530883120313A1008316031332
:1001C800520883120313A0000A168A1516230A126E
:1001D8008A11831203132108A5002008A4000A1617
:1001E8008A11B8200A128A11831603135108831240
:1001F8000313A10083160313500883120313A000EE
:100208000A168A1516230A128A1183120313210863
:10021800A5002008A4000A168A11B8200A128A111B
:10022800013083120313A4000030A5000A168A11B6
:10023800B8200A128A11831603136F088312031356
:10024800A100831603136E0883120313A0000A1675
:100258008A1516230A128A11831203132108A5008E
:100268002008A4000A168A11B8200A128A118316D7
:1002780003136D0883120313A100831603136C087C
:1002880083120313A0000A168A1516230A128A116C
:10029800831203132108A5002008A4000A168A1156
:1002A800B8200A128A11831603136B0883120313EA
:1002B800A100831603136A0883120313A0000A1609
:1002C8008A1516230A128A11831203132108A5001E
:1002D8002008A4000A168A11B8200A128A110A16E0
:1002E8008A1520220A128A11080083160313B60001
:1002F8006B30A900B42F25303D06031984298529C0
:100308008F29360884003D08831380000130FF00E0
:100318007F08B607B42FAA01AB01831203136A083A
:1003280084000A168A110A200A128A112E3A031D1D
:100338009E299F29F129831603132B170130FF00EB
:100348007F0883120313EA0783160313B701B80162
:10035800DF290A30F0000030F10083160313380853
:10036800F3003708F2000A168A15C3220A128A1106
:10037800710883160313B8007008B70083120313BB
:100388006A0884000A168A110A200A128A11D03EC5
:1003980083160313A000FF3003180030A1002008C3
:1003A800B7070318B80A2108B8070130FF007F080B
:1003B80083120313EA0783126A0884000A168A1153
:1003C8000A200A128A110A168A1541220A128A116B
:1003D8000318EF29F029AD29F92983160313B7016A
:1003E800B8012B16F9292B15172A0130831203138C
:1003F800EA07FF306A0784000A168A110A200A12DF
:100408008A1183160313BD00A000A1012108003A38
:1004180003190F2AB42F2008003A0319C82F663A87
:100428000319F729B42F00302A05A00007302B053F
:10043800A100200821040319222A232A712F2B1E28
:10044800262A272A2B2A0630B7000030B8002908A8
:10045800840083130008B900840A0008BA00840ADB
:100468000008BB00840A0008BC000430FF007F08B5
:10047800A9073C08F3003B08F2003A08F1003908E4
:10048800F0000030F7000030F6000030F5000030D2
:10049800F4000A128A1104200A128A110318552A34
:1004A800562A732A831603133C08F3003B08F2000C
:1004B8003A08F1003908F0000A168A1529220A12AA
:1004C8008A11730883160313BC007208BB007108F5
:1004D800BA007008B9000330AA040030AB048316D0
:1004E8000313B001B1013C08F3003B08F2003A08DD
:1004F800F1003908F0000030F7000030F600003055
:10050800F5000030F4000A168A15CC240A128A1164
:1005180003188F2A902A802B0310831603133B0D90
:100528003C0D823EB000FF3003180030B100FF30B0
:10053800B0070318B10AFF30B1070330F0000030EC
:10054800F1003108F3003008F2000A168A15C322B8
:100558000A128A11710883160313B1007008B000DB
:100568000A30F6000030F7003108F9003008F800CA
:100578000A168A152A260A128A117708831603137F
:10058800B1007608B000B11FCA2ACB2AD12AFF30A1
:10059800B0070318B10AFF30B1073003FF3A0A1257
:1005A8008A15A1240A128A11831203133D0883169F
:1005B8000313B500831203133C0883160313B40016
:1005C800831203133B0883160313B3008312031328
:1005D8003A0883160313B2003C0883120313A300DE
:1005E800831603133B0883120313A2008316031315
:1005F8003A0883120313A1008316031339088312E0
:100608000313A00083160313350883120313A700EE
:1006180083160313340883120313A60083160313E7
:10062800330883120313A5008316031332088312B9
:100638000313A4000A128A155C210A128A11831274
:100648000313230883160313B50083120313220828
:1006580083160313B40083120313210883160313AC
:10066800B30083120313200883160313B20035085E
:10067800F3003408F2003308F1003208F0003F308C
:10068800F7008030F6000030F5000030F4000A1260
:100698008A1104200A128A110318532B542B5D2B3C
:1006A800FF3083160313B0070318B10AFF30B107F0
:1006B800802B831603133508F3003408F20033083F
:1006C800F1003208F0004130F7002030F600003029
:1006D800F5000030F4000A128A1104200A128A1167
:1006E800031C772B782B802B013083160313B0075C
:1006F8000318B10A0030B107831603133808803A8B
:10070800FF0080307F02031D8B2B0D30370203184A
:100718008E2B8F2BD62B8316031337080A168A11B4
:100728001B210A128A11831203133D08D1003C08C9
:10073800D0003B08CF003A08CE00831603133C08CC
:1007480083120313D500831603133B088312031384
:10075800D400831603133A0883120313D3008316B5
:100768000313390883120313D2000A168A112623A9
:100778000A128A1183120313510883160313BC004B
:1007880083120313500883160313BB008312031349
:100798004F0883160313BA00831203134E088316F7
:1007A8000313B900831603133108803AFF00803021
:1007B8007F02031DE12B0A3030020318E42BE52BDE
:1007C800362C831603133C08F3003B08F2003A0862
:1007D800F1003908F0000030F7000030F600003072
:1007E800F5000030F4000A168A15CC240A128A1182
:1007F8000318FF2B002CA82C831603133C08831224
:100808000313D000831603133B0883120313CF008E
:10081800831603133A0883120313CE0083160313B7
:10082800390883120313CD000A128A152A200A12E6
:100838008A118312031350084F044E044D04031DFC
:10084800262C272CA82C831603133108803AFF0086
:1008580080307F02031D322C02303002031C352CFD
:10086800362CA82C831603133508F3003408F2003D
:100878003308F1003208F0004030F7008930F60004
:100888007030F5005F30F4000A128A1104200A1251
:100898008A110318502C512C5A2CF7308316031345
:1008A800B0070318B10AFF30B107622CF83083167D
:1008B8000313B0070318B10AFF30B10730080A1252
:1008C8008A15A1240A128A11831203133D0883167C
:1008D8000313B500831203133C0883160313B400F3
:1008E800831203133B0883160313B3008312031305
:1008F8003A0883160313B2003C08F3003B08F200E1
:100908003A08F1003908F0003508F7003408F60015
:100918003308F5003208F4000A168A1548270A1227
:100928008A11730883160313AF007208AE007108AA
:10093800AD007008AC000030BC000030BB000030D7
:10094800BA000030B9002C2D831603133C0883121B
:100958000313D000831603133B0883120313CF003D
:10096800831603133A0883120313CE008316031366
:10097800390883120313CD000A128A152A200A1295
:100988008A1183120313500883160313AF008312CE
:1009980003134F0883160313AE00831203134E0884
:1009A80083160313AD00831203134D088316031334
:1009B800AC002F08F9002E08F8002D08F7002C08C5
:1009C800F60000300A128A15A2200A128A11790844
:1009D80083120313E5007808E4007708E30076083B
:1009E800E200831603133C0883120313E9008316FD
:1009F80003133B0883120313E800831603133A0812
:100A080083120313E70083160313390883120313B1
:100A1800E6000A168A159F220A128A118312031306
:100A2800650883160313BC00831203136408831636
:100A38000313BB0083120313630883160313BA005E
:100A480083120313620883160313B900B001B101BE
:100A5800BD01BD0A3D08A00001300310A00DFF3EF6
:100A6800031D312D0310200D693E84000A168A11DA
:100A78000A200A128A11A1000A168A110A200A12EB
:100A88008A11A2000A168A110A200A128A11A300E2
:100A98000A168A110A200A128A11A40024082F02B1
:100AA800031D602D23082E02031D602D22082D0230
:100AB800031D602D21082C020318632D642D652D5C
:100AC8006F2D0130FF007F08BD070A303D06031D6A
:100AD8006E2D6F2D2E2D03302A05A00000302B051A
:100AE800A1002008210403197A2D7B2DE62D360854
:100AF80084002D30831380000130FF007F08B60783
:100B0800E62D3D08A00001300310A00DFF3E031D97
:100B1800882D0310200D693E84000A168A110A20C8
:100B28000A128A11F0000A168A110A200A128A117A
:100B3800F1000A168A110A200A128A11F2000A160E
:100B48008A110A200A128A11F3002F08F7002E08CA
:100B5800F6002D08F5002C08F4000A168A15C4259D
:100B68000A128A11730883160313B5007208B400B9
:100B78007108B3007008B2000030F3000030F200D2
:100B88000030F1000A30F0003508F7003408F600AC
:100B98003308F5003208F4000A168A151A250A12D5
:100BA8008A11730883160313B5007208B40071081C
:100BB800B3007008B200360884003208303E831350
:100BC8008000802D0130BD023D0A031DEC2DED2D66
:100BD800852DFF2D831603133608840030308313C8
:100BE80080000130FF007F08B607FF30B007031808
:100BF800B10AFF30B1073108803AFF0080307F0228
:100C0800031D082E0130300203180B2E0C2EEE2D7A
:100C1800831603133808803AFF0080307F02031DD3
:100C2800172E09303702031C1A2E1B2E202E0830CF
:100C380083160313BD00242E831603133708BD0043
:100C48003D08A000A1012008B7022108031CB80331
:100C5800B8023D080319312E322E3B2E3608840087
:100C68002E30831380000130FF007F08B6073D084F
:100C78000A128A15A1240A128A11831203133D0845
:100C880083160313A800831203133C088316031367
:100C9800A700831203133B0883160313A6008312CD
:100CA80003133A0883160313A500280883120313B5
:100CB800A70083160313270883120313A6008316BD
:100CC8000313260883120313A500831603132508AC
:100CD80083120313A400831603133C08831203131F
:100CE800A300831603133B0883120313A200831681
:100CF80003133A0883120313A10083160313390858
:100D080083120313A0000A128A155C210A128A11A1
:100D1800831203132308D0002208CF002108CE0035
:100D28002008CD000A128A152A200A128A11831275
:100D38000313500883160313AF00831203134F08DD
:100D480083160313AE00831203134E08831603138E
:100D5800AD00831203134D0883160313AC00532F01
:100D68003D08A00001300310A00DFF3E031DB72E63
:100D78000310200D693E84000A168A110A200A12FF
:100D88008A11F0000A168A110A200A128A11F10043
:100D98000A168A110A200A128A11F2000A168A1102
:100DA8000A200A128A11F3002F08F7002E08F6000D
:100DB8002D08F5002C08F4000A168A15C4250A1215
:100DC8008A11730883160313B5007208B4007108FA
:100DD800B3007008B2000030F3000030F2000030B9
:100DE800F1000A30F0003508F7003408F60033083F
:100DF800F5003208F4000A168A151A250A128A1113
:100E0800730883160313B5007208B4007108B300A1
:100E18007008B200360884003208303E8313800020
:100E28000130FF007F08B6073D08A000013003101D
:100E3800A00DFF3E031D1B2F0310200D693E8400EB
:100E48000A168A110A200A128A11F0000A168A1153
:100E58000A200A128A11F1000A168A110A200A12B7
:100E68008A11F2000A168A110A200A128A11F3005E
:100E78002F08F7002E08F6002D08F5002C08F400BE
:100E88000A168A151A250A128A117308831603137B
:100E9800AF007208AE007108AD007008AC000130F8
:100EA800BD023D0A031D592F5A2FB42E6A2F36084A
:100EB80084003030831380000130FF007F08B607BC
:100EC800FF30B7070318B80AFF30B80737083804E7
:100ED800031D6F2F702F5B2FB42F37083804031DA5
:100EE800762F772F852F2F082E042D042C04031D11
:100EF8007E2F7F2F852F0130B7070318B80A0030DF
:100F0800B8073808803A803C031D8C2F37083D020B
:100F180003188F2F902F912FA02F831603133808B3
:100F2800803AA00080302002031D9C2F3D08370224
:100F380003189F2FA02FA02F0330831603132A0511
:100F4800A00000302B05A100200821040319AD2FB3
:100F5800AE2FB42F360884002D30831380008A29E1
:100F6800013083120313EA07FF306A0784000A1668
:100F78008A110A200A128A1183160313BD003D083C
:100F8800031DC72FC82F7F293608840083138001CB
:100F98000800831603130A168A1509220A128A11F1
:100FA800EA000A168A150A220A128A11EB000A16A2
:100FB8008A150B220A128A11EC000A168A150C22CD
:100FC8000A128A11ED000A168A150D220A128A11D0
:100FD800EE000A168A150E220A128A11EF008313F0
:100FE800C8308400EA300A168A150F220A128A11BC
:080FF80083010A168A117E2D07
:10100600F800F401F5017008F200F3017208F60029
:101016007308F700781C1028112817287608F4079B
:101026000318F50A7708F50701300310F60DF70DDA
:10103600FF3E031D18280310F80C7808031D24280A
:1010460025280D287508F1007408F0000800031023
:10105600831203134F0D500DD6005608031D342876
:1010660035283E280030D0000030CF000030CE00BA
:101076000030CD00A1284D08D1004E08D2004F08FF
:10108600D3005008D4001F300310D40CD30CD20C5C
:10109600D10CFF3E031D47285108D500CF17FF305E
:1010A600CD05FF30CE05FF30CF050030D005963098
:1010B600D602D61F5F2860287A285608803A973EBF
:1010C6000318662867286828352801300310D00CD5
:1010D600CF0CCE0CCD0CFF3E031D69280130FF005E
:1010E6007F08D607031D782879286828912820309C
:1010F6005602031C7F2880288C2835280130D10011
:101106000310CD0DCE0DCF0DD00DD10B83280130A0
:10111600D6025608031D90289128812855080319E0
:1011260095289628A128CD09CE09CF09D009CD0A40
:101136000319CE0A0319CF0A0319D00A080083122D
:101146000313A00020080319A928AA28BE28F91FFE
:10115600AD28AE28BE287609A2007709A300780933
:10116600A4007909A500A20A0319A30A0319A40A6F
:101176000319A50AC6287908A5007808A4007708E7
:10118600A3007608A2007908780477047604031D84
:10119600CD28CE28D7280030F9000030F8000030DE
:1011A600F7000030F6005B299630A100E7280130F1
:1011B600FF007F08A10701300310A50CA40CA30CA7
:1011C600A20CFF3E031DDF28FE302505031DEC287B
:1011D600ED28DA2809290130FF007F08A107013030
:1011E600A207003003180130A307003003180130AE
:1011F600A407003003180130A50701300310A50C21
:10120600A40CA30CA20CFF3E031D0129FF302505EB
:10121600031D0E290F29EE281B290130A1020130DA
:10122600FA000310A20DA30DA40DA50DFA0B1429A7
:10123600A41B1E291F29252902302102031824294F
:10124600252910292118282929293129FF30A20505
:10125600FF30A3057F30A405FF30A5050310A10CC0
:101266002108FA00FB01FC01FD0118300310FA0DFC
:10127600FB0DFC0DFD0DFF3E031D39297A08A20466
:101286007B08A3047C08A4047D08A5042008031990
:101296004D294E295329F91F512952295329A5179A
:1012A6002508F9002408F8002308F7002208F600AC
:1012B60008008312031323088039AD002308A80011
:1012C6002807B300A21F682969296A29331433083D
:1012D60003196E296F297E29330A031D7329742980
:1012E6007C290030A3000030A2000030A1000030AD
:1012F600A000A21786290030A3000030A20000300B
:10130600A1000030A00027088039FF007F08AD0645
:101316002708A8002807B200A61F92299329942916
:1013260032143208031998299929A829320A031D6B
:101336009D299E29A6290030A7000030A60000306E
:10134600A5000030A400A617B0290030A700003081
:10135600A6000030A5000030A40032080319B42905
:10136600B529BA293308031DB929BA29C32900307A
:10137600A3000030A2000030A1000030A000A02C85
:101386002008F00026080A128A1503200A128A1578
:10139600710883120313B9007008B8003808A80052
:1013A600A901AA01AB012B08B1002A08B00029083F
:1013B600AF002808AE003908A800A901AA01AB01B0
:1013C6002B08B7002A08B6002908B5002808B4007B
:1013D6002108F00025080A128A1503200A128A1528
:1013E600710883120313B9007008B8003808A80002
:1013F600A901AA01AB012808AE07290803110318A1
:10140600013E0319072AAF072A0803110318013EF4
:1014160003190E2AB0072B0803110318013E0319FE
:10142600152AB1073908A800A901AA01AB012808A5
:10143600B407290803110318013E0319232AB50727
:101446002A0803110318013E03192A2AB6072B0896
:1014560003110318013E0319312AB7072208F000C9
:1014660024080A128A1503200A128A1571088312A3
:101476000313B9007008B8003808A800A901AA012A
:10148600AB012808AE07290803110318013E03190A
:101496004D2AAF072A0803110318013E0319542ADF
:1014A600B0072B0803110318013E03195B2AB10785
:1014B6003908A800A901AA01AB012808B407290820
:1014C60003110318013E0319692AB5072A080311F7
:1014D6000318013E0319702AB6072B0803110318D7
:1014E600013E0319772AB7070830A8000310AE0D8E
:1014F600AF0DB00DB10DA80B792A2108F000240814
:101506000A128A1503200A128A1571088312031318
:10151600B9007008B8003808A8003908A900AA015F
:10152600AB012808AE07290803110318013E031969
:101536009D2AAF072A0803110318013E0319A42A9E
:10154600B0072B0803110318013E0319AB2AB10794
:101556002008F00025080A128A1503200A128A15A7
:10156600710883120313B9007008B8003808A80080
:101576003908A900AA01AB012808AE0729080311FA
:101586000318013E0319C82AAF072A0803110318D6
:10159600013E0319CF2AB0072B0803110318013E99
:1015A6000319D62AB1070830A8000310AE0DAF0DF7
:1015B600B00DB10DA80BD82A2008F00024080A1295
:1015C6008A1503200A128A15710883120313B900BB
:1015D6007008B8003808A8003908A900AA01AB01AC
:1015E6002808AE07290803110318013E0319FC2A2F
:1015F600AF072A0803110318013E0319032BB0078E
:101606002B0803110318013E03190A2BB107210801
:10161600F00026080A128A1503200A128A15710894
:1016260083120313B9007008B8003808A8003908F7
:10163600A900AA01AB012808B40729080311031859
:10164600013E0319272BB5072A0803110318013E8B
:1016560003192E2BB6072B0803110318013E031995
:10166600352BB7072208F00025080A128A15032031
:101676000A128A15710883120313B9007008B8009C
:101686003808A8003908A900AA01AB012808B40740
:10169600290803110318013E0319522BB5072A081E
:1016A60003110318013E0319592BB6072B08031122
:1016B6000318013E0319602BB7072208F00026081D
:1016C6000A128A1503200A128A1571088312031357
:1016D600B9007008B8003808A8003908A900AA019E
:1016E600AB0108300310A80DA90DAA0DAB0DFF3EE6
:1016F600031D752B2808B407290803110318013E9A
:101706000319862BB5072A0803110318013E03198E
:101716008D2BB6072B0803110318013E0319942BD2
:10172600B7072E08A8002F08A9003008AA0031081C
:10173600AB0018300310AB0CAA0CA90CA80CFF3E8A
:10174600031D9D2B2808B407290803110318013E21
:101756000319AE2BB5072A0803110318013E031916
:10176600B52BB6072B0803110318013E0319BC2B32
:10177600B7070830A8000310AE0DAF0DB00DB10DC0
:10178600A80BBE2B33083207A800A901A90D28080B
:10179600823EB80029080318013EFF3EB900F02B2F
:1017A6000130A8000310B40DB50DB60DB70DA80B8A
:1017B600D52BB11FDF2BE02BE12B34140130A80011
:1017C6000310AE0DAF0DB00DB10DA80BE32BFF301E
:1017D600B8070318B90AFF30B907B61FF32BF42B65
:1017E600D32BB201B11FF82BF92B152CFF302E0588
:1017F600A800FF302F05A900FF303005AA007F3072
:101806003105AB002B082A042904280403190C2CE3
:101816000D2C102CB201B20A152C341C132C142CCE
:10182600152C0D2C32080319192C1A2C4B2C0130AF
:10183600B407003003180130B50700300318013033
:10184600B607003003180130B707371C2B2C2C2C99
:101856004B2C3408A8003508A9003608AA0037081A
:10186600AB000130AC002B0DAB0CAA0CA90CA80CDC
:10187600AC0B362C2B08B7002A08B6002908B50091
:101886002808B4000130B8070318B90A0030B907B0
:101896003908803AFF0080307F02031D542CFF3048
:1018A6003802031C572C582C632C7F3083120313E9
:1018B600B7008030B6000030B5000030B400942C7C
:1018C600831203133908803AFF0080307F02031D1C
:1018D6006E2C013038020318712C722C7E2C0030CD
:1018E60083120313B7000030B6000030B500003095
:1018F600B400AD01942C831203133808B300FF30F3
:10190600B405FF30B5057F30B6050030B705331C8A
:101916008D2C8E2C8F2CB6173308A8000310280C9C
:10192600B7002D08FF007F08B7043708A300360864
:10193600A2003508A1003408A00008008312031392
:10194600CC00CC1FA72CA82C552ECC09CC0A4C08B1
:10195600803A123E031CB02CB12C992D0A30F600A9
:101966000030F7004C08F200F301F21BF303643079
:10197600F0000030F1000A168A11C2200A128A15F8
:101986007108F9007008F8000A168A152A260A1244
:101996008A15760883120313BE0001300310BE0DAC
:1019A600FF3E031DD12C03103E0D593E84000A163E
:1019B6008A110A200A128A15BF000A168A110A20FD
:1019C6000A128A15C0000A168A110A200A128A15F6
:1019D600C1000A168A110A200A128A15C200420894
:1019E600A3004108A2004008A1003F08A0006430FF
:1019F600F6000030F7004C08F800F901F81BF9036F
:101A06000A168A152A260A128A15760883120313DD
:101A1600C30001300310C30DFF3E031D0D2D03103F
:101A2600430D7D3E84000A168A110A200A128A1581
:101A3600C4000A168A110A200A128A15C5000A1657
:101A46008A110A200A128A15C6000A168A110A2065
:101A56000A128A15C7004708A7004608A6004508C7
:101A6600A5004408A4000A128A155C210A128A15E8
:101A7600831203132308CB002208CA002108C900D9
:101A86002008C8000A30F0000030F1004C08F200CF
:101A9600F301F21BF3030A168A11C2200A128A15F1
:101AA600700883120313BE0001300310BE0DFF3E03
:101AB600031D582D03103E0D353E84000A168A116B
:101AC6000A200A128A15BF000A168A110A200A126B
:101AD6008A15C0000A168A110A200A128A15C10040
:101AE6000A168A110A200A128A15C2004208A300A1
:101AF6004108A2004008A1003F08A0004B08A7002B
:101B06004A08A6004908A5004808A4000A128A1532
:101B16005C210A128A15831203132308BD002208CA
:101B2600BC002108BB002008BA00FF2F4C08803AF1
:101B3600753E031C9F2DA02D282E0A30F000003084
:101B4600F1004C08F200F301F21BF3030A168A11A6
:101B5600C2200A128A15700883120313BE000130D0
:101B66000310BE0DFF3E031DB32D03103E0D353E83
:101B760084000A168A110A200A128A15BF000A165C
:101B86008A110A200A128A15C0000A168A110A202A
:101B96000A128A15C1000A168A110A200A128A1523
:101BA600C2004208A3004108A2004008A1003F0865
:101BB600A0000A30F6000030F7004C08F800F901E2
:101BC600F81BF9030A168A152A260A128A157608B8
:101BD60083120313C30001300310C30DFF3E031D20
:101BE600EF2D0310430D593E84000A168A110A2070
:101BF6000A128A15C4000A168A110A200A128A15C0
:101C0600C5000A168A110A200A128A15C6000A1683
:101C16008A110A200A128A15C7004708A700460833
:101C2600A6004508A5004408A4000A128A155C21EE
:101C36000A128A15831203132308BD002208BC006A
:101C46002108BB002008BA00FF2F4C08BE00013057
:101C56000310BE0DFF3E031D2B2E03103E0D353E19
:101C660084000A168A110A200A128A15BF000A166B
:101C76008A110A200A128A15C0000A168A110A2039
:101C86000A128A15C1000A168A110A200A128A1532
:101C9600C2004208BD004108BC004008BB003F0826
:101CA600BA00FF2F4C08803A123E031C5B2E5C2EB6
:101CB600442F0A30F6000030F7004C08F200F3011A
:101CC600F21BF3036430F0000030F1000A168A11AB
:101CD600C2200A128A157108F9007008F8000A165F
:101CE6008A152A260A128A15760883120313BE005D
:101CF60001300310BE0DFF3E031D7C2E03103E0D6A
:101D0600253E84000A168A110A200A128A15BF0087
:101D16000A168A110A200A128A15C0000A168A11A2
:101D26000A200A128A15C1000A168A110A200A1206
:101D36008A15C2004208A3004108A2004008A1007B
:101D46003F08A0006430F6000030F7004C08F800A9
:101D5600F901F81BF9030A168A152A260A128A15AA
:101D6600760883120313C30001300310C30DFF3E30
:101D7600031DB82E0310430D493E84000A168A112E
:101D86000A200A128A15C4000A168A110A200A12A3
:101D96008A15C5000A168A110A200A128A15C60073
:101DA6000A168A110A200A128A15C7004708A700D0
:101DB6004608A6004508A5004408A4000A128A158C
:101DC6005C210A128A15831203132308CB0022080A
:101DD600CA002108C9002008C8000A30F0000030F7
:101DE600F1004C08F200F301F21BF3030A168A1104
:101DF600C2200A128A15700883120313BE0001302E
:101E06000310BE0DFF3E031D032F03103E0D013EC2
:101E160084000A168A110A200A128A15BF000A16B9
:101E26008A110A200A128A15C0000A168A110A2087
:101E36000A128A15C1000A168A110A200A128A1580
:101E4600C2004208A3004108A2004008A1003F08C2
:101E5600A0004B08A7004A08A6004908A5004808A4
:101E6600A4000A128A155C210A128A15831203132A
:101E76002308BD002208BC002108BB002008BA00C8
:101E8600FF2F4C08803A753E031C4A2F4B2FD32F49
:101E96000A30F0000030F1004C08F200F301F21BAA
:101EA600F3030A168A11C2200A128A1570088312D1
:101EB6000313BE0001300310BE0DFF3E031D5E2F4F
:101EC60003103E0D013E84000A168A110A200A12EA
:101ED6008A15BF000A168A110A200A128A15C0003E
:101EE6000A168A110A200A128A15C1000A168A11D0
:101EF6000A200A128A15C2004208A3004108A2005D
:101F06004008A1003F08A0000A30F6000030F700A4
:101F16004C08F800F901F81BF9030A168A152A2657
:101F26000A128A15760883120313C30001300310C0
:101F3600C30DFF3E031D9A2F0310430D253E84005B
:101F46000A168A110A200A128A15C4000A168A116C
:101F56000A200A128A15C5000A168A110A200A12D0
:101F66008A15C6000A168A110A200A128A15C7009F
:101F76004708A7004608A6004508A5004408A4008F
:101F86000A128A155C210A128A1583120313230882
:101F9600BD002208BC002108BB002008BA00FF2FA4
:101FA6004C08BE0001300310BE0DFF3E031DD62FA8
:101FB60003103E0D013E84000A168A110A200A12F9
:101FC6008A15BF000A168A110A200A128A15C0004D
:101FD6000A168A110A200A128A15C1000A168A11DF
:101FE6000A200A128A15C2004208BD004108BC0038
:101FF6004008BB003F08BA000800FF1B0A288313ED
:102006007F1883170008840A0319FF0A0800103096
:102016008A000408840A82070034003400348034BD
:102026003F34003400342034413400340034C834A2
:102036004234003400347A344434003440341C349E
:10204600463400345034C3344734003424347434B2
:1020560049348034963418344B342034BC34BE347E
:102066004C3428346B346E344E34F934023415341F
:102076005034EC347834AD346034CA34F2344934F4
:1020860071340034003480343F34CD34CC34CC3415
:102096003D340A34D73423343C346F341234833419
:1020A6003A341734B734D1343834AC34C5342734E1
:1020B6003734BD343734863435349534BF34D6346A
:1020C60033347734CC342B3432345F34703489343F
:1020D6003034FF34E634DB342E340834E5343C3413
:1020E6001E3460344234A2340D34013400340034DA
:1020F60000340A34003400340034643400340034CC
:102106000034E83403340034003410342734003407
:102116000034A034863401340034403442340F3461
:10212600003480349634983400340034E134F53485
:1021360005340034CA349A343B344434613474343C
:1021460065343A3420340034543465346D34703494
:102156003A342034003425342E3432346634003494
:102166002034433400342F3400340A168A153422BE
:102176000A168A1183120313240893000800F50136
:10218600F31FC628C728CE28F209F309F20A031955
:10219600F30AF501F50AF11FD128D228D728F0094C
:1021A600F109F00A0319F10A700871040319DC2811
:1021B600DD280C29F401F40AEB2801300310F00D98
:1021C600F10DFF3E031DE1280130FF007F08F407F3
:1021D600F11FEE28EF28E02871087302031DF52889
:1021E60070087202031CF828F928FF287008F2020A
:1021F6007108031CF303F30201300310F10CF00C19
:10220600FF3E031D00290130F402031D0B290C2992
:10221600EF2875080319102911291629F209F3095F
:10222600F20A0319F30A7308F1007208F0000800B5
:1022360083120313CD006E304D02031C232924297B
:10224600312A3F30A3000030A2000030A100003048
:10225600A0006430F5000030F6004D08BE00BF0156
:102266003E08F7003F08F8000A168A1543240A16A6
:102276008A11750883120313C00001300310C00DC4
:10228600FF3E031D41290310400D7D3E84000A16C2
:102296008A110A200A168A11C1000A168A110A2012
:1022A6000A168A11C2000A168A110A200A168A110B
:1022B600C3000A168A110A200A168A11C4004408A5
:1022C600A7004308A6004208A5004108A4000A1278
:1022D6008A155C210A168A11831203132308CC007F
:1022E6002208CB002108CA002008C9000A30F500E0
:1022F6000030F6004D08BE00BF013E08F2003F0860
:10230600F3006430F0000030F1000A168A158423C9
:102316000A168A117108F8007008F7000A168A155D
:1023260043240A168A11750883120313C00001306C
:102336000310C00DFF3E031D9B290310400D593E9F
:1023460084000A168A110A200A168A11C1000A1682
:102356008A110A200A168A11C2000A168A110A2050
:102366000A168A11C3000A168A110A200A168A1149
:10237600C4004408A3004308A2004208A100410883
:10238600A0004C08A7004B08A6004A08A50049086B
:10239600A4000A128A155C210A168A1183120313F5
:1023A6002308C8002208C7002108C6002008C50067
:1023B6000A30F0000030F1004D08BE00BF013E08B3
:1023C600F2003F08F3000A168A1584230A168A11BA
:1023D600700883120313C00001300310C00DFF3EC6
:1023E600031DF0290310400D353E84000A168A119C
:1023F6000A200A168A11C1000A168A110A200A162C
:102406008A11C2000A168A110A200A168A11C30006
:102416000A168A110A200A168A11C4004408A30063
:102426004308A2004208A1004108A0004808A700EE
:102436004708A6004608A5004508A4000A128A1502
:102446005C210A168A11831203132308BD00220891
:10245600BC002108BB002008BA00252B0B304D021A
:10246600031C362A372AE22A3F30A3000030A20096
:102476000030A1000030A0000A30F5000030F60060
:102486004D08BE00BF013E08F7003F08F8000A16D7
:102496008A1543240A168A11750883120313C0008D
:1024A60001300310C00DFF3E031D542A0310400DDA
:1024B600593E84000A168A110A200A168A11C1009A
:1024C6000A168A110A200A168A11C2000A168A11E9
:1024D6000A200A168A11C3000A168A110A200A1649
:1024E6008A11C4004408A7004308A6004208A500B4
:1024F6004108A4000A128A155C210A168A11831261
:1025060003132308CC002208CB002108CA002008A8
:10251600C9000A30F0000030F1004D08BE00BF01CE
:102526003E08F2003F08F3000A168A1584230A16AD
:102536008A11700883120313C00001300310C00D06
:10254600FF3E031DA12A0310400D353E84000A16E6
:102556008A110A200A168A11C1000A168A110A204F
:102566000A168A11C2000A168A110A200A168A1148
:10257600C3000A168A110A200A168A11C4004408E2
:10258600A3004308A2004208A1004108A0004C088D
:10259600A7004B08A6004A08A5004908A4000A128D
:1025A6008A155C210A168A11831203132308BD00BB
:1025B6002208BC002108BB002008BA00252B3F30AA
:1025C600A3000030A2000030A1000030A0004D089A
:1025D600BE0001300310BE0DFF3E031DED2A0310A1
:1025E6003E0D353E84000A168A110A200A168A1103
:1025F600BF000A168A110A200A168A11C0000A1696
:102606008A110A200A168A11C1000A168A110A209E
:102616000A168A11C2004208A7004108A60040080F
:10262600A5003F08A4000A128A155C210A168A1121
:10263600831203132308BD002208BC002108BB0037
:102646002008BA0008008312031351088039DE00FF
:102656005108D6005607E000D01F322B332B342BFF
:10266600601460080319382B392B492B600A031DA7
:102676003D2B3E2B462B0030D1000030D0000030E1
:10268600CF000030CE00D017D101512B0030D10041
:102696000030D0000030CF000030CE005508803921
:1026A600DF005F085E060319592B5A2B5B2B5E175A
:1026B6005508D6005607DF00D41F622B632B642B08
:1026C6005F145F080319682B692B792B5F0A031DBA
:1026D6006D2B6E2B762B0030D5000030D4000030E9
:1026E600D3000030D200D417D501812B0030D5009D
:1026F6000030D4000030D3000030D20060085F0202
:102706000318862B872BAD2B5E1F8A2B8B2B8F2BCB
:102716008030FF007F08DE066008E1005F08E00009
:102726006108DF004E08E1005208CE006108D200C1
:102736004F08E1005308CF006108D3005008E100BC
:102746005408D0006108D4005108E1005508D100B2
:102756006108D500E1015F08D600D7015708D90006
:1027660060085602D800031CD9035908803AFF00B6
:1027760080307F02031DC12B1A305802031CC42B64
:10278600C52BFC2B83120313510850044F044E042F
:10279600031DCE2BD02B0130D12B0030E1000030B1
:1027A600D1000030D0000030CF000030CE005F08EE
:1027B600E000042C611CE02BE12BE82B6108D6001D
:1027C6000310560C0138E100EA2B0310E10C4E1CF5
:1027D600ED2BEE2BEF2BE1170130D600510DD10C6E
:1027E600D00CCF0CCE0CD60BF12B0130FF007F089E
:1027F600E007831203135F086002031C032C042CFA
:10280600DD2B5E1B072C082C512C6008031D0C2C9D
:102816000D2C162C0030D1000030D0000030CF0037
:102826000030CE007D2D5208CE0753080311031841
:10283600013E03191F2CCF07540803110318013E4C
:102846000319262CD007550803110318013E031956
:102856002D2CD107511C302C312C052D611C342C0C
:10286600352C3C2C6108D6000310560C0138E100CB
:102876003E2C0310E10C4E1C412C422C432CE1173C
:102886000130D600510DD10CD00CCF0CCE0CD60B8E
:10289600452C0130FF007F08E007052D5108803ADE
:1028A600FF005508803A7F02031D632C540850022E
:1028B600031D632C53084F02031D632C52084E025E
:1028C6000318662C672CBF2CFF30D600FF30D700CC
:1028D600FF30D800FF30D9005208DA005308DB0079
:1028E6005408DC005508DD004E08DA024F08031CC8
:1028F6004F0F7E2C7F2CDB025008031C500F842CBC
:10290600852CDC025108031C510F8A2C8B2CDD020E
:102916005A08D6075B0803185B0F922C932CD7072F
:102926005C0803185C0F982C992CD8075D080318CF
:102936005D0AD9075908D1005808D0005708CF00BA
:102946005608CE008030FF007F08DE06E109E10A66
:102956006108031DAF2CB02CCD2C0130CE07003002
:1029660003180130CF07003003180130D0070030BC
:1029760003180130D107CD2C5208CE025308031C90
:10298600530FCF025408031C540FD0025508031CE2
:10299600550FD102510850044F044E04031DD42C88
:1029A600D52C012D6108031DD92CDA2C012D003000
:1029B600D1000030D0000030CF000030CE007D2D99
:1029C6000130D6000310CE0DCF0DD00DD10DD60B94
:1029D600E52CE11FEF2CF02CF12C4E14611CF42C8D
:1029E600F52CF82C0314E10DFA2C0310E10D600808
:1029F6000319FE2CFF2C012D0130E002D01F042DFF
:102A0600052DE32CDF01E11F092D0A2D182D610884
:102A16007F3903190F2D102D132DDF01DF0A182D15
:102A26004E1C162D172D182D102D5F0803191C2D61
:102A36001D2D512D0130CE07003003180130CF0770
:102A4600003003180130D007003003180130D107D9
:102A5600511C2E2D2F2D512D4E08D6004F08D70074
:102A66005008D8005108D9000130DA00590DD90CA8
:102A7600D80CD70CD60CDA0B392D5908D1005808CA
:102A8600D0005708CF005608CE00600A03194C2D17
:102A96004D2D512D0130FF007F08E007600A031914
:102AA600552D562D5B2D6008031D5A2D5B2D692D66
:102AB6000030D1000030D0000030CF000030CE0012
:102AC6006008031D672D682D692DDE01601C6C2DC5
:102AD6006D2D6F2DD017732D7F30FF007F08D00529
:102AE6006008D6000310560CD100DE1F7B2D7C2D0E
:102AF6007D2DD11708000A168A1587240A168A1111
:102B06000A30F0000030F100831603136F08F3005B
:102B16006E08F2000A168A11C2200A168A11700877
:102B260083160313C2000A30F6000030F7006F0860
:102B3600F9006E08F8000A168A152A260A168A115E
:102B4600760883160313C3000A30F0000030F10044
:102B56006D08F3006C08F2000A168A11C2200A16E4
:102B66008A11700883160313C4000A30F600003079
:102B7600F7006D08F9006C08F8000A168A152A266F
:102B86000A168A11760883160313C5000A30F00068
:102B96000030F1006B08F3006A08F2000A168A1189
:102BA600C2200A168A11700883160313C6000A305B
:102BB600F6000030F7006B08F9006A08F8000A16FC
:102BC6008A152A260A168A11760883160313C70061
:102BD600F401F40A01300A168A1583220A168A11AC
:102BE6009130F3008030F4000A168A15BE230A16C7
:102BF6008A11831603134308303E0A168A15532298
:102C06000A168A11831603134208303E0A168A15DD
:102C160053220A168A11A730F3008030F4000A16F0
:102C26008A15BE230A168A11831603134508303EF9
:102C36000A168A1553220A168A11831603134408A4
:102C4600303E0A168A1553220A168A11A730F30057
:102C56008030F4000A168A15BE230A168A118316D6
:102C660003134708303E0A168A1553220A168A119C
:102C7600831603134608303E0A168A1553220A168F
:102C86008A11F401F40A02300A168A1583220A16FA
:102C96008A119830F3008030F4000A168A15BE2394
:102CA6000A168A119F3083120313EA008316031350
:102CB6004F0883120313EE00831603134E08831284
:102CC6000313ED00831603134D0883120313EC0060
:102CD600831603134C0883120313EB00D6300A1233
:102CE6008A1179210A168A11D630F3000030F400D1
:102CF6000A168A15BE230A168A110E30F40002300F
:102D06000A168A1583220A168A11A430F300803027
:102D1600F4000A168A15BE230A168A1183120313B3
:102D26000618962E972EF02E061C9A2E9B2E972E60
:102D3600013083160313EE070318EF0A0030EF077E
:102D46006F08803AFF0080307F02031DAC2E2030D2
:102D56006E02031CAF2EB02EB42E83160313EE01A3
:102D6600EF010A168A1517220A168A11D030831225
:102D76000313A4000030A5000A168A11B8200A160B
:102D86008A11043083120313A4000030A5000A162A
:102D96008A11B8200A168A11831603136F08831244
:102DA6000313A100831603136E0883120313A000F6
:102DB6000A168A1516230A168A1183120313210886
:102DC600A5002008A4000A168A11B8200A168A113E
:102DD6000A168A1520220A168A11831203138618E8
:102DE600F52EF62E512F861CF92EFA2EF62E0130D0
:102DF60083160313EC070318ED0A0030ED076D0880
:102E0600803AFF0080307F02031D0B2F0D306C02CD
:102E1600031C0E2F0F2F152F013083160313EC0002
:102E26000030ED000A168A1517220A168A11D030CC
:102E360083120313A4000030A5000A168A11B820D5
:102E46000A168A11053083120313A4000030A50068
:102E56000A168A11B8200A168A11831603136D08FA
:102E660083120313A100831603136C088312031342
:102E7600A0000A168A1516230A168A11831203134E
:102E86002108A5002008A4000A168A11B8200A16EF
:102E96008A110A168A1520220A168A11831203132A
:102EA6000619562F572FB02F061D5A2F5B2F572F57
:102EB600013083160313EA070318EB0A0030EB0709
:102EC6006B08803AFF0080307F02031D6C2F1F3095
:102ED6006A02031C6F2F702F742F83160313EA01E7
:102EE600EB010A168A1517220A168A11D0308312A8
:102EF6000313A4000030A5000A168A11B8200A168A
:102F06008A11063083120313A4000030A5000A16A6
:102F16008A11B8200A168A11831603136B088312C6
:102F26000313A100831603136A0883120313A00078
:102F36000A168A1516230A168A1183120313210804
:102F4600A5002008A4000A168A11B8200A168A11BC
:102F56000A168A1520220A168A110A168A151722B7
:102F66000A168A11513083120313A4000030A500FB
:102F76000A168A11B8200A168A110030F000F100EC
:102F86000A168A15E8220A168A1170088316031390
:102F9600BE007108BF00C001C1014108F900400828
:102FA600F8003F08F7003E08F60000300A128A15BE
:102FB600A2200A168A11790883160313CF0078080F
:102FC600CE007708CD007608CC000A168A15202296
:102FD6000A168A11033083160313C0000830BF0097
:102FE6007630BE00BE0BF52FBF0BF52FC00BF52FAD
:0A2FF6000000832D0A128A11002842
:10340600F000700883120313880008001334003498
:10341600013400340134003464008001840A040657
:10342600031900340406102A0A168A1534220A16CD
:103436008A1583160313111408000A168A153422F6
:103446000A168A15831603131115080073087204E9
:10345600710470040319302A312A332A8030F306A6
:103466000800831603131419392A3A2A342A110834
:103476001F39031D3F2A402A342A0800F100F001B3
:103486003A3071020318482A492A512A303071020B
:10349600031C4E2A4F2A512AF001F00A700C08002C
:1034A600F20083120313091472080A168A150322FE
:1034B6000A168A158312031389141A30F100F10BC8
:1034C600622A00008312031389100800F300831296
:1034D6000313091073080A168A1503220A168A1599
:1034E6008312031389140B30F2006230F100F10BE2
:1034F6007A2AF20B7A2A0000831203138910080035
:10350600F5007503031D882A892A912A74087F3ECF
:103516000A168A1569220A168A159E2A0230750627
:10352600031D962A972A9E2A7408BF3E0A168A15F4
:1035360069220A168A150800803083120313E506ED
:103546006908D1006808D0006708CF006608CE0079
:103556006508D5006408D4006308D3006208D20069
:103566000A168A1126230A168A158312031351088E
:10357600E5005008E4004F08E3004E08E2000800AA
:10358600F401F501701CC82AC92ACF2A7208F4076B
:103596000318F50A7308F50701300310F20DF30D51
:1035A600FF3E031DD02A01300310F10CF00CFF3E44
:1035B600031DD72A70087104031DE22AE32AC52ACF
:1035C6007508F1007408F00008000A168A153422FE
:1035D6000A168A158316031391150A168A153422BC
:1035E6000A168A15831203131308F200F3017208F0
:1035F600F4007308F5000A168A1534220A168A158D
:1036060070037104031D082B092B0D2B831603135E
:103616009112102B83160313911611167508F100DB
:103626007408F00008000A30F6000030F700831234
:1036360003132108F9002008F8000A168A152A261D
:103646000A168A15760883120313A2007708A300C8
:10365600A20EA30EF030A30522080F39A304F03002
:10366600A2050A30F0000030F1002108F30020081E
:10367600F2000A168A11C2200A168A1570088312E9
:1036860003132207A00071080318710A2307A1007B
:103696000800283083120313940083160313910144
:1036A600831203132008A4002108A5002208A600FF
:1036B6002308A70002300310A40DA50DA60DA70D23
:1036C600FF3E031D5E2B2708F3002608F20025089F
:1036D600F1002408F0000030F7007A30F6001230CE
:1036E600F5000030F4000A168A15C4250A168A1554
:1036F6007008FF3E8316031393009401871507167F
:103706000800700871040319892B8A2BB92BF40160
:10371600F40A982B01300310F00DF10DFF3E031D46
:103726008E2B0130FF007F08F407F11F9B2B9C2B8B
:103736008D2B71087302031DA22B70087202031CE5
:10374600A52BA62BAC2B7008F2027108031CF30301
:10375600F30201300310F10CF00CFF3E031DAD2BFC
:103766000130F402031DB82BB92B9C2B7308F10012
:103776007208F0000800F801F901E32B78087307D6
:10378600F6007408F5000318F50AF81FCB2BF503AD
:103796007508F700770883120313FF007608840084
:1037A6000A168A1100200A168A150A168A15532245
:1037B6000A168A150130F8070318F90A0030F907C6
:1037C60078087307F6007408F5000318F50AF81F61
:1037D600ED2BF5037508F700770883120313FF0036
:1037E600760884000A168A1100200A168A15003AFD
:1037F600031DFE2BFF2BC12B0800F20083160313BB
:103806008113202C16141514422C96149514422C50
:1038160016151515422C96159515422C16161516C5
:10382600422C96169516422C16171517422C9617EB
:103836009517422C96019501422C7208F000F10171
:103846007108003A0319282C1D2C7008003A031938
:10385600052C013A0319082C033A03190B2C013ADB
:1038660003190E2C073A0319112C013A0319142CCB
:10387600033A0319172C013A03191A2C1D2C0800B8
:10388600F901FA017508760403194A2C4B2C822C8F
:10389600FB01FB0A592C01300310F50DF60DFF3E16
:1038A600031D4F2C0130FF007F08FB07F61F5C2C21
:1038B6005D2C4E2C01300310F90DFA0DFF3E031D51
:1038C6005E2C76087802031D6A2C75087702031CA5
:1038D6006D2C6E2C752C7508F7027608031CF80300
:1038E600F802791401300310F60CF50CFF3E031DA7
:1038F600762C0130FB02031D812C822C5D2C7A086C
:10390600F6007908F5000800831603178801890177
:10391600831603138501831203138501073083166B
:103926000313860088018312031386018801831618
:103936000313890183120313890100300A168A15BD
:1039460000240A168A1501300A168A1500240A165A
:103956008A1502300A168A1500240A168A150A16CE
:103966008A156E250A168A15003083120313A300E2
:103976000130A2008630A100A030A0000A168A15E8
:103986004C230A168A150A128A11A6200A168A15C7
:10399600080000307005F80000307105F90080302D
:1039A6007205FA007F307305FB007B087A04790400
:1039B6007804031DDF2CE02CE82C0030F3000030E7
:1039C600F2000030F1000030F00000307405F8001D
:1039D60000307505F90080307605FA007F307705EE
:1039E600FB007B087A0479047804031DFB2CFC2C6D
:1039F600042D0030F7000030F6000030F5000030EE
:103A0600F40077087306031D122D76087206031D4F
:103A1600122D75087106031D122D74087006031900
:103A2600152D162D182D0310192D031408007308D3
:103A36007204710470040319212D222D652DF901DC
:103A4600F90A322D0130F8000310F00DF10DF20DD8
:103A5600F30DF80B272D0130FF007F08F907F31F40
:103A6600352D362D252D73087702031D442D72083A
:103A76007602031D442D71087502031D442D70083E
:103A86007402031C472D482D562D7008F402710848
:103A9600031C710FF5027208031C720FF6027308FD
:103AA600031C730FF70201300310F30CF20CF10C38
:103AB600F00CFF3E031D572D0130F902031D642D46
:103AC600652D362D7708F3007608F2007508F100AB
:103AD6007408F00008002730F500F530F400F40B08
:103AE600722DF50B722D00300A168A1503220A165E
:103AF6008A153430F500F130F400F40B802DF50B07
:103B0600802D852D30300A168A1569220A168A15E7
:103B16000D30F500FB30F400F40B8F2DF50B8F2DD7
:103B2600942D30300A168A1569220A168A156A30CB
:103B3600F400F40B9C2D000030300A168A15692219
:103B46000A168A1538300A168A1569220A168A153F
:103B560010300A168A1569220A168A1501300A16C5
:103B66008A1569220A168A1506300A168A156922E6
:103B76000A168A150C300A168A1569220A168A153B
:103B860008000030FC000030FB000030FA00003076
:103B9600F90073087204710470040319D32DD42D2F
:103BA600212EFD01FD0AE42D0130F8000310F00D71
:103BB600F10DF20DF30DF80BD92D0130FF007F0842
:103BC600FD07F31FE72DE82DD72D0130F800031070
:103BD600F90DFA0DFB0DFC0DF80BEA2D73087702B3
:103BE600031DFF2D72087602031DFF2D7108750255
:103BF600031DFF2D70087402031C022E032E122EC5
:103C06007008F4027108031C710FF5027208031C98
:103C1600720FF6027308031C730FF7027914013052
:103C26000310F30CF20CF10CF00CFF3E031D132EE7
:103C36000130FD02031D202E212EE82D7C08F30005
:103C46007B08F2007A08F1007908F0000800FB0111
:103C5600F71F2E2E2F2E362EF609F709F60A031910
:103C6600F70AFB01FB0AF91F392E3A2E432EF809F3
:103C7600F909F80A0319F90A0130FF007F08FB0663
:103C8600FC01FD017608770403194A2E4B2E822E7D
:103C9600FA01FA0A592E01300310F60DF70DFF3E10
:103CA600031D4F2E0130FF007F08FA07F71F5C2E19
:103CB6005D2E4E2E01300310FC0DFD0DFF3E031D43
:103CC6005E2E77087902031D6A2E76087802031C99
:103CD6006D2E6E2E752E7608F8027708031CF903F2
:103CE600F9027C1401300310F70CF60CFF3E031D9D
:103CF600762E0130FA02031D812E822E5D2E7B0860
:103D06000319862E872E8C2EFC09FD09FC0A031941
:103D1600FD0A7D08F7007C08F60008007008F80028
:103D26007108F9007208FA000310790D7A0D8312F2
:103D36000313A5002508031DA12EA22EAB2E0030CD
:103D4600F3000030F2000030F1000030F000472FA1
:103D56007408F8007508F9007608FA000310790D62
:103D66007A0DA4002408031DB92EBA2EBB2EA22E4E
:103D7600F117FF30F005FF30F1050030F205F517B9
:103D8600FF30F405FF30F5050030F6050030A300DE
:103D96000030A2000030A1000030A0007F30A50254
:103DA60098302407F8007808A5021830A4000130DE
:103DB600F8000310A00DA10DA20DA30DF80BDC2E2B
:103DC60076087202031DED2E75087102031DED2E95
:103DD60074087002031CF02EF12EFC2E7408F002FB
:103DE6007508031C750FF1027608031C760AF202A9
:103DF600201401300310F00DF10DF20DFF3E031DEE
:103E0600FD2E0130A402031D092F0A2FDA2EA51F4D
:103E16000D2F0E2F282F2508803A973E0318142FB2
:103E2600152F162FA22E01300310A30CA20CA10CE5
:103E3600A00CFF3E031D172F0130FF007F08A507CA
:103E4600031D262F272F162F3F2F18302502031C60
:103E56002D2F2E2F3A2FA22E0130F8000310A00D81
:103E6600A10DA20DA30DF80B312F0130A5022508D7
:103E7600031D3E2F3F2F2F2F2308F3002208F200A9
:103E86002108F1002008F00008000310720D730DE0
:103E960083120313A5002508031D522F532F5C2FF1
:103EA6000030F3000030F2000030F1000030F00086
:103EB600FF2F0310760D770DA4002408031D642F31
:103EC600652F662F532FF217FF30F005FF30F105EF
:103ED600FF30F2050030F305F617FF30F405FF302A
:103EE600F505FF30F6050030F7050030A300003079
:103EF600A2000030A1000030A0007F30A502A03053
:103F06002407F8007808A5022030A4000130F80044
:103F16000310A00DA10DA20DA30DF80B8B2F770892
:103F26007302031DA02F76087202031DA02F7508C9
:103F36007102031DA02F74087002031CA32FA42F67
:103F4600B32F7408F0027508031C750FF10276088A
:103F5600031C760FF2027708031C770FF302201476
:103F66000130F8000310F00DF10DF20DF30DF80B12
:103F7600B52F0130A402031DC12FC22F892FA51F03
:103F8600C52FC62FE02F2508803A9F3E0318CC2F59
:103F9600CD2FCE2F532F01300310A30CA20CA10C52
:103FA600A00CFF3E031DCF2F0130FF007F08A507A1
:103FB600031DDE2FDF2FCE2FF72F20302502031C07
:103FC600E52FE62FF22F532F0130F8000310A00D36
:103FD600A10DA20DA30DF80BE92F0130A5022508AE
:103FE600031DF62FF72FE72F2308F3002208F20010
:0A3FF6002108F1002008F000080087
:04400E00D420FF3F7C
:00000001FF
